{
  "contractName": "Marketplace",
  "abi": [
    {
      "inputs": [],
      "stateMutability": "nonpayable",
      "type": "constructor"
    },
    {
      "anonymous": false,
      "inputs": [
        {
          "indexed": true,
          "internalType": "address",
          "name": "owner",
          "type": "address"
        },
        {
          "indexed": true,
          "internalType": "address",
          "name": "approved",
          "type": "address"
        },
        {
          "indexed": true,
          "internalType": "uint256",
          "name": "tokenId",
          "type": "uint256"
        }
      ],
      "name": "Approval",
      "type": "event"
    },
    {
      "anonymous": false,
      "inputs": [
        {
          "indexed": true,
          "internalType": "address",
          "name": "owner",
          "type": "address"
        },
        {
          "indexed": true,
          "internalType": "address",
          "name": "operator",
          "type": "address"
        },
        {
          "indexed": false,
          "internalType": "bool",
          "name": "approved",
          "type": "bool"
        }
      ],
      "name": "ApprovalForAll",
      "type": "event"
    },
    {
      "anonymous": false,
      "inputs": [
        {
          "indexed": true,
          "internalType": "address",
          "name": "previousOwner",
          "type": "address"
        },
        {
          "indexed": true,
          "internalType": "address",
          "name": "newOwner",
          "type": "address"
        }
      ],
      "name": "OwnershipTransferred",
      "type": "event"
    },
    {
      "anonymous": false,
      "inputs": [
        {
          "indexed": true,
          "internalType": "address",
          "name": "from",
          "type": "address"
        },
        {
          "indexed": true,
          "internalType": "address",
          "name": "to",
          "type": "address"
        },
        {
          "indexed": true,
          "internalType": "uint256",
          "name": "tokenId",
          "type": "uint256"
        }
      ],
      "name": "Transfer",
      "type": "event"
    },
    {
      "anonymous": false,
      "inputs": [
        {
          "indexed": false,
          "internalType": "uint256",
          "name": "_id",
          "type": "uint256"
        },
        {
          "indexed": false,
          "internalType": "bool",
          "name": "state",
          "type": "bool"
        }
      ],
      "name": "saleToggled",
      "type": "event"
    },
    {
      "anonymous": false,
      "inputs": [
        {
          "indexed": false,
          "internalType": "uint256",
          "name": "_id",
          "type": "uint256"
        },
        {
          "indexed": false,
          "internalType": "uint256",
          "name": "_price",
          "type": "uint256"
        },
        {
          "indexed": false,
          "internalType": "string",
          "name": "_tokenURI",
          "type": "string"
        }
      ],
      "name": "ticketCreated",
      "type": "event"
    },
    {
      "anonymous": false,
      "inputs": [
        {
          "indexed": false,
          "internalType": "uint256",
          "name": "_id",
          "type": "uint256"
        },
        {
          "indexed": false,
          "internalType": "address",
          "name": "_owner",
          "type": "address"
        }
      ],
      "name": "ticketTransferred",
      "type": "event"
    },
    {
      "inputs": [
        {
          "internalType": "address",
          "name": "to",
          "type": "address"
        },
        {
          "internalType": "uint256",
          "name": "tokenId",
          "type": "uint256"
        }
      ],
      "name": "approve",
      "outputs": [],
      "stateMutability": "nonpayable",
      "type": "function"
    },
    {
      "inputs": [
        {
          "internalType": "address",
          "name": "owner",
          "type": "address"
        }
      ],
      "name": "balanceOf",
      "outputs": [
        {
          "internalType": "uint256",
          "name": "",
          "type": "uint256"
        }
      ],
      "stateMutability": "view",
      "type": "function",
      "constant": true
    },
    {
      "inputs": [],
      "name": "financeAddress",
      "outputs": [
        {
          "internalType": "address",
          "name": "",
          "type": "address"
        }
      ],
      "stateMutability": "view",
      "type": "function",
      "constant": true
    },
    {
      "inputs": [
        {
          "internalType": "uint256",
          "name": "tokenId",
          "type": "uint256"
        }
      ],
      "name": "getApproved",
      "outputs": [
        {
          "internalType": "address",
          "name": "",
          "type": "address"
        }
      ],
      "stateMutability": "view",
      "type": "function",
      "constant": true
    },
    {
      "inputs": [
        {
          "internalType": "address",
          "name": "owner",
          "type": "address"
        },
        {
          "internalType": "address",
          "name": "operator",
          "type": "address"
        }
      ],
      "name": "isApprovedForAll",
      "outputs": [
        {
          "internalType": "bool",
          "name": "",
          "type": "bool"
        }
      ],
      "stateMutability": "view",
      "type": "function",
      "constant": true
    },
    {
      "inputs": [],
      "name": "name",
      "outputs": [
        {
          "internalType": "string",
          "name": "",
          "type": "string"
        }
      ],
      "stateMutability": "view",
      "type": "function",
      "constant": true
    },
    {
      "inputs": [],
      "name": "owner",
      "outputs": [
        {
          "internalType": "address",
          "name": "",
          "type": "address"
        }
      ],
      "stateMutability": "view",
      "type": "function",
      "constant": true
    },
    {
      "inputs": [
        {
          "internalType": "uint256",
          "name": "tokenId",
          "type": "uint256"
        }
      ],
      "name": "ownerOf",
      "outputs": [
        {
          "internalType": "address",
          "name": "",
          "type": "address"
        }
      ],
      "stateMutability": "view",
      "type": "function",
      "constant": true
    },
    {
      "inputs": [],
      "name": "renounceOwnership",
      "outputs": [],
      "stateMutability": "nonpayable",
      "type": "function"
    },
    {
      "inputs": [
        {
          "internalType": "address",
          "name": "from",
          "type": "address"
        },
        {
          "internalType": "address",
          "name": "to",
          "type": "address"
        },
        {
          "internalType": "uint256",
          "name": "tokenId",
          "type": "uint256"
        }
      ],
      "name": "safeTransferFrom",
      "outputs": [],
      "stateMutability": "nonpayable",
      "type": "function"
    },
    {
      "inputs": [
        {
          "internalType": "address",
          "name": "from",
          "type": "address"
        },
        {
          "internalType": "address",
          "name": "to",
          "type": "address"
        },
        {
          "internalType": "uint256",
          "name": "tokenId",
          "type": "uint256"
        },
        {
          "internalType": "bytes",
          "name": "_data",
          "type": "bytes"
        }
      ],
      "name": "safeTransferFrom",
      "outputs": [],
      "stateMutability": "nonpayable",
      "type": "function"
    },
    {
      "inputs": [
        {
          "internalType": "address",
          "name": "operator",
          "type": "address"
        },
        {
          "internalType": "bool",
          "name": "approved",
          "type": "bool"
        }
      ],
      "name": "setApprovalForAll",
      "outputs": [],
      "stateMutability": "nonpayable",
      "type": "function"
    },
    {
      "inputs": [
        {
          "internalType": "bytes4",
          "name": "interfaceId",
          "type": "bytes4"
        }
      ],
      "name": "supportsInterface",
      "outputs": [
        {
          "internalType": "bool",
          "name": "",
          "type": "bool"
        }
      ],
      "stateMutability": "view",
      "type": "function",
      "constant": true
    },
    {
      "inputs": [],
      "name": "symbol",
      "outputs": [
        {
          "internalType": "string",
          "name": "",
          "type": "string"
        }
      ],
      "stateMutability": "view",
      "type": "function",
      "constant": true
    },
    {
      "inputs": [
        {
          "internalType": "uint256",
          "name": "",
          "type": "uint256"
        }
      ],
      "name": "tickets",
      "outputs": [
        {
          "internalType": "uint256",
          "name": "maxPrice",
          "type": "uint256"
        },
        {
          "internalType": "uint256",
          "name": "price",
          "type": "uint256"
        },
        {
          "internalType": "bool",
          "name": "onSale",
          "type": "bool"
        }
      ],
      "stateMutability": "view",
      "type": "function",
      "constant": true
    },
    {
      "inputs": [
        {
          "internalType": "uint256",
          "name": "tokenId",
          "type": "uint256"
        }
      ],
      "name": "tokenURI",
      "outputs": [
        {
          "internalType": "string",
          "name": "",
          "type": "string"
        }
      ],
      "stateMutability": "view",
      "type": "function",
      "constant": true
    },
    {
      "inputs": [
        {
          "internalType": "address",
          "name": "from",
          "type": "address"
        },
        {
          "internalType": "address",
          "name": "to",
          "type": "address"
        },
        {
          "internalType": "uint256",
          "name": "tokenId",
          "type": "uint256"
        }
      ],
      "name": "transferFrom",
      "outputs": [],
      "stateMutability": "nonpayable",
      "type": "function"
    },
    {
      "inputs": [
        {
          "internalType": "address",
          "name": "newOwner",
          "type": "address"
        }
      ],
      "name": "transferOwnership",
      "outputs": [],
      "stateMutability": "nonpayable",
      "type": "function"
    },
    {
      "inputs": [],
      "name": "vaultBalance",
      "outputs": [
        {
          "internalType": "uint256",
          "name": "",
          "type": "uint256"
        }
      ],
      "stateMutability": "view",
      "type": "function",
      "constant": true
    },
    {
      "inputs": [
        {
          "internalType": "uint256",
          "name": "_price",
          "type": "uint256"
        },
        {
          "internalType": "string",
          "name": "_tokenURI",
          "type": "string"
        }
      ],
      "name": "createTicket",
      "outputs": [],
      "stateMutability": "nonpayable",
      "type": "function"
    },
    {
      "inputs": [],
      "name": "getTicketsLength",
      "outputs": [
        {
          "internalType": "uint256",
          "name": "",
          "type": "uint256"
        }
      ],
      "stateMutability": "view",
      "type": "function",
      "constant": true
    },
    {
      "inputs": [
        {
          "internalType": "uint256",
          "name": "_tokenId",
          "type": "uint256"
        },
        {
          "internalType": "uint256",
          "name": "_newPrice",
          "type": "uint256"
        },
        {
          "internalType": "string",
          "name": "_tokenURI",
          "type": "string"
        }
      ],
      "name": "changeTicketPrice",
      "outputs": [],
      "stateMutability": "nonpayable",
      "type": "function"
    },
    {
      "inputs": [],
      "name": "startEvent",
      "outputs": [],
      "stateMutability": "nonpayable",
      "type": "function"
    },
    {
      "inputs": [],
      "name": "getEventStarted",
      "outputs": [
        {
          "internalType": "bool",
          "name": "",
          "type": "bool"
        }
      ],
      "stateMutability": "view",
      "type": "function",
      "constant": true
    },
    {
      "inputs": [],
      "name": "withdraw",
      "outputs": [],
      "stateMutability": "nonpayable",
      "type": "function"
    },
    {
      "inputs": [
        {
          "internalType": "uint256",
          "name": "_tokenId",
          "type": "uint256"
        }
      ],
      "name": "toggleSale",
      "outputs": [],
      "stateMutability": "nonpayable",
      "type": "function"
    },
    {
      "inputs": [
        {
          "internalType": "uint256",
          "name": "_tokenId",
          "type": "uint256"
        }
      ],
      "name": "buyTicket",
      "outputs": [],
      "stateMutability": "payable",
      "type": "function",
      "payable": true
    },
    {
      "inputs": [],
      "name": "transferToVault",
      "outputs": [],
      "stateMutability": "nonpayable",
      "type": "function"
    },
    {
      "inputs": [
        {
          "internalType": "address",
          "name": "_finance",
          "type": "address"
        }
      ],
      "name": "setFinanceAddress",
      "outputs": [],
      "stateMutability": "nonpayable",
      "type": "function"
    }
  ],
  "bytecode": "0x608060405260006009556000600b60006101000a81548160ff021916908315150217905550600a600e553480156200003657600080fd5b506040518060400160405280600b81526020017f4e4654205469636b6574730000000000000000000000000000000000000000008152506040518060400160405280600381526020017f5449580000000000000000000000000000000000000000000000000000000000815250620000c3620000b76200014360201b60201c565b6200014b60201b60201c565b8160019080519060200190620000db9291906200022b565b508060029080519060200190620000f49291906200022b565b5050506200013d6040518060400160405280601c81526020017f68747470733a2f2f697066732e696e667572612e696f2f697066732f000000008152506200020f60201b60201c565b62000340565b600033905090565b60008060009054906101000a900473ffffffffffffffffffffffffffffffffffffffff169050816000806101000a81548173ffffffffffffffffffffffffffffffffffffffff021916908373ffffffffffffffffffffffffffffffffffffffff1602179055508173ffffffffffffffffffffffffffffffffffffffff168173ffffffffffffffffffffffffffffffffffffffff167f8be0079c531659141344cd1fd0a4f28419497f9722a3daafe3b4186f6b6457e060405160405180910390a35050565b80600f9080519060200190620002279291906200022b565b5050565b8280546200023990620002db565b90600052602060002090601f0160209004810192826200025d5760008555620002a9565b82601f106200027857805160ff1916838001178555620002a9565b82800160010185558215620002a9579182015b82811115620002a85782518255916020019190600101906200028b565b5b509050620002b89190620002bc565b5090565b5b80821115620002d7576000816000905550600101620002bd565b5090565b60006002820490506001821680620002f457607f821691505b602082108114156200030b576200030a62000311565b5b50919050565b7f4e487b7100000000000000000000000000000000000000000000000000000000600052602260045260246000fd5b613ece80620003506000396000f3fe6080604052600436106101c25760003560e01c806370a08231116100f7578063b88d4fde11610095578063e6094c0111610064578063e6094c01146105fb578063e72f984314610624578063e985e9c51461064d578063f2fde38b1461068a576101c2565b8063b88d4fde14610553578063c87b56dd1461057c578063da5cf62c146105b9578063e2fd38e9146105e4576101c2565b806395d89b41116100d157806395d89b41146104a9578063983d7f45146104d4578063a22cb465146104ff578063a8fbce0014610528576101c2565b806370a082311461042a578063715018a6146104675780638da5cb5b1461047e576101c2565b80633ccfd60b1161016457806350b447121161013e57806350b44712146103695780635338e163146103a85780636352211e146103d157806367dd74ca1461040e576101c2565b80633ccfd60b1461030057806342842e0e146103175780634e5df75014610340576101c2565b8063095ea7b3116101a0578063095ea7b31461026c5780630bf6cc0814610295578063208da65d146102c057806323b872dd146102d7576101c2565b806301ffc9a7146101c757806306fdde0314610204578063081812fc1461022f575b600080fd5b3480156101d357600080fd5b506101ee60048036038101906101e99190612ab2565b6106b3565b6040516101fb919061303e565b60405180910390f35b34801561021057600080fd5b50610219610795565b6040516102269190613059565b60405180910390f35b34801561023b57600080fd5b5061025660048036038101906102519190612b0c565b610827565b6040516102639190612fd7565b60405180910390f35b34801561027857600080fd5b50610293600480360381019061028e9190612a72565b6108ac565b005b3480156102a157600080fd5b506102aa6109c4565b6040516102b7919061331b565b60405180910390f35b3480156102cc57600080fd5b506102d56109ca565b005b3480156102e357600080fd5b506102fe60048036038101906102f9919061295c565b610a3f565b005b34801561030c57600080fd5b50610315610a9f565b005b34801561032357600080fd5b5061033e6004803603810190610339919061295c565b610b27565b005b34801561034c57600080fd5b50610367600480360381019061036291906128ef565b610b47565b005b34801561037557600080fd5b50610390600480360381019061038b9190612b0c565b610c07565b60405161039f93929190613388565b60405180910390f35b3480156103b457600080fd5b506103cf60048036038101906103ca9190612b95565b610c4e565b005b3480156103dd57600080fd5b506103f860048036038101906103f39190612b0c565b610d13565b6040516104059190612fd7565b60405180910390f35b61042860048036038101906104239190612b0c565b610dc5565b005b34801561043657600080fd5b50610451600480360381019061044c91906128ef565b611038565b60405161045e919061331b565b60405180910390f35b34801561047357600080fd5b5061047c6110f0565b005b34801561048a57600080fd5b50610493611178565b6040516104a09190612fd7565b60405180910390f35b3480156104b557600080fd5b506104be6111a1565b6040516104cb9190613059565b60405180910390f35b3480156104e057600080fd5b506104e9611233565b6040516104f6919061331b565b60405180910390f35b34801561050b57600080fd5b5061052660048036038101906105219190612a32565b611240565b005b34801561053457600080fd5b5061053d6113c1565b60405161054a9190612fd7565b60405180910390f35b34801561055f57600080fd5b5061057a600480360381019061057591906129af565b6113e7565b005b34801561058857600080fd5b506105a3600480360381019061059e9190612b0c565b611449565b6040516105b09190613059565b60405180910390f35b3480156105c557600080fd5b506105ce61159b565b6040516105db919061303e565b60405180910390f35b3480156105f057600080fd5b506105f96115b2565b005b34801561060757600080fd5b50610622600480360381019061061d9190612b39565b61164b565b005b34801561063057600080fd5b5061064b60048036038101906106469190612b0c565b6117d3565b005b34801561065957600080fd5b50610674600480360381019061066f919061291c565b6118b5565b604051610681919061303e565b60405180910390f35b34801561069657600080fd5b506106b160048036038101906106ac91906128ef565b611949565b005b60007f80ac58cd000000000000000000000000000000000000000000000000000000007bffffffffffffffffffffffffffffffffffffffffffffffffffffffff1916827bffffffffffffffffffffffffffffffffffffffffffffffffffffffff1916148061077e57507f5b5e139f000000000000000000000000000000000000000000000000000000007bffffffffffffffffffffffffffffffffffffffffffffffffffffffff1916827bffffffffffffffffffffffffffffffffffffffffffffffffffffffff1916145b8061078e575061078d82611a41565b5b9050919050565b6060600180546107a490613692565b80601f01602080910402602001604051908101604052809291908181526020018280546107d090613692565b801561081d5780601f106107f25761010080835404028352916020019161081d565b820191906000526020600020905b81548152906001019060200180831161080057829003601f168201915b5050505050905090565b600061083282611aab565b610871576040517f08c379a0000000000000000000000000000000000000000000000000000000008152600401610868906131fb565b60405180910390fd5b6005600083815260200190815260200160002060009054906101000a900473ffffffffffffffffffffffffffffffffffffffff169050919050565b60006108b782610d13565b90508073ffffffffffffffffffffffffffffffffffffffff168373ffffffffffffffffffffffffffffffffffffffff161415610928576040517f08c379a000000000000000000000000000000000000000000000000000000000815260040161091f9061329b565b60405180910390fd5b8073ffffffffffffffffffffffffffffffffffffffff16610947611b17565b73ffffffffffffffffffffffffffffffffffffffff161480610976575061097581610970611b17565b6118b5565b5b6109b5576040517f08c379a00000000000000000000000000000000000000000000000000000000081526004016109ac9061313b565b60405180910390fd5b6109bf8383611b1f565b505050565b600d5481565b600860009054906101000a900473ffffffffffffffffffffffffffffffffffffffff1673ffffffffffffffffffffffffffffffffffffffff166108fc600d549081150290604051600060405180830381858888f19350505050158015610a34573d6000803e3d6000fd5b506000600d81905550565b610a50610a4a611b17565b82611bd8565b610a8f576040517f08c379a0000000000000000000000000000000000000000000000000000000008152600401610a86906132fb565b60405180910390fd5b610a9a838383611cb6565b505050565b3373ffffffffffffffffffffffffffffffffffffffff166108fc600c60003373ffffffffffffffffffffffffffffffffffffffff1673ffffffffffffffffffffffffffffffffffffffff168152602001908152602001600020549081150290604051600060405180830381858888f19350505050158015610b24573d6000803e3d6000fd5b50565b610b42838383604051806020016040528060008152506113e7565b505050565b610b4f611b17565b73ffffffffffffffffffffffffffffffffffffffff16610b6d611178565b73ffffffffffffffffffffffffffffffffffffffff1614610bc3576040517f08c379a0000000000000000000000000000000000000000000000000000000008152600401610bba9061321b565b60405180910390fd5b80600860006101000a81548173ffffffffffffffffffffffffffffffffffffffff021916908373ffffffffffffffffffffffffffffffffffffffff16021790555050565b600a8181548110610c1757600080fd5b90600052602060002090600302016000915090508060000154908060010154908060020160009054906101000a900460ff16905083565b610c5783610d13565b73ffffffffffffffffffffffffffffffffffffffff163373ffffffffffffffffffffffffffffffffffffffff1614610c8e57600080fd5b6000600a8481548110610ca457610ca36137fc565b5b9060005260206000209060030201905080600001548310610cfa576040517f08c379a0000000000000000000000000000000000000000000000000000000008152600401610cf19061327b565b60405180910390fd5b828160010181905550610d0d8483611f12565b50505050565b6000806003600084815260200190815260200160002060009054906101000a900473ffffffffffffffffffffffffffffffffffffffff169050600073ffffffffffffffffffffffffffffffffffffffff168173ffffffffffffffffffffffffffffffffffffffff161415610dbc576040517f08c379a0000000000000000000000000000000000000000000000000000000008152600401610db39061317b565b60405180910390fd5b80915050919050565b60001515600b60009054906101000a900460ff16151514610de557600080fd5b6000600a8281548110610dfb57610dfa6137fc565b5b90600052602060002090600302019050600115158160020160009054906101000a900460ff16151514610e2d57600080fd5b8060010154341015610e74576040517f08c379a0000000000000000000000000000000000000000000000000000000008152600401610e6b906132bb565b60405180910390fd5b600e54610e8033611038565b10610ec0576040517f08c379a0000000000000000000000000000000000000000000000000000000008152600401610eb7906132db565b60405180910390fd5b6000610ecb83610d13565b905060008260020160006101000a81548160ff021916908315150217905550610f116003610f03600534611f8690919063ffffffff16565b611f9c90919063ffffffff16565b600c60008373ffffffffffffffffffffffffffffffffffffffff1673ffffffffffffffffffffffffffffffffffffffff1681526020019081526020016000206000828254610f5f91906134c7565b92505081905550610f8d6002610f7f600534611f8690919063ffffffff16565b611f9c90919063ffffffff16565b600d6000828254610f9e91906134c7565b92505081905550610fc081338560405180602001604052806000815250611fb2565b7f1a16bc699ce0f6ccd4b93e7dc6f592ff10f75af2aa2e0a7346adbc317943749a8333604051610ff1929190613336565b60405180910390a17f1f52727099fd6031c06d28983d4d89fb813bb324aa3098ed1d15bb91a2b4b7e383600060405161102b92919061335f565b60405180910390a1505050565b60008073ffffffffffffffffffffffffffffffffffffffff168273ffffffffffffffffffffffffffffffffffffffff1614156110a9576040517f08c379a00000000000000000000000000000000000000000000000000000000081526004016110a09061315b565b60405180910390fd5b600460008373ffffffffffffffffffffffffffffffffffffffff1673ffffffffffffffffffffffffffffffffffffffff168152602001908152602001600020549050919050565b6110f8611b17565b73ffffffffffffffffffffffffffffffffffffffff16611116611178565b73ffffffffffffffffffffffffffffffffffffffff161461116c576040517f08c379a00000000000000000000000000000000000000000000000000000000081526004016111639061321b565b60405180910390fd5b611176600061200e565b565b60008060009054906101000a900473ffffffffffffffffffffffffffffffffffffffff16905090565b6060600280546111b090613692565b80601f01602080910402602001604051908101604052809291908181526020018280546111dc90613692565b80156112295780601f106111fe57610100808354040283529160200191611229565b820191906000526020600020905b81548152906001019060200180831161120c57829003601f168201915b5050505050905090565b6000600a80549050905090565b611248611b17565b73ffffffffffffffffffffffffffffffffffffffff168273ffffffffffffffffffffffffffffffffffffffff1614156112b6576040517f08c379a00000000000000000000000000000000000000000000000000000000081526004016112ad906130fb565b60405180910390fd5b80600660006112c3611b17565b73ffffffffffffffffffffffffffffffffffffffff1673ffffffffffffffffffffffffffffffffffffffff16815260200190815260200160002060008473ffffffffffffffffffffffffffffffffffffffff1673ffffffffffffffffffffffffffffffffffffffff16815260200190815260200160002060006101000a81548160ff0219169083151502179055508173ffffffffffffffffffffffffffffffffffffffff16611370611b17565b73ffffffffffffffffffffffffffffffffffffffff167f17307eab39ab6107e8899845ad3d59bd9653f200f220920489ca2b5937696c31836040516113b5919061303e565b60405180910390a35050565b600860009054906101000a900473ffffffffffffffffffffffffffffffffffffffff1681565b6113f86113f2611b17565b83611bd8565b611437576040517f08c379a000000000000000000000000000000000000000000000000000000000815260040161142e906132fb565b60405180910390fd5b61144384848484611fb2565b50505050565b606061145482611aab565b611493576040517f08c379a000000000000000000000000000000000000000000000000000000000815260040161148a906131db565b60405180910390fd5b60006007600084815260200190815260200160002080546114b390613692565b80601f01602080910402602001604051908101604052809291908181526020018280546114df90613692565b801561152c5780601f106115015761010080835404028352916020019161152c565b820191906000526020600020905b81548152906001019060200180831161150f57829003601f168201915b50505050509050600061153d6120d2565b9050600081511415611553578192505050611596565b600082511115611588578082604051602001611570929190612fb3565b60405160208183030381529060405292505050611596565b61159184612164565b925050505b919050565b6000600b60009054906101000a900460ff16905090565b6115ba611b17565b73ffffffffffffffffffffffffffffffffffffffff166115d8611178565b73ffffffffffffffffffffffffffffffffffffffff161461162e576040517f08c379a00000000000000000000000000000000000000000000000000000000081526004016116259061321b565b60405180910390fd5b6001600b60006101000a81548160ff021916908315150217905550565b611653611b17565b73ffffffffffffffffffffffffffffffffffffffff16611671611178565b73ffffffffffffffffffffffffffffffffffffffff16146116c7576040517f08c379a00000000000000000000000000000000000000000000000000000000081526004016116be9061321b565b60405180910390fd5b6116d33360095461220b565b60006116fc600a6116ee600b86611f9c90919063ffffffff16565b611f8690919063ffffffff16565b9050600a6040518060600160405280838152602001858152602001600015158152509080600181540180825580915050600190039060005260206000209060030201600090919091909150600082015181600001556020820151816001015560408201518160020160006101000a81548160ff021916908315150217905550505061178960095483611f12565b7f06ab0413adb04220056e8334cf2856a1fb7fef4c0f785aadeb34e4307af44fc060095484846040516117be939291906133bf565b60405180910390a16117ce6123d9565b505050565b6117dc81610d13565b73ffffffffffffffffffffffffffffffffffffffff163373ffffffffffffffffffffffffffffffffffffffff161461181357600080fd5b6000600a8281548110611829576118286137fc565b5b906000526020600020906003020190508060020160009054906101000a900460ff16158160020160006101000a81548160ff0219169083151502179055507f1f52727099fd6031c06d28983d4d89fb813bb324aa3098ed1d15bb91a2b4b7e3828260020160009054906101000a900460ff166040516118a992919061335f565b60405180910390a15050565b6000600660008473ffffffffffffffffffffffffffffffffffffffff1673ffffffffffffffffffffffffffffffffffffffff16815260200190815260200160002060008373ffffffffffffffffffffffffffffffffffffffff1673ffffffffffffffffffffffffffffffffffffffff16815260200190815260200160002060009054906101000a900460ff16905092915050565b611951611b17565b73ffffffffffffffffffffffffffffffffffffffff1661196f611178565b73ffffffffffffffffffffffffffffffffffffffff16146119c5576040517f08c379a00000000000000000000000000000000000000000000000000000000081526004016119bc9061321b565b60405180910390fd5b600073ffffffffffffffffffffffffffffffffffffffff168173ffffffffffffffffffffffffffffffffffffffff161415611a35576040517f08c379a0000000000000000000000000000000000000000000000000000000008152600401611a2c9061309b565b60405180910390fd5b611a3e8161200e565b50565b60007f01ffc9a7000000000000000000000000000000000000000000000000000000007bffffffffffffffffffffffffffffffffffffffffffffffffffffffff1916827bffffffffffffffffffffffffffffffffffffffffffffffffffffffff1916149050919050565b60008073ffffffffffffffffffffffffffffffffffffffff166003600084815260200190815260200160002060009054906101000a900473ffffffffffffffffffffffffffffffffffffffff1673ffffffffffffffffffffffffffffffffffffffff1614159050919050565b600033905090565b816005600083815260200190815260200160002060006101000a81548173ffffffffffffffffffffffffffffffffffffffff021916908373ffffffffffffffffffffffffffffffffffffffff160217905550808273ffffffffffffffffffffffffffffffffffffffff16611b9283610d13565b73ffffffffffffffffffffffffffffffffffffffff167f8c5be1e5ebec7d5bd14f71427d1e84f3dd0314c0f7b2291e5b200ac8c7c3b92560405160405180910390a45050565b6000611be382611aab565b611c22576040517f08c379a0000000000000000000000000000000000000000000000000000000008152600401611c199061311b565b60405180910390fd5b6000611c2d83610d13565b90508073ffffffffffffffffffffffffffffffffffffffff168473ffffffffffffffffffffffffffffffffffffffff161480611c9c57508373ffffffffffffffffffffffffffffffffffffffff16611c8484610827565b73ffffffffffffffffffffffffffffffffffffffff16145b80611cad5750611cac81856118b5565b5b91505092915050565b8273ffffffffffffffffffffffffffffffffffffffff16611cd682610d13565b73ffffffffffffffffffffffffffffffffffffffff1614611d2c576040517f08c379a0000000000000000000000000000000000000000000000000000000008152600401611d239061323b565b60405180910390fd5b600073ffffffffffffffffffffffffffffffffffffffff168273ffffffffffffffffffffffffffffffffffffffff161415611d9c576040517f08c379a0000000000000000000000000000000000000000000000000000000008152600401611d93906130db565b60405180910390fd5b611da78383836123f3565b611db2600082611b1f565b6001600460008573ffffffffffffffffffffffffffffffffffffffff1673ffffffffffffffffffffffffffffffffffffffff1681526020019081526020016000206000828254611e0291906135a8565b925050819055506001600460008473ffffffffffffffffffffffffffffffffffffffff1673ffffffffffffffffffffffffffffffffffffffff1681526020019081526020016000206000828254611e5991906134c7565b92505081905550816003600083815260200190815260200160002060006101000a81548173ffffffffffffffffffffffffffffffffffffffff021916908373ffffffffffffffffffffffffffffffffffffffff160217905550808273ffffffffffffffffffffffffffffffffffffffff168473ffffffffffffffffffffffffffffffffffffffff167fddf252ad1be2c89b69c2b068fc378daa952ba7f163c4a11628f55a4df523b3ef60405160405180910390a4505050565b611f1b82611aab565b611f5a576040517f08c379a0000000000000000000000000000000000000000000000000000000008152600401611f519061319b565b60405180910390fd5b80600760008481526020019081526020016000209080519060200190611f81929190612703565b505050565b60008183611f94919061351d565b905092915050565b60008183611faa919061354e565b905092915050565b611fbd848484611cb6565b611fc9848484846123f8565b612008576040517f08c379a0000000000000000000000000000000000000000000000000000000008152600401611fff9061307b565b60405180910390fd5b50505050565b60008060009054906101000a900473ffffffffffffffffffffffffffffffffffffffff169050816000806101000a81548173ffffffffffffffffffffffffffffffffffffffff021916908373ffffffffffffffffffffffffffffffffffffffff1602179055508173ffffffffffffffffffffffffffffffffffffffff168173ffffffffffffffffffffffffffffffffffffffff167f8be0079c531659141344cd1fd0a4f28419497f9722a3daafe3b4186f6b6457e060405160405180910390a35050565b6060600f80546120e190613692565b80601f016020809104026020016040519081016040528092919081815260200182805461210d90613692565b801561215a5780601f1061212f5761010080835404028352916020019161215a565b820191906000526020600020905b81548152906001019060200180831161213d57829003601f168201915b5050505050905090565b606061216f82611aab565b6121ae576040517f08c379a00000000000000000000000000000000000000000000000000000000081526004016121a59061325b565b60405180910390fd5b60006121b86120d2565b905060008151116121d85760405180602001604052806000815250612203565b806121e28461258f565b6040516020016121f3929190612fb3565b6040516020818303038152906040525b915050919050565b600073ffffffffffffffffffffffffffffffffffffffff168273ffffffffffffffffffffffffffffffffffffffff16141561227b576040517f08c379a0000000000000000000000000000000000000000000000000000000008152600401612272906131bb565b60405180910390fd5b61228481611aab565b156122c4576040517f08c379a00000000000000000000000000000000000000000000000000000000081526004016122bb906130bb565b60405180910390fd5b6122d0600083836123f3565b6001600460008473ffffffffffffffffffffffffffffffffffffffff1673ffffffffffffffffffffffffffffffffffffffff168152602001908152602001600020600082825461232091906134c7565b92505081905550816003600083815260200190815260200160002060006101000a81548173ffffffffffffffffffffffffffffffffffffffff021916908373ffffffffffffffffffffffffffffffffffffffff160217905550808273ffffffffffffffffffffffffffffffffffffffff16600073ffffffffffffffffffffffffffffffffffffffff167fddf252ad1be2c89b69c2b068fc378daa952ba7f163c4a11628f55a4df523b3ef60405160405180910390a45050565b600960008154809291906123ec906136f5565b9190505550565b505050565b60006124198473ffffffffffffffffffffffffffffffffffffffff166126f0565b15612582578373ffffffffffffffffffffffffffffffffffffffff1663150b7a02612442611b17565b8786866040518563ffffffff1660e01b81526004016124649493929190612ff2565b602060405180830381600087803b15801561247e57600080fd5b505af19250505080156124af57506040513d601f19601f820116820180604052508101906124ac9190612adf565b60015b612532573d80600081146124df576040519150601f19603f3d011682016040523d82523d6000602084013e6124e4565b606091505b5060008151141561252a576040517f08c379a00000000000000000000000000000000000000000000000000000000081526004016125219061307b565b60405180910390fd5b805181602001fd5b63150b7a0260e01b7bffffffffffffffffffffffffffffffffffffffffffffffffffffffff1916817bffffffffffffffffffffffffffffffffffffffffffffffffffffffff191614915050612587565b600190505b949350505050565b606060008214156125d7576040518060400160405280600181526020017f300000000000000000000000000000000000000000000000000000000000000081525090506126eb565b600082905060005b600082146126095780806125f2906136f5565b915050600a82612602919061351d565b91506125df565b60008167ffffffffffffffff8111156126255761262461382b565b5b6040519080825280601f01601f1916602001820160405280156126575781602001600182028036833780820191505090505b5090505b600085146126e45760018261267091906135a8565b9150600a8561267f919061373e565b603061268b91906134c7565b60f81b8183815181106126a1576126a06137fc565b5b60200101907effffffffffffffffffffffffffffffffffffffffffffffffffffffffffffff1916908160001a905350600a856126dd919061351d565b945061265b565b8093505050505b919050565b600080823b905060008111915050919050565b82805461270f90613692565b90600052602060002090601f0160209004810192826127315760008555612778565b82601f1061274a57805160ff1916838001178555612778565b82800160010185558215612778579182015b8281111561277757825182559160200191906001019061275c565b5b5090506127859190612789565b5090565b5b808211156127a257600081600090555060010161278a565b5090565b60006127b96127b484613422565b6133fd565b9050828152602081018484840111156127d5576127d461385f565b5b6127e0848285613650565b509392505050565b60006127fb6127f684613453565b6133fd565b9050828152602081018484840111156128175761281661385f565b5b612822848285613650565b509392505050565b60008135905061283981613e3c565b92915050565b60008135905061284e81613e53565b92915050565b60008135905061286381613e6a565b92915050565b60008151905061287881613e6a565b92915050565b600082601f8301126128935761289261385a565b5b81356128a38482602086016127a6565b91505092915050565b600082601f8301126128c1576128c061385a565b5b81356128d18482602086016127e8565b91505092915050565b6000813590506128e981613e81565b92915050565b60006020828403121561290557612904613869565b5b60006129138482850161282a565b91505092915050565b6000806040838503121561293357612932613869565b5b60006129418582860161282a565b92505060206129528582860161282a565b9150509250929050565b60008060006060848603121561297557612974613869565b5b60006129838682870161282a565b93505060206129948682870161282a565b92505060406129a5868287016128da565b9150509250925092565b600080600080608085870312156129c9576129c8613869565b5b60006129d78782880161282a565b94505060206129e88782880161282a565b93505060406129f9878288016128da565b925050606085013567ffffffffffffffff811115612a1a57612a19613864565b5b612a268782880161287e565b91505092959194509250565b60008060408385031215612a4957612a48613869565b5b6000612a578582860161282a565b9250506020612a688582860161283f565b9150509250929050565b60008060408385031215612a8957612a88613869565b5b6000612a978582860161282a565b9250506020612aa8858286016128da565b9150509250929050565b600060208284031215612ac857612ac7613869565b5b6000612ad684828501612854565b91505092915050565b600060208284031215612af557612af4613869565b5b6000612b0384828501612869565b91505092915050565b600060208284031215612b2257612b21613869565b5b6000612b30848285016128da565b91505092915050565b60008060408385031215612b5057612b4f613869565b5b6000612b5e858286016128da565b925050602083013567ffffffffffffffff811115612b7f57612b7e613864565b5b612b8b858286016128ac565b9150509250929050565b600080600060608486031215612bae57612bad613869565b5b6000612bbc868287016128da565b9350506020612bcd868287016128da565b925050604084013567ffffffffffffffff811115612bee57612bed613864565b5b612bfa868287016128ac565b9150509250925092565b612c0d816135dc565b82525050565b612c1c816135ee565b82525050565b6000612c2d82613484565b612c37818561349a565b9350612c4781856020860161365f565b612c508161386e565b840191505092915050565b6000612c668261348f565b612c7081856134ab565b9350612c8081856020860161365f565b612c898161386e565b840191505092915050565b6000612c9f8261348f565b612ca981856134bc565b9350612cb981856020860161365f565b80840191505092915050565b6000612cd26032836134ab565b9150612cdd8261387f565b604082019050919050565b6000612cf56026836134ab565b9150612d00826138ce565b604082019050919050565b6000612d18601c836134ab565b9150612d238261391d565b602082019050919050565b6000612d3b6024836134ab565b9150612d4682613946565b604082019050919050565b6000612d5e6019836134ab565b9150612d6982613995565b602082019050919050565b6000612d81602c836134ab565b9150612d8c826139be565b604082019050919050565b6000612da46038836134ab565b9150612daf82613a0d565b604082019050919050565b6000612dc7602a836134ab565b9150612dd282613a5c565b604082019050919050565b6000612dea6029836134ab565b9150612df582613aab565b604082019050919050565b6000612e0d602e836134ab565b9150612e1882613afa565b604082019050919050565b6000612e306020836134ab565b9150612e3b82613b49565b602082019050919050565b6000612e536031836134ab565b9150612e5e82613b72565b604082019050919050565b6000612e76602c836134ab565b9150612e8182613bc1565b604082019050919050565b6000612e996020836134ab565b9150612ea482613c10565b602082019050919050565b6000612ebc6029836134ab565b9150612ec782613c39565b604082019050919050565b6000612edf602f836134ab565b9150612eea82613c88565b604082019050919050565b6000612f026023836134ab565b9150612f0d82613cd7565b604082019050919050565b6000612f256021836134ab565b9150612f3082613d26565b604082019050919050565b6000612f486019836134ab565b9150612f5382613d75565b602082019050919050565b6000612f6b6025836134ab565b9150612f7682613d9e565b604082019050919050565b6000612f8e6031836134ab565b9150612f9982613ded565b604082019050919050565b612fad81613646565b82525050565b6000612fbf8285612c94565b9150612fcb8284612c94565b91508190509392505050565b6000602082019050612fec6000830184612c04565b92915050565b60006080820190506130076000830187612c04565b6130146020830186612c04565b6130216040830185612fa4565b81810360608301526130338184612c22565b905095945050505050565b60006020820190506130536000830184612c13565b92915050565b600060208201905081810360008301526130738184612c5b565b905092915050565b6000602082019050818103600083015261309481612cc5565b9050919050565b600060208201905081810360008301526130b481612ce8565b9050919050565b600060208201905081810360008301526130d481612d0b565b9050919050565b600060208201905081810360008301526130f481612d2e565b9050919050565b6000602082019050818103600083015261311481612d51565b9050919050565b6000602082019050818103600083015261313481612d74565b9050919050565b6000602082019050818103600083015261315481612d97565b9050919050565b6000602082019050818103600083015261317481612dba565b9050919050565b6000602082019050818103600083015261319481612ddd565b9050919050565b600060208201905081810360008301526131b481612e00565b9050919050565b600060208201905081810360008301526131d481612e23565b9050919050565b600060208201905081810360008301526131f481612e46565b9050919050565b6000602082019050818103600083015261321481612e69565b9050919050565b6000602082019050818103600083015261323481612e8c565b9050919050565b6000602082019050818103600083015261325481612eaf565b9050919050565b6000602082019050818103600083015261327481612ed2565b9050919050565b6000602082019050818103600083015261329481612ef5565b9050919050565b600060208201905081810360008301526132b481612f18565b9050919050565b600060208201905081810360008301526132d481612f3b565b9050919050565b600060208201905081810360008301526132f481612f5e565b9050919050565b6000602082019050818103600083015261331481612f81565b9050919050565b60006020820190506133306000830184612fa4565b92915050565b600060408201905061334b6000830185612fa4565b6133586020830184612c04565b9392505050565b60006040820190506133746000830185612fa4565b6133816020830184612c13565b9392505050565b600060608201905061339d6000830186612fa4565b6133aa6020830185612fa4565b6133b76040830184612c13565b949350505050565b60006060820190506133d46000830186612fa4565b6133e16020830185612fa4565b81810360408301526133f38184612c5b565b9050949350505050565b6000613407613418565b905061341382826136c4565b919050565b6000604051905090565b600067ffffffffffffffff82111561343d5761343c61382b565b5b6134468261386e565b9050602081019050919050565b600067ffffffffffffffff82111561346e5761346d61382b565b5b6134778261386e565b9050602081019050919050565b600081519050919050565b600081519050919050565b600082825260208201905092915050565b600082825260208201905092915050565b600081905092915050565b60006134d282613646565b91506134dd83613646565b9250827fffffffffffffffffffffffffffffffffffffffffffffffffffffffffffffffff038211156135125761351161376f565b5b828201905092915050565b600061352882613646565b915061353383613646565b9250826135435761354261379e565b5b828204905092915050565b600061355982613646565b915061356483613646565b9250817fffffffffffffffffffffffffffffffffffffffffffffffffffffffffffffffff048311821515161561359d5761359c61376f565b5b828202905092915050565b60006135b382613646565b91506135be83613646565b9250828210156135d1576135d061376f565b5b828203905092915050565b60006135e782613626565b9050919050565b60008115159050919050565b60007fffffffff0000000000000000000000000000000000000000000000000000000082169050919050565b600073ffffffffffffffffffffffffffffffffffffffff82169050919050565b6000819050919050565b82818337600083830152505050565b60005b8381101561367d578082015181840152602081019050613662565b8381111561368c576000848401525b50505050565b600060028204905060018216806136aa57607f821691505b602082108114156136be576136bd6137cd565b5b50919050565b6136cd8261386e565b810181811067ffffffffffffffff821117156136ec576136eb61382b565b5b80604052505050565b600061370082613646565b91507fffffffffffffffffffffffffffffffffffffffffffffffffffffffffffffffff8214156137335761373261376f565b5b600182019050919050565b600061374982613646565b915061375483613646565b9250826137645761376361379e565b5b828206905092915050565b7f4e487b7100000000000000000000000000000000000000000000000000000000600052601160045260246000fd5b7f4e487b7100000000000000000000000000000000000000000000000000000000600052601260045260246000fd5b7f4e487b7100000000000000000000000000000000000000000000000000000000600052602260045260246000fd5b7f4e487b7100000000000000000000000000000000000000000000000000000000600052603260045260246000fd5b7f4e487b7100000000000000000000000000000000000000000000000000000000600052604160045260246000fd5b600080fd5b600080fd5b600080fd5b600080fd5b6000601f19601f8301169050919050565b7f4552433732313a207472616e7366657220746f206e6f6e20455243373231526560008201527f63656976657220696d706c656d656e7465720000000000000000000000000000602082015250565b7f4f776e61626c653a206e6577206f776e657220697320746865207a65726f206160008201527f6464726573730000000000000000000000000000000000000000000000000000602082015250565b7f4552433732313a20746f6b656e20616c7265616479206d696e74656400000000600082015250565b7f4552433732313a207472616e7366657220746f20746865207a65726f2061646460008201527f7265737300000000000000000000000000000000000000000000000000000000602082015250565b7f4552433732313a20617070726f766520746f2063616c6c657200000000000000600082015250565b7f4552433732313a206f70657261746f7220717565727920666f72206e6f6e657860008201527f697374656e7420746f6b656e0000000000000000000000000000000000000000602082015250565b7f4552433732313a20617070726f76652063616c6c6572206973206e6f74206f7760008201527f6e6572206e6f7220617070726f76656420666f7220616c6c0000000000000000602082015250565b7f4552433732313a2062616c616e636520717565727920666f7220746865207a6560008201527f726f206164647265737300000000000000000000000000000000000000000000602082015250565b7f4552433732313a206f776e657220717565727920666f72206e6f6e657869737460008201527f656e7420746f6b656e0000000000000000000000000000000000000000000000602082015250565b7f45524337323155524953746f726167653a2055524920736574206f66206e6f6e60008201527f6578697374656e7420746f6b656e000000000000000000000000000000000000602082015250565b7f4552433732313a206d696e7420746f20746865207a65726f2061646472657373600082015250565b7f45524337323155524953746f726167653a2055524920717565727920666f722060008201527f6e6f6e6578697374656e7420746f6b656e000000000000000000000000000000602082015250565b7f4552433732313a20617070726f76656420717565727920666f72206e6f6e657860008201527f697374656e7420746f6b656e0000000000000000000000000000000000000000602082015250565b7f4f776e61626c653a2063616c6c6572206973206e6f7420746865206f776e6572600082015250565b7f4552433732313a207472616e73666572206f6620746f6b656e2074686174206960008201527f73206e6f74206f776e0000000000000000000000000000000000000000000000602082015250565b7f4552433732314d657461646174613a2055524920717565727920666f72206e6f60008201527f6e6578697374656e7420746f6b656e0000000000000000000000000000000000602082015250565b7f6e6f74206d6f7265207468616e20746865207570706572206c696d697420707260008201527f6963650000000000000000000000000000000000000000000000000000000000602082015250565b7f4552433732313a20617070726f76616c20746f2063757272656e74206f776e6560008201527f7200000000000000000000000000000000000000000000000000000000000000602082015250565b7f6174206c6561737420746865207469636b657420707269636500000000000000600082015250565b7f6578636565646564206d6178206e756d626572206f66207469636b657473206260008201527f6f75676874000000000000000000000000000000000000000000000000000000602082015250565b7f4552433732313a207472616e736665722063616c6c6572206973206e6f74206f60008201527f776e6572206e6f7220617070726f766564000000000000000000000000000000602082015250565b613e45816135dc565b8114613e5057600080fd5b50565b613e5c816135ee565b8114613e6757600080fd5b50565b613e73816135fa565b8114613e7e57600080fd5b50565b613e8a81613646565b8114613e9557600080fd5b5056fea264697066735822122052d89e4471e51ca625d30ce6dea9cabe6f9313e7a8a3ea6efc0c80edeff4ab2864736f6c63430008070033",
  "immutableReferences": {},
  "source": "// SPDX-License-Identifier: MIT\n// curren deployed address on Shibuya: 0x5D1ce7Fb931274Aa315707aEB2abAD9D138780FA\n\npragma solidity ^0.8.0;\n\nimport \"@openzeppelin/contracts/access/Ownable.sol\";\nimport \"@openzeppelin/contracts/token/ERC721/extensions/ERC721URIStorage.sol\";\nimport \"@openzeppelin/contracts/utils/math/SafeMath.sol\";\n\ncontract Marketplace is Ownable, ERC721URIStorage{\n\n  using SafeMath for uint;\n\n  // metadata for each ticket\n  struct Ticket {\n      uint256 maxPrice; // maximum price cap on the ticket\n      uint256 price; // current price\n      bool onSale;\n  }\n\n  address public financeAddress;\n\n  uint256 private _currentTokenId = 0;\n  Ticket[] public tickets;\n  bool eventStarted = false;\n  mapping (address => uint256) etherBalance;\n  uint public vaultBalance;\n  uint private _maxTicketNum = 10;\n  string private _base;\n\n  constructor() ERC721(\"NFT Tickets\", \"TIX\") {\n    _setBaseURI(\"https://ipfs.infura.io/ipfs/\");\n  }\n\n  modifier eventNotStarted() {\n    require(eventStarted == false);\n    _;\n  }\n\n  function _setBaseURI(string memory _uri) private {\n    _base = _uri;\n  }\n\n  function _baseURI() internal view override returns (string memory) {\n    return _base;\n  }\n\n  function createTicket(uint256 _price, string memory _tokenURI) public onlyOwner {\n    _mint(msg.sender, _currentTokenId); //token id starts from 0\n    uint256 _maxPrice = _price.mul(11).div(10); // 10 % above the original price\n    tickets.push(Ticket(_maxPrice, _price, false));\n    _setTokenURI(_currentTokenId, _tokenURI);\n\t  emit ticketCreated(_currentTokenId, _price, _tokenURI);\n    _incrementTokenId();\n  }\n\n  function getTicketsLength() public view returns(uint) {\n    return tickets.length;\n  }\n\n  function changeTicketPrice(uint256 _tokenId, uint256 _newPrice, string memory _tokenURI) public {\n    require(msg.sender == ownerOf(_tokenId));\n    Ticket storage tix = tickets[_tokenId];\n    require(_newPrice < tix.maxPrice, \"not more than the upper limit price\");\n    tix.price = _newPrice;\n    _setTokenURI(_tokenId, _tokenURI);\n  }\n\n  function startEvent() public onlyOwner {\n    eventStarted = true;\n  }\n\n  function getEventStarted() public view returns(bool) {\n    return eventStarted;\n  }\n\n  function _incrementTokenId() private {\n    _currentTokenId++;\n  }\n\n  function withdraw() public {\n    payable(msg.sender).transfer(etherBalance[msg.sender]);\n  }\n\n  // tickets need to put on sale first before it could be purchased\n  function toggleSale(uint256 _tokenId) public {\n    require(msg.sender == ownerOf(_tokenId));\n    Ticket storage tix = tickets[_tokenId];\n    tix.onSale = !tix.onSale;\n    emit saleToggled(_tokenId, tix.onSale);\n  }\n\n  // this function should be called by the buyer\n  function buyTicket(uint256 _tokenId) external payable eventNotStarted {\n    Ticket storage tix = tickets[_tokenId];\n    require(tix.onSale == true);\n    require(msg.value >= tix.price, \"at least the ticket price\");\n    require(balanceOf(msg.sender) < _maxTicketNum, \"exceeded max number of tickets bought\");\n    address seller = ownerOf(_tokenId);\n    tix.onSale = false;\n    etherBalance[seller] += (msg.value).div(5).mul(3);\n    vaultBalance += (msg.value).div(5).mul(2);\n    //payable(financeAddress).transfer((msg.value).div(5).mul(2)); // transfer 40% to the finance contract\n    _safeTransfer(seller, msg.sender, _tokenId, \"\");\n    emit ticketTransferred(_tokenId, msg.sender);\n    emit saleToggled(_tokenId, false);\n  }\n\n  function transferToVault() public {\n    payable(financeAddress).transfer(vaultBalance);\n    vaultBalance = 0;\n  }\n\n  function setFinanceAddress(address _finance) public onlyOwner {\n    financeAddress = _finance;\n  }\n\n  event ticketTransferred(uint256 _id, address _owner); //show the address of new owner\n  event saleToggled(uint256 _id, bool state); //show whether ticket is on sale\n  event ticketCreated(uint256 _id, uint256 _price, string _tokenURI);\n\n}\n",
  "sourcePath": "/home/kaijun/Documents/blockchain-ticketing/contracts/Marketplace.sol",
  "compiler": {
    "name": "solc",
    "version": "0.8.7+commit.e28d00a7.Emscripten.clang"
  },
  "schemaVersion": "3.4.1",
  "updatedAt": "2021-10-02T10:18:25.350Z",
  "networkType": "ethereum",
  "devdoc": {
    "kind": "dev",
    "methods": {
      "approve(address,uint256)": {
        "details": "See {IERC721-approve}."
      },
      "balanceOf(address)": {
        "details": "See {IERC721-balanceOf}."
      },
      "getApproved(uint256)": {
        "details": "See {IERC721-getApproved}."
      },
      "isApprovedForAll(address,address)": {
        "details": "See {IERC721-isApprovedForAll}."
      },
      "name()": {
        "details": "See {IERC721Metadata-name}."
      },
      "owner()": {
        "details": "Returns the address of the current owner."
      },
      "ownerOf(uint256)": {
        "details": "See {IERC721-ownerOf}."
      },
      "renounceOwnership()": {
        "details": "Leaves the contract without owner. It will not be possible to call `onlyOwner` functions anymore. Can only be called by the current owner. NOTE: Renouncing ownership will leave the contract without an owner, thereby removing any functionality that is only available to the owner."
      },
      "safeTransferFrom(address,address,uint256)": {
        "details": "See {IERC721-safeTransferFrom}."
      },
      "safeTransferFrom(address,address,uint256,bytes)": {
        "details": "See {IERC721-safeTransferFrom}."
      },
      "setApprovalForAll(address,bool)": {
        "details": "See {IERC721-setApprovalForAll}."
      },
      "supportsInterface(bytes4)": {
        "details": "See {IERC165-supportsInterface}."
      },
      "symbol()": {
        "details": "See {IERC721Metadata-symbol}."
      },
      "tokenURI(uint256)": {
        "details": "See {IERC721Metadata-tokenURI}."
      },
      "transferFrom(address,address,uint256)": {
        "details": "See {IERC721-transferFrom}."
      },
      "transferOwnership(address)": {
        "details": "Transfers ownership of the contract to a new account (`newOwner`). Can only be called by the current owner."
      }
    },
    "version": 1
  },
  "userdoc": {
    "kind": "user",
    "methods": {},
    "version": 1
  }
}