{
  "contractName": "Marketplace",
  "abi": [
    {
      "inputs": [
        {
          "internalType": "uint256",
          "name": "_investmentPrice",
          "type": "uint256"
        }
      ],
      "stateMutability": "nonpayable",
      "type": "constructor"
    },
    {
      "anonymous": false,
      "inputs": [
        {
          "indexed": true,
          "internalType": "address",
          "name": "owner",
          "type": "address"
        },
        {
          "indexed": true,
          "internalType": "address",
          "name": "approved",
          "type": "address"
        },
        {
          "indexed": true,
          "internalType": "uint256",
          "name": "tokenId",
          "type": "uint256"
        }
      ],
      "name": "Approval",
      "type": "event"
    },
    {
      "anonymous": false,
      "inputs": [
        {
          "indexed": true,
          "internalType": "address",
          "name": "owner",
          "type": "address"
        },
        {
          "indexed": true,
          "internalType": "address",
          "name": "operator",
          "type": "address"
        },
        {
          "indexed": false,
          "internalType": "bool",
          "name": "approved",
          "type": "bool"
        }
      ],
      "name": "ApprovalForAll",
      "type": "event"
    },
    {
      "anonymous": false,
      "inputs": [
        {
          "indexed": true,
          "internalType": "address",
          "name": "previousOwner",
          "type": "address"
        },
        {
          "indexed": true,
          "internalType": "address",
          "name": "newOwner",
          "type": "address"
        }
      ],
      "name": "OwnershipTransferred",
      "type": "event"
    },
    {
      "anonymous": false,
      "inputs": [
        {
          "indexed": true,
          "internalType": "address",
          "name": "from",
          "type": "address"
        },
        {
          "indexed": true,
          "internalType": "address",
          "name": "to",
          "type": "address"
        },
        {
          "indexed": true,
          "internalType": "uint256",
          "name": "tokenId",
          "type": "uint256"
        }
      ],
      "name": "Transfer",
      "type": "event"
    },
    {
      "anonymous": false,
      "inputs": [
        {
          "indexed": false,
          "internalType": "uint256",
          "name": "_id",
          "type": "uint256"
        },
        {
          "indexed": false,
          "internalType": "bool",
          "name": "state",
          "type": "bool"
        }
      ],
      "name": "saleToggled",
      "type": "event"
    },
    {
      "anonymous": false,
      "inputs": [
        {
          "indexed": false,
          "internalType": "uint256",
          "name": "_id",
          "type": "uint256"
        },
        {
          "indexed": false,
          "internalType": "uint256",
          "name": "_price",
          "type": "uint256"
        },
        {
          "indexed": false,
          "internalType": "string",
          "name": "_tokenURI",
          "type": "string"
        }
      ],
      "name": "ticketCreated",
      "type": "event"
    },
    {
      "anonymous": false,
      "inputs": [
        {
          "indexed": false,
          "internalType": "uint256",
          "name": "_id",
          "type": "uint256"
        },
        {
          "indexed": false,
          "internalType": "address",
          "name": "_owner",
          "type": "address"
        }
      ],
      "name": "ticketTransferred",
      "type": "event"
    },
    {
      "inputs": [],
      "name": "_investmentSold",
      "outputs": [
        {
          "internalType": "uint256",
          "name": "",
          "type": "uint256"
        }
      ],
      "stateMutability": "view",
      "type": "function",
      "constant": true
    },
    {
      "inputs": [
        {
          "internalType": "address",
          "name": "to",
          "type": "address"
        },
        {
          "internalType": "uint256",
          "name": "tokenId",
          "type": "uint256"
        }
      ],
      "name": "approve",
      "outputs": [],
      "stateMutability": "nonpayable",
      "type": "function"
    },
    {
      "inputs": [
        {
          "internalType": "address",
          "name": "owner",
          "type": "address"
        }
      ],
      "name": "balanceOf",
      "outputs": [
        {
          "internalType": "uint256",
          "name": "",
          "type": "uint256"
        }
      ],
      "stateMutability": "view",
      "type": "function",
      "constant": true
    },
    {
      "inputs": [],
      "name": "currentState",
      "outputs": [
        {
          "internalType": "enum Marketplace.State",
          "name": "",
          "type": "uint8"
        }
      ],
      "stateMutability": "view",
      "type": "function",
      "constant": true
    },
    {
      "inputs": [
        {
          "internalType": "uint256",
          "name": "tokenId",
          "type": "uint256"
        }
      ],
      "name": "getApproved",
      "outputs": [
        {
          "internalType": "address",
          "name": "",
          "type": "address"
        }
      ],
      "stateMutability": "view",
      "type": "function",
      "constant": true
    },
    {
      "inputs": [],
      "name": "investmentPrice",
      "outputs": [
        {
          "internalType": "uint256",
          "name": "",
          "type": "uint256"
        }
      ],
      "stateMutability": "view",
      "type": "function",
      "constant": true
    },
    {
      "inputs": [
        {
          "internalType": "address",
          "name": "",
          "type": "address"
        }
      ],
      "name": "investors",
      "outputs": [
        {
          "internalType": "uint256",
          "name": "",
          "type": "uint256"
        }
      ],
      "stateMutability": "view",
      "type": "function",
      "constant": true
    },
    {
      "inputs": [
        {
          "internalType": "address",
          "name": "owner",
          "type": "address"
        },
        {
          "internalType": "address",
          "name": "operator",
          "type": "address"
        }
      ],
      "name": "isApprovedForAll",
      "outputs": [
        {
          "internalType": "bool",
          "name": "",
          "type": "bool"
        }
      ],
      "stateMutability": "view",
      "type": "function",
      "constant": true
    },
    {
      "inputs": [],
      "name": "name",
      "outputs": [
        {
          "internalType": "string",
          "name": "",
          "type": "string"
        }
      ],
      "stateMutability": "view",
      "type": "function",
      "constant": true
    },
    {
      "inputs": [],
      "name": "owner",
      "outputs": [
        {
          "internalType": "address",
          "name": "",
          "type": "address"
        }
      ],
      "stateMutability": "view",
      "type": "function",
      "constant": true
    },
    {
      "inputs": [
        {
          "internalType": "uint256",
          "name": "tokenId",
          "type": "uint256"
        }
      ],
      "name": "ownerOf",
      "outputs": [
        {
          "internalType": "address",
          "name": "",
          "type": "address"
        }
      ],
      "stateMutability": "view",
      "type": "function",
      "constant": true
    },
    {
      "inputs": [],
      "name": "renounceOwnership",
      "outputs": [],
      "stateMutability": "nonpayable",
      "type": "function"
    },
    {
      "inputs": [
        {
          "internalType": "address",
          "name": "from",
          "type": "address"
        },
        {
          "internalType": "address",
          "name": "to",
          "type": "address"
        },
        {
          "internalType": "uint256",
          "name": "tokenId",
          "type": "uint256"
        }
      ],
      "name": "safeTransferFrom",
      "outputs": [],
      "stateMutability": "nonpayable",
      "type": "function"
    },
    {
      "inputs": [
        {
          "internalType": "address",
          "name": "from",
          "type": "address"
        },
        {
          "internalType": "address",
          "name": "to",
          "type": "address"
        },
        {
          "internalType": "uint256",
          "name": "tokenId",
          "type": "uint256"
        },
        {
          "internalType": "bytes",
          "name": "_data",
          "type": "bytes"
        }
      ],
      "name": "safeTransferFrom",
      "outputs": [],
      "stateMutability": "nonpayable",
      "type": "function"
    },
    {
      "inputs": [
        {
          "internalType": "address",
          "name": "operator",
          "type": "address"
        },
        {
          "internalType": "bool",
          "name": "approved",
          "type": "bool"
        }
      ],
      "name": "setApprovalForAll",
      "outputs": [],
      "stateMutability": "nonpayable",
      "type": "function"
    },
    {
      "inputs": [
        {
          "internalType": "bytes4",
          "name": "interfaceId",
          "type": "bytes4"
        }
      ],
      "name": "supportsInterface",
      "outputs": [
        {
          "internalType": "bool",
          "name": "",
          "type": "bool"
        }
      ],
      "stateMutability": "view",
      "type": "function",
      "constant": true
    },
    {
      "inputs": [],
      "name": "symbol",
      "outputs": [
        {
          "internalType": "string",
          "name": "",
          "type": "string"
        }
      ],
      "stateMutability": "view",
      "type": "function",
      "constant": true
    },
    {
      "inputs": [
        {
          "internalType": "uint256",
          "name": "",
          "type": "uint256"
        }
      ],
      "name": "tickets",
      "outputs": [
        {
          "internalType": "uint256",
          "name": "maxPrice",
          "type": "uint256"
        },
        {
          "internalType": "uint256",
          "name": "price",
          "type": "uint256"
        },
        {
          "internalType": "bool",
          "name": "onSale",
          "type": "bool"
        }
      ],
      "stateMutability": "view",
      "type": "function",
      "constant": true
    },
    {
      "inputs": [
        {
          "internalType": "uint256",
          "name": "tokenId",
          "type": "uint256"
        }
      ],
      "name": "tokenURI",
      "outputs": [
        {
          "internalType": "string",
          "name": "",
          "type": "string"
        }
      ],
      "stateMutability": "view",
      "type": "function",
      "constant": true
    },
    {
      "inputs": [
        {
          "internalType": "address",
          "name": "from",
          "type": "address"
        },
        {
          "internalType": "address",
          "name": "to",
          "type": "address"
        },
        {
          "internalType": "uint256",
          "name": "tokenId",
          "type": "uint256"
        }
      ],
      "name": "transferFrom",
      "outputs": [],
      "stateMutability": "nonpayable",
      "type": "function"
    },
    {
      "inputs": [
        {
          "internalType": "address",
          "name": "newOwner",
          "type": "address"
        }
      ],
      "name": "transferOwnership",
      "outputs": [],
      "stateMutability": "nonpayable",
      "type": "function"
    },
    {
      "inputs": [],
      "name": "unitReturn",
      "outputs": [
        {
          "internalType": "uint256",
          "name": "",
          "type": "uint256"
        }
      ],
      "stateMutability": "view",
      "type": "function",
      "constant": true
    },
    {
      "inputs": [],
      "name": "vaultBalance",
      "outputs": [
        {
          "internalType": "uint256",
          "name": "",
          "type": "uint256"
        }
      ],
      "stateMutability": "view",
      "type": "function",
      "constant": true
    },
    {
      "inputs": [
        {
          "internalType": "uint256",
          "name": "_price",
          "type": "uint256"
        },
        {
          "internalType": "uint256",
          "name": "_maxPrice",
          "type": "uint256"
        },
        {
          "internalType": "string",
          "name": "_tokenURI",
          "type": "string"
        }
      ],
      "name": "createTicket",
      "outputs": [],
      "stateMutability": "nonpayable",
      "type": "function"
    },
    {
      "inputs": [
        {
          "internalType": "uint256",
          "name": "_number",
          "type": "uint256"
        }
      ],
      "name": "invest",
      "outputs": [],
      "stateMutability": "payable",
      "type": "function",
      "payable": true
    },
    {
      "inputs": [],
      "name": "withdraw",
      "outputs": [],
      "stateMutability": "nonpayable",
      "type": "function"
    },
    {
      "inputs": [],
      "name": "getContractBalance",
      "outputs": [
        {
          "internalType": "uint256",
          "name": "",
          "type": "uint256"
        }
      ],
      "stateMutability": "view",
      "type": "function",
      "constant": true
    },
    {
      "inputs": [
        {
          "internalType": "uint256",
          "name": "_tokenId",
          "type": "uint256"
        },
        {
          "internalType": "uint256",
          "name": "_newPrice",
          "type": "uint256"
        },
        {
          "internalType": "string",
          "name": "_tokenURI",
          "type": "string"
        }
      ],
      "name": "changeTicketPrice",
      "outputs": [],
      "stateMutability": "nonpayable",
      "type": "function"
    },
    {
      "inputs": [],
      "name": "startEvent",
      "outputs": [],
      "stateMutability": "nonpayable",
      "type": "function"
    },
    {
      "inputs": [],
      "name": "startInvestment",
      "outputs": [],
      "stateMutability": "nonpayable",
      "type": "function"
    },
    {
      "inputs": [],
      "name": "stopInvestment",
      "outputs": [],
      "stateMutability": "nonpayable",
      "type": "function"
    },
    {
      "inputs": [],
      "name": "startTicketSale",
      "outputs": [],
      "stateMutability": "nonpayable",
      "type": "function"
    },
    {
      "inputs": [],
      "name": "retrieve",
      "outputs": [],
      "stateMutability": "nonpayable",
      "type": "function"
    },
    {
      "inputs": [
        {
          "internalType": "uint256",
          "name": "_tokenId",
          "type": "uint256"
        }
      ],
      "name": "toggleSale",
      "outputs": [],
      "stateMutability": "nonpayable",
      "type": "function"
    },
    {
      "inputs": [
        {
          "internalType": "uint256",
          "name": "_tokenId",
          "type": "uint256"
        }
      ],
      "name": "buyTicket",
      "outputs": [],
      "stateMutability": "payable",
      "type": "function",
      "payable": true
    },
    {
      "inputs": [],
      "name": "getTicketsLength",
      "outputs": [
        {
          "internalType": "uint256",
          "name": "",
          "type": "uint256"
        }
      ],
      "stateMutability": "view",
      "type": "function",
      "constant": true
    }
  ],
  "bytecode": "0x60806040526000600860006101000a81548160ff021916908360048111156200002d576200002c620003a9565b5b02179055506000600955600a600d5560006011553480156200004e57600080fd5b50604051620049c0380380620049c0833981810160405281019062000074919062000337565b6040518060400160405280600b81526020017f4e4654205469636b6574730000000000000000000000000000000000000000008152506040518060400160405280600381526020017f544958000000000000000000000000000000000000000000000000000000000081525062000100620000f46200018860201b60201c565b6200019060201b60201c565b81600190805190602001906200011892919062000270565b5080600290805190602001906200013192919062000270565b50505080600f81905550620001816040518060400160405280601c81526020017f68747470733a2f2f697066732e696e667572612e696f2f697066732f000000008152506200025460201b60201c565b5062000426565b600033905090565b60008060009054906101000a900473ffffffffffffffffffffffffffffffffffffffff169050816000806101000a81548173ffffffffffffffffffffffffffffffffffffffff021916908373ffffffffffffffffffffffffffffffffffffffff1602179055508173ffffffffffffffffffffffffffffffffffffffff168173ffffffffffffffffffffffffffffffffffffffff167f8be0079c531659141344cd1fd0a4f28419497f9722a3daafe3b4186f6b6457e060405160405180910390a35050565b80600e90805190602001906200026c92919062000270565b5050565b8280546200027e9062000373565b90600052602060002090601f016020900481019282620002a25760008555620002ee565b82601f10620002bd57805160ff1916838001178555620002ee565b82800160010185558215620002ee579182015b82811115620002ed578251825591602001919060010190620002d0565b5b509050620002fd919062000301565b5090565b5b808211156200031c57600081600090555060010162000302565b5090565b60008151905062000331816200040c565b92915050565b60006020828403121562000350576200034f62000407565b5b6000620003608482850162000320565b91505092915050565b6000819050919050565b600060028204905060018216806200038c57607f821691505b60208210811415620003a357620003a2620003d8565b5b50919050565b7f4e487b7100000000000000000000000000000000000000000000000000000000600052602160045260246000fd5b7f4e487b7100000000000000000000000000000000000000000000000000000000600052602260045260246000fd5b600080fd5b620004178162000369565b81146200042357600080fd5b50565b61458a80620004366000396000f3fe60806040526004361061020f5760003560e01c80636f9fb98a11610118578063c059dade116100a0578063e4470b3e1161006f578063e4470b3e14610713578063e72f98431461073c578063e985e9c514610765578063f2fde38b146107a2578063f34c575d146107cb5761020f565b8063c059dade14610691578063c43d8aa6146106a8578063c87b56dd146106bf578063e2fd38e9146106fc5761020f565b8063924fdcb1116100e7578063924fdcb1146105be57806395d89b41146105e9578063983d7f4514610614578063a22cb4651461063f578063b88d4fde146106685761020f565b80636f9fb98a1461051457806370a082311461053f578063715018a61461057c5780638da5cb5b146105935761020f565b80633ccfd60b1161019b57806350b447121161016a57806350b44712146104165780635338e163146104555780636352211e1461047e57806367dd74ca146104bb5780636f7bc9be146104d75761020f565b80633ccfd60b1461039457806342842e0e146103ab57806348c724ed146103d45780634fcf9950146103eb5761020f565b80630bf6cc08116101e25780630bf6cc08146102e25780630c3f6acf1461030d57806323b872dd146103385780632afcf480146103615780632e64cec11461037d5761020f565b806301ffc9a71461021457806306fdde0314610251578063081812fc1461027c578063095ea7b3146102b9575b600080fd5b34801561022057600080fd5b5061023b60048036038101906102369190613138565b6107f6565b6040516102489190613677565b60405180910390f35b34801561025d57600080fd5b506102666108d8565b60405161027391906136ad565b60405180910390f35b34801561028857600080fd5b506102a3600480360381019061029e9190613192565b61096a565b6040516102b09190613610565b60405180910390f35b3480156102c557600080fd5b506102e060048036038101906102db91906130f8565b6109ef565b005b3480156102ee57600080fd5b506102f7610b07565b604051610304919061396f565b60405180910390f35b34801561031957600080fd5b50610322610b0d565b60405161032f9190613692565b60405180910390f35b34801561034457600080fd5b5061035f600480360381019061035a9190612fe2565b610b20565b005b61037b60048036038101906103769190613192565b610b80565b005b34801561038957600080fd5b50610392610c70565b005b3480156103a057600080fd5b506103a9610e29565b005b3480156103b757600080fd5b506103d260048036038101906103cd9190612fe2565b610f2e565b005b3480156103e057600080fd5b506103e9610f4e565b005b3480156103f757600080fd5b50610400611037565b60405161040d919061396f565b60405180910390f35b34801561042257600080fd5b5061043d60048036038101906104389190613192565b61103d565b60405161044c939291906139dc565b60405180910390f35b34801561046157600080fd5b5061047c600480360381019061047791906131bf565b611084565b005b34801561048a57600080fd5b506104a560048036038101906104a09190613192565b611149565b6040516104b29190613610565b60405180910390f35b6104d560048036038101906104d09190613192565b6111fb565b005b3480156104e357600080fd5b506104fe60048036038101906104f99190612f75565b61144e565b60405161050b919061396f565b60405180910390f35b34801561052057600080fd5b50610529611466565b604051610536919061396f565b60405180910390f35b34801561054b57600080fd5b5061056660048036038101906105619190612f75565b61146e565b604051610573919061396f565b60405180910390f35b34801561058857600080fd5b50610591611526565b005b34801561059f57600080fd5b506105a86115ae565b6040516105b59190613610565b60405180910390f35b3480156105ca57600080fd5b506105d36115d7565b6040516105e0919061396f565b60405180910390f35b3480156105f557600080fd5b506105fe6115dd565b60405161060b91906136ad565b60405180910390f35b34801561062057600080fd5b5061062961166f565b604051610636919061396f565b60405180910390f35b34801561064b57600080fd5b50610666600480360381019061066191906130b8565b61167c565b005b34801561067457600080fd5b5061068f600480360381019061068a9190613035565b6117fd565b005b34801561069d57600080fd5b506106a661185f565b005b3480156106b457600080fd5b506106bd611948565b005b3480156106cb57600080fd5b506106e660048036038101906106e19190613192565b611a31565b6040516106f391906136ad565b60405180910390f35b34801561070857600080fd5b50610711611b83565b005b34801561071f57600080fd5b5061073a600480360381019061073591906131bf565b611c89565b005b34801561074857600080fd5b50610763600480360381019061075e9190613192565b611e26565b005b34801561077157600080fd5b5061078c60048036038101906107879190612fa2565b611f08565b6040516107999190613677565b60405180910390f35b3480156107ae57600080fd5b506107c960048036038101906107c49190612f75565b611f9c565b005b3480156107d757600080fd5b506107e0612094565b6040516107ed919061396f565b60405180910390f35b60007f80ac58cd000000000000000000000000000000000000000000000000000000007bffffffffffffffffffffffffffffffffffffffffffffffffffffffff1916827bffffffffffffffffffffffffffffffffffffffffffffffffffffffff191614806108c157507f5b5e139f000000000000000000000000000000000000000000000000000000007bffffffffffffffffffffffffffffffffffffffffffffffffffffffff1916827bffffffffffffffffffffffffffffffffffffffffffffffffffffffff1916145b806108d157506108d08261209a565b5b9050919050565b6060600180546108e790613d0b565b80601f016020809104026020016040519081016040528092919081815260200182805461091390613d0b565b80156109605780601f1061093557610100808354040283529160200191610960565b820191906000526020600020905b81548152906001019060200180831161094357829003601f168201915b5050505050905090565b600061097582612104565b6109b4576040517f08c379a00000000000000000000000000000000000000000000000000000000081526004016109ab9061384f565b60405180910390fd5b6005600083815260200190815260200160002060009054906101000a900473ffffffffffffffffffffffffffffffffffffffff169050919050565b60006109fa82611149565b90508073ffffffffffffffffffffffffffffffffffffffff168373ffffffffffffffffffffffffffffffffffffffff161415610a6b576040517f08c379a0000000000000000000000000000000000000000000000000000000008152600401610a62906138ef565b60405180910390fd5b8073ffffffffffffffffffffffffffffffffffffffff16610a8a612170565b73ffffffffffffffffffffffffffffffffffffffff161480610ab95750610ab881610ab3612170565b611f08565b5b610af8576040517f08c379a0000000000000000000000000000000000000000000000000000000008152600401610aef9061378f565b60405180910390fd5b610b028383612178565b505050565b600c5481565b600860009054906101000a900460ff1681565b610b31610b2b612170565b82612231565b610b70576040517f08c379a0000000000000000000000000000000000000000000000000000000008152600401610b679061394f565b60405180910390fd5b610b7b83838361230f565b505050565b60016004811115610b9457610b93613e46565b5b600860009054906101000a900460ff166004811115610bb657610bb5613e46565b5b14610bc057600080fd5b610bd581600f5461256b90919063ffffffff16565b3414610be057600080fd5b610bf6600160095461258190919063ffffffff16565b60115482610c049190613b1b565b10610c0e57600080fd5b610c1781612597565b80601260003373ffffffffffffffffffffffffffffffffffffffff1673ffffffffffffffffffffffffffffffffffffffff1681526020019081526020016000206000828254610c669190613b1b565b9250508190555050565b600480811115610c8357610c82613e46565b5b600860009054906101000a900460ff166004811115610ca557610ca4613e46565b5b14610caf57600080fd5b6000601260003373ffffffffffffffffffffffffffffffffffffffff1673ffffffffffffffffffffffffffffffffffffffff168152602001908152602001600020541115610da157610d4b601260003373ffffffffffffffffffffffffffffffffffffffff1673ffffffffffffffffffffffffffffffffffffffff1681526020019081526020016000205460105461256b90919063ffffffff16565b600b60003373ffffffffffffffffffffffffffffffffffffffff1673ffffffffffffffffffffffffffffffffffffffff1681526020019081526020016000206000828254610d999190613b1b565b925050819055505b3373ffffffffffffffffffffffffffffffffffffffff166108fc600b60003373ffffffffffffffffffffffffffffffffffffffff1673ffffffffffffffffffffffffffffffffffffffff168152602001908152602001600020549081150290604051600060405180830381858888f19350505050158015610e26573d6000803e3d6000fd5b50565b610e31612170565b73ffffffffffffffffffffffffffffffffffffffff16610e4f6115ae565b73ffffffffffffffffffffffffffffffffffffffff1614610ea5576040517f08c379a0000000000000000000000000000000000000000000000000000000008152600401610e9c9061386f565b60405180910390fd5b60026004811115610eb957610eb8613e46565b5b600860009054906101000a900460ff166004811115610edb57610eda613e46565b5b14610ee557600080fd5b3373ffffffffffffffffffffffffffffffffffffffff166108fc479081150290604051600060405180830381858888f19350505050158015610f2b573d6000803e3d6000fd5b50565b610f49838383604051806020016040528060008152506117fd565b505050565b610f56612170565b73ffffffffffffffffffffffffffffffffffffffff16610f746115ae565b73ffffffffffffffffffffffffffffffffffffffff1614610fca576040517f08c379a0000000000000000000000000000000000000000000000000000000008152600401610fc19061386f565b60405180910390fd5b60026004811115610fde57610fdd613e46565b5b600860009054906101000a900460ff16600481111561100057610fff613e46565b5b1461100a57600080fd5b6003600860006101000a81548160ff021916908360048111156110305761102f613e46565b5b0217905550565b600f5481565b600a818154811061104d57600080fd5b90600052602060002090600302016000915090508060000154908060010154908060020160009054906101000a900460ff16905083565b61108d83611149565b73ffffffffffffffffffffffffffffffffffffffff163373ffffffffffffffffffffffffffffffffffffffff16146110c457600080fd5b6000600a84815481106110da576110d9613ea4565b5b9060005260206000209060030201905080600001548310611130576040517f08c379a0000000000000000000000000000000000000000000000000000000008152600401611127906138cf565b60405180910390fd5b82816001018190555061114384836125ae565b50505050565b6000806003600084815260200190815260200160002060009054906101000a900473ffffffffffffffffffffffffffffffffffffffff169050600073ffffffffffffffffffffffffffffffffffffffff168173ffffffffffffffffffffffffffffffffffffffff1614156111f2576040517f08c379a00000000000000000000000000000000000000000000000000000000081526004016111e9906137cf565b60405180910390fd5b80915050919050565b6000600a828154811061121157611210613ea4565b5b90600052602060002090600302019050600115158160020160009054906101000a900460ff1615151461124357600080fd5b806001015434101561128a576040517f08c379a00000000000000000000000000000000000000000000000000000000081526004016112819061390f565b60405180910390fd5b600d546112963361146e565b106112d6576040517f08c379a00000000000000000000000000000000000000000000000000000000081526004016112cd9061392f565b60405180910390fd5b60006112e183611149565b905060008260020160006101000a81548160ff021916908315150217905550611327600361131960053461262290919063ffffffff16565b61256b90919063ffffffff16565b600b60008373ffffffffffffffffffffffffffffffffffffffff1673ffffffffffffffffffffffffffffffffffffffff16815260200190815260200160002060008282546113759190613b1b565b925050819055506113a3600261139560053461262290919063ffffffff16565b61256b90919063ffffffff16565b600c60008282546113b49190613b1b565b925050819055506113d681338560405180602001604052806000815250612638565b7f1a16bc699ce0f6ccd4b93e7dc6f592ff10f75af2aa2e0a7346adbc317943749a833360405161140792919061398a565b60405180910390a17f1f52727099fd6031c06d28983d4d89fb813bb324aa3098ed1d15bb91a2b4b7e38360006040516114419291906139b3565b60405180910390a1505050565b60126020528060005260406000206000915090505481565b600047905090565b60008073ffffffffffffffffffffffffffffffffffffffff168273ffffffffffffffffffffffffffffffffffffffff1614156114df576040517f08c379a00000000000000000000000000000000000000000000000000000000081526004016114d6906137af565b60405180910390fd5b600460008373ffffffffffffffffffffffffffffffffffffffff1673ffffffffffffffffffffffffffffffffffffffff168152602001908152602001600020549050919050565b61152e612170565b73ffffffffffffffffffffffffffffffffffffffff1661154c6115ae565b73ffffffffffffffffffffffffffffffffffffffff16146115a2576040517f08c379a00000000000000000000000000000000000000000000000000000000081526004016115999061386f565b60405180910390fd5b6115ac6000612694565b565b60008060009054906101000a900473ffffffffffffffffffffffffffffffffffffffff16905090565b60105481565b6060600280546115ec90613d0b565b80601f016020809104026020016040519081016040528092919081815260200182805461161890613d0b565b80156116655780601f1061163a57610100808354040283529160200191611665565b820191906000526020600020905b81548152906001019060200180831161164857829003601f168201915b5050505050905090565b6000600a80549050905090565b611684612170565b73ffffffffffffffffffffffffffffffffffffffff168273ffffffffffffffffffffffffffffffffffffffff1614156116f2576040517f08c379a00000000000000000000000000000000000000000000000000000000081526004016116e99061374f565b60405180910390fd5b80600660006116ff612170565b73ffffffffffffffffffffffffffffffffffffffff1673ffffffffffffffffffffffffffffffffffffffff16815260200190815260200160002060008473ffffffffffffffffffffffffffffffffffffffff1673ffffffffffffffffffffffffffffffffffffffff16815260200190815260200160002060006101000a81548160ff0219169083151502179055508173ffffffffffffffffffffffffffffffffffffffff166117ac612170565b73ffffffffffffffffffffffffffffffffffffffff167f17307eab39ab6107e8899845ad3d59bd9653f200f220920489ca2b5937696c31836040516117f19190613677565b60405180910390a35050565b61180e611808612170565b83612231565b61184d576040517f08c379a00000000000000000000000000000000000000000000000000000000081526004016118449061394f565b60405180910390fd5b61185984848484612638565b50505050565b611867612170565b73ffffffffffffffffffffffffffffffffffffffff166118856115ae565b73ffffffffffffffffffffffffffffffffffffffff16146118db576040517f08c379a00000000000000000000000000000000000000000000000000000000081526004016118d29061386f565b60405180910390fd5b600160048111156118ef576118ee613e46565b5b600860009054906101000a900460ff16600481111561191157611910613e46565b5b1461191b57600080fd5b6002600860006101000a81548160ff0219169083600481111561194157611940613e46565b5b0217905550565b611950612170565b73ffffffffffffffffffffffffffffffffffffffff1661196e6115ae565b73ffffffffffffffffffffffffffffffffffffffff16146119c4576040517f08c379a00000000000000000000000000000000000000000000000000000000081526004016119bb9061386f565b60405180910390fd5b600060048111156119d8576119d7613e46565b5b600860009054906101000a900460ff1660048111156119fa576119f9613e46565b5b14611a0457600080fd5b6001600860006101000a81548160ff02191690836004811115611a2a57611a29613e46565b5b0217905550565b6060611a3c82612104565b611a7b576040517f08c379a0000000000000000000000000000000000000000000000000000000008152600401611a729061382f565b60405180910390fd5b6000600760008481526020019081526020016000208054611a9b90613d0b565b80601f0160208091040260200160405190810160405280929190818152602001828054611ac790613d0b565b8015611b145780601f10611ae957610100808354040283529160200191611b14565b820191906000526020600020905b815481529060010190602001808311611af757829003601f168201915b505050505090506000611b25612758565b9050600081511415611b3b578192505050611b7e565b600082511115611b70578082604051602001611b589291906135ec565b60405160208183030381529060405292505050611b7e565b611b79846127ea565b925050505b919050565b611b8b612170565b73ffffffffffffffffffffffffffffffffffffffff16611ba96115ae565b73ffffffffffffffffffffffffffffffffffffffff1614611bff576040517f08c379a0000000000000000000000000000000000000000000000000000000008152600401611bf69061386f565b60405180910390fd5b60036004811115611c1357611c12613e46565b5b600860009054906101000a900460ff166004811115611c3557611c34613e46565b5b14611c3f57600080fd5b6004600860006101000a81548160ff02191690836004811115611c6557611c64613e46565b5b0217905550611c81601154600c5461262290919063ffffffff16565b601081905550565b611c91612170565b73ffffffffffffffffffffffffffffffffffffffff16611caf6115ae565b73ffffffffffffffffffffffffffffffffffffffff1614611d05576040517f08c379a0000000000000000000000000000000000000000000000000000000008152600401611cfc9061386f565b60405180910390fd5b60006004811115611d1957611d18613e46565b5b600860009054906101000a900460ff166004811115611d3b57611d3a613e46565b5b14611d4557600080fd5b611d5133600954612891565b600a6040518060600160405280848152602001858152602001600115158152509080600181540180825580915050600190039060005260206000209060030201600090919091909150600082015181600001556020820151816001015560408201518160020160006101000a81548160ff0219169083151502179055505050611ddc600954826125ae565b7f06ab0413adb04220056e8334cf2856a1fb7fef4c0f785aadeb34e4307af44fc06009548483604051611e1193929190613a13565b60405180910390a1611e21612a5f565b505050565b611e2f81611149565b73ffffffffffffffffffffffffffffffffffffffff163373ffffffffffffffffffffffffffffffffffffffff1614611e6657600080fd5b6000600a8281548110611e7c57611e7b613ea4565b5b906000526020600020906003020190508060020160009054906101000a900460ff16158160020160006101000a81548160ff0219169083151502179055507f1f52727099fd6031c06d28983d4d89fb813bb324aa3098ed1d15bb91a2b4b7e3828260020160009054906101000a900460ff16604051611efc9291906139b3565b60405180910390a15050565b6000600660008473ffffffffffffffffffffffffffffffffffffffff1673ffffffffffffffffffffffffffffffffffffffff16815260200190815260200160002060008373ffffffffffffffffffffffffffffffffffffffff1673ffffffffffffffffffffffffffffffffffffffff16815260200190815260200160002060009054906101000a900460ff16905092915050565b611fa4612170565b73ffffffffffffffffffffffffffffffffffffffff16611fc26115ae565b73ffffffffffffffffffffffffffffffffffffffff1614612018576040517f08c379a000000000000000000000000000000000000000000000000000000000815260040161200f9061386f565b60405180910390fd5b600073ffffffffffffffffffffffffffffffffffffffff168173ffffffffffffffffffffffffffffffffffffffff161415612088576040517f08c379a000000000000000000000000000000000000000000000000000000000815260040161207f906136ef565b60405180910390fd5b61209181612694565b50565b60115481565b60007f01ffc9a7000000000000000000000000000000000000000000000000000000007bffffffffffffffffffffffffffffffffffffffffffffffffffffffff1916827bffffffffffffffffffffffffffffffffffffffffffffffffffffffff1916149050919050565b60008073ffffffffffffffffffffffffffffffffffffffff166003600084815260200190815260200160002060009054906101000a900473ffffffffffffffffffffffffffffffffffffffff1673ffffffffffffffffffffffffffffffffffffffff1614159050919050565b600033905090565b816005600083815260200190815260200160002060006101000a81548173ffffffffffffffffffffffffffffffffffffffff021916908373ffffffffffffffffffffffffffffffffffffffff160217905550808273ffffffffffffffffffffffffffffffffffffffff166121eb83611149565b73ffffffffffffffffffffffffffffffffffffffff167f8c5be1e5ebec7d5bd14f71427d1e84f3dd0314c0f7b2291e5b200ac8c7c3b92560405160405180910390a45050565b600061223c82612104565b61227b576040517f08c379a00000000000000000000000000000000000000000000000000000000081526004016122729061376f565b60405180910390fd5b600061228683611149565b90508073ffffffffffffffffffffffffffffffffffffffff168473ffffffffffffffffffffffffffffffffffffffff1614806122f557508373ffffffffffffffffffffffffffffffffffffffff166122dd8461096a565b73ffffffffffffffffffffffffffffffffffffffff16145b8061230657506123058185611f08565b5b91505092915050565b8273ffffffffffffffffffffffffffffffffffffffff1661232f82611149565b73ffffffffffffffffffffffffffffffffffffffff1614612385576040517f08c379a000000000000000000000000000000000000000000000000000000000815260040161237c9061388f565b60405180910390fd5b600073ffffffffffffffffffffffffffffffffffffffff168273ffffffffffffffffffffffffffffffffffffffff1614156123f5576040517f08c379a00000000000000000000000000000000000000000000000000000000081526004016123ec9061372f565b60405180910390fd5b612400838383612a79565b61240b600082612178565b6001600460008573ffffffffffffffffffffffffffffffffffffffff1673ffffffffffffffffffffffffffffffffffffffff168152602001908152602001600020600082825461245b9190613bfc565b925050819055506001600460008473ffffffffffffffffffffffffffffffffffffffff1673ffffffffffffffffffffffffffffffffffffffff16815260200190815260200160002060008282546124b29190613b1b565b92505081905550816003600083815260200190815260200160002060006101000a81548173ffffffffffffffffffffffffffffffffffffffff021916908373ffffffffffffffffffffffffffffffffffffffff160217905550808273ffffffffffffffffffffffffffffffffffffffff168473ffffffffffffffffffffffffffffffffffffffff167fddf252ad1be2c89b69c2b068fc378daa952ba7f163c4a11628f55a4df523b3ef60405160405180910390a4505050565b600081836125799190613ba2565b905092915050565b6000818361258f9190613b1b565b905092915050565b806011546125a59190613b1b565b60118190555050565b6125b782612104565b6125f6576040517f08c379a00000000000000000000000000000000000000000000000000000000081526004016125ed906137ef565b60405180910390fd5b8060076000848152602001908152602001600020908051906020019061261d929190612d89565b505050565b600081836126309190613b71565b905092915050565b61264384848461230f565b61264f84848484612a7e565b61268e576040517f08c379a0000000000000000000000000000000000000000000000000000000008152600401612685906136cf565b60405180910390fd5b50505050565b60008060009054906101000a900473ffffffffffffffffffffffffffffffffffffffff169050816000806101000a81548173ffffffffffffffffffffffffffffffffffffffff021916908373ffffffffffffffffffffffffffffffffffffffff1602179055508173ffffffffffffffffffffffffffffffffffffffff168173ffffffffffffffffffffffffffffffffffffffff167f8be0079c531659141344cd1fd0a4f28419497f9722a3daafe3b4186f6b6457e060405160405180910390a35050565b6060600e805461276790613d0b565b80601f016020809104026020016040519081016040528092919081815260200182805461279390613d0b565b80156127e05780601f106127b5576101008083540402835291602001916127e0565b820191906000526020600020905b8154815290600101906020018083116127c357829003601f168201915b5050505050905090565b60606127f582612104565b612834576040517f08c379a000000000000000000000000000000000000000000000000000000000815260040161282b906138af565b60405180910390fd5b600061283e612758565b9050600081511161285e5760405180602001604052806000815250612889565b8061286884612c15565b6040516020016128799291906135ec565b6040516020818303038152906040525b915050919050565b600073ffffffffffffffffffffffffffffffffffffffff168273ffffffffffffffffffffffffffffffffffffffff161415612901576040517f08c379a00000000000000000000000000000000000000000000000000000000081526004016128f89061380f565b60405180910390fd5b61290a81612104565b1561294a576040517f08c379a00000000000000000000000000000000000000000000000000000000081526004016129419061370f565b60405180910390fd5b61295660008383612a79565b6001600460008473ffffffffffffffffffffffffffffffffffffffff1673ffffffffffffffffffffffffffffffffffffffff16815260200190815260200160002060008282546129a69190613b1b565b92505081905550816003600083815260200190815260200160002060006101000a81548173ffffffffffffffffffffffffffffffffffffffff021916908373ffffffffffffffffffffffffffffffffffffffff160217905550808273ffffffffffffffffffffffffffffffffffffffff16600073ffffffffffffffffffffffffffffffffffffffff167fddf252ad1be2c89b69c2b068fc378daa952ba7f163c4a11628f55a4df523b3ef60405160405180910390a45050565b60096000815480929190612a7290613d6e565b9190505550565b505050565b6000612a9f8473ffffffffffffffffffffffffffffffffffffffff16612d76565b15612c08578373ffffffffffffffffffffffffffffffffffffffff1663150b7a02612ac8612170565b8786866040518563ffffffff1660e01b8152600401612aea949392919061362b565b602060405180830381600087803b158015612b0457600080fd5b505af1925050508015612b3557506040513d601f19601f82011682018060405250810190612b329190613165565b60015b612bb8573d8060008114612b65576040519150601f19603f3d011682016040523d82523d6000602084013e612b6a565b606091505b50600081511415612bb0576040517f08c379a0000000000000000000000000000000000000000000000000000000008152600401612ba7906136cf565b60405180910390fd5b805181602001fd5b63150b7a0260e01b7bffffffffffffffffffffffffffffffffffffffffffffffffffffffff1916817bffffffffffffffffffffffffffffffffffffffffffffffffffffffff191614915050612c0d565b600190505b949350505050565b60606000821415612c5d576040518060400160405280600181526020017f30000000000000000000000000000000000000000000000000000000000000008152509050612d71565b600082905060005b60008214612c8f578080612c7890613d6e565b915050600a82612c889190613b71565b9150612c65565b60008167ffffffffffffffff811115612cab57612caa613ed3565b5b6040519080825280601f01601f191660200182016040528015612cdd5781602001600182028036833780820191505090505b5090505b60008514612d6a57600182612cf69190613bfc565b9150600a85612d059190613db7565b6030612d119190613b1b565b60f81b818381518110612d2757612d26613ea4565b5b60200101907effffffffffffffffffffffffffffffffffffffffffffffffffffffffffffff1916908160001a905350600a85612d639190613b71565b9450612ce1565b8093505050505b919050565b600080823b905060008111915050919050565b828054612d9590613d0b565b90600052602060002090601f016020900481019282612db75760008555612dfe565b82601f10612dd057805160ff1916838001178555612dfe565b82800160010185558215612dfe579182015b82811115612dfd578251825591602001919060010190612de2565b5b509050612e0b9190612e0f565b5090565b5b80821115612e28576000816000905550600101612e10565b5090565b6000612e3f612e3a84613a76565b613a51565b905082815260208101848484011115612e5b57612e5a613f07565b5b612e66848285613cc9565b509392505050565b6000612e81612e7c84613aa7565b613a51565b905082815260208101848484011115612e9d57612e9c613f07565b5b612ea8848285613cc9565b509392505050565b600081359050612ebf816144f8565b92915050565b600081359050612ed48161450f565b92915050565b600081359050612ee981614526565b92915050565b600081519050612efe81614526565b92915050565b600082601f830112612f1957612f18613f02565b5b8135612f29848260208601612e2c565b91505092915050565b600082601f830112612f4757612f46613f02565b5b8135612f57848260208601612e6e565b91505092915050565b600081359050612f6f8161453d565b92915050565b600060208284031215612f8b57612f8a613f11565b5b6000612f9984828501612eb0565b91505092915050565b60008060408385031215612fb957612fb8613f11565b5b6000612fc785828601612eb0565b9250506020612fd885828601612eb0565b9150509250929050565b600080600060608486031215612ffb57612ffa613f11565b5b600061300986828701612eb0565b935050602061301a86828701612eb0565b925050604061302b86828701612f60565b9150509250925092565b6000806000806080858703121561304f5761304e613f11565b5b600061305d87828801612eb0565b945050602061306e87828801612eb0565b935050604061307f87828801612f60565b925050606085013567ffffffffffffffff8111156130a05761309f613f0c565b5b6130ac87828801612f04565b91505092959194509250565b600080604083850312156130cf576130ce613f11565b5b60006130dd85828601612eb0565b92505060206130ee85828601612ec5565b9150509250929050565b6000806040838503121561310f5761310e613f11565b5b600061311d85828601612eb0565b925050602061312e85828601612f60565b9150509250929050565b60006020828403121561314e5761314d613f11565b5b600061315c84828501612eda565b91505092915050565b60006020828403121561317b5761317a613f11565b5b600061318984828501612eef565b91505092915050565b6000602082840312156131a8576131a7613f11565b5b60006131b684828501612f60565b91505092915050565b6000806000606084860312156131d8576131d7613f11565b5b60006131e686828701612f60565b93505060206131f786828701612f60565b925050604084013567ffffffffffffffff81111561321857613217613f0c565b5b61322486828701612f32565b9150509250925092565b61323781613c30565b82525050565b61324681613c42565b82525050565b600061325782613ad8565b6132618185613aee565b9350613271818560208601613cd8565b61327a81613f16565b840191505092915050565b61328e81613cb7565b82525050565b600061329f82613ae3565b6132a98185613aff565b93506132b9818560208601613cd8565b6132c281613f16565b840191505092915050565b60006132d882613ae3565b6132e28185613b10565b93506132f2818560208601613cd8565b80840191505092915050565b600061330b603283613aff565b915061331682613f27565b604082019050919050565b600061332e602683613aff565b915061333982613f76565b604082019050919050565b6000613351601c83613aff565b915061335c82613fc5565b602082019050919050565b6000613374602483613aff565b915061337f82613fee565b604082019050919050565b6000613397601983613aff565b91506133a28261403d565b602082019050919050565b60006133ba602c83613aff565b91506133c582614066565b604082019050919050565b60006133dd603883613aff565b91506133e8826140b5565b604082019050919050565b6000613400602a83613aff565b915061340b82614104565b604082019050919050565b6000613423602983613aff565b915061342e82614153565b604082019050919050565b6000613446602e83613aff565b9150613451826141a2565b604082019050919050565b6000613469602083613aff565b9150613474826141f1565b602082019050919050565b600061348c603183613aff565b91506134978261421a565b604082019050919050565b60006134af602c83613aff565b91506134ba82614269565b604082019050919050565b60006134d2602083613aff565b91506134dd826142b8565b602082019050919050565b60006134f5602983613aff565b9150613500826142e1565b604082019050919050565b6000613518602f83613aff565b915061352382614330565b604082019050919050565b600061353b602383613aff565b91506135468261437f565b604082019050919050565b600061355e602183613aff565b9150613569826143ce565b604082019050919050565b6000613581601983613aff565b915061358c8261441d565b602082019050919050565b60006135a4602583613aff565b91506135af82614446565b604082019050919050565b60006135c7603183613aff565b91506135d282614495565b604082019050919050565b6135e681613cad565b82525050565b60006135f882856132cd565b915061360482846132cd565b91508190509392505050565b6000602082019050613625600083018461322e565b92915050565b6000608082019050613640600083018761322e565b61364d602083018661322e565b61365a60408301856135dd565b818103606083015261366c818461324c565b905095945050505050565b600060208201905061368c600083018461323d565b92915050565b60006020820190506136a76000830184613285565b92915050565b600060208201905081810360008301526136c78184613294565b905092915050565b600060208201905081810360008301526136e8816132fe565b9050919050565b6000602082019050818103600083015261370881613321565b9050919050565b6000602082019050818103600083015261372881613344565b9050919050565b6000602082019050818103600083015261374881613367565b9050919050565b600060208201905081810360008301526137688161338a565b9050919050565b60006020820190508181036000830152613788816133ad565b9050919050565b600060208201905081810360008301526137a8816133d0565b9050919050565b600060208201905081810360008301526137c8816133f3565b9050919050565b600060208201905081810360008301526137e881613416565b9050919050565b6000602082019050818103600083015261380881613439565b9050919050565b600060208201905081810360008301526138288161345c565b9050919050565b600060208201905081810360008301526138488161347f565b9050919050565b60006020820190508181036000830152613868816134a2565b9050919050565b60006020820190508181036000830152613888816134c5565b9050919050565b600060208201905081810360008301526138a8816134e8565b9050919050565b600060208201905081810360008301526138c88161350b565b9050919050565b600060208201905081810360008301526138e88161352e565b9050919050565b6000602082019050818103600083015261390881613551565b9050919050565b6000602082019050818103600083015261392881613574565b9050919050565b6000602082019050818103600083015261394881613597565b9050919050565b60006020820190508181036000830152613968816135ba565b9050919050565b600060208201905061398460008301846135dd565b92915050565b600060408201905061399f60008301856135dd565b6139ac602083018461322e565b9392505050565b60006040820190506139c860008301856135dd565b6139d5602083018461323d565b9392505050565b60006060820190506139f160008301866135dd565b6139fe60208301856135dd565b613a0b604083018461323d565b949350505050565b6000606082019050613a2860008301866135dd565b613a3560208301856135dd565b8181036040830152613a478184613294565b9050949350505050565b6000613a5b613a6c565b9050613a678282613d3d565b919050565b6000604051905090565b600067ffffffffffffffff821115613a9157613a90613ed3565b5b613a9a82613f16565b9050602081019050919050565b600067ffffffffffffffff821115613ac257613ac1613ed3565b5b613acb82613f16565b9050602081019050919050565b600081519050919050565b600081519050919050565b600082825260208201905092915050565b600082825260208201905092915050565b600081905092915050565b6000613b2682613cad565b9150613b3183613cad565b9250827fffffffffffffffffffffffffffffffffffffffffffffffffffffffffffffffff03821115613b6657613b65613de8565b5b828201905092915050565b6000613b7c82613cad565b9150613b8783613cad565b925082613b9757613b96613e17565b5b828204905092915050565b6000613bad82613cad565b9150613bb883613cad565b9250817fffffffffffffffffffffffffffffffffffffffffffffffffffffffffffffffff0483118215151615613bf157613bf0613de8565b5b828202905092915050565b6000613c0782613cad565b9150613c1283613cad565b925082821015613c2557613c24613de8565b5b828203905092915050565b6000613c3b82613c8d565b9050919050565b60008115159050919050565b60007fffffffff0000000000000000000000000000000000000000000000000000000082169050919050565b6000819050613c88826144e4565b919050565b600073ffffffffffffffffffffffffffffffffffffffff82169050919050565b6000819050919050565b6000613cc282613c7a565b9050919050565b82818337600083830152505050565b60005b83811015613cf6578082015181840152602081019050613cdb565b83811115613d05576000848401525b50505050565b60006002820490506001821680613d2357607f821691505b60208210811415613d3757613d36613e75565b5b50919050565b613d4682613f16565b810181811067ffffffffffffffff82111715613d6557613d64613ed3565b5b80604052505050565b6000613d7982613cad565b91507fffffffffffffffffffffffffffffffffffffffffffffffffffffffffffffffff821415613dac57613dab613de8565b5b600182019050919050565b6000613dc282613cad565b9150613dcd83613cad565b925082613ddd57613ddc613e17565b5b828206905092915050565b7f4e487b7100000000000000000000000000000000000000000000000000000000600052601160045260246000fd5b7f4e487b7100000000000000000000000000000000000000000000000000000000600052601260045260246000fd5b7f4e487b7100000000000000000000000000000000000000000000000000000000600052602160045260246000fd5b7f4e487b7100000000000000000000000000000000000000000000000000000000600052602260045260246000fd5b7f4e487b7100000000000000000000000000000000000000000000000000000000600052603260045260246000fd5b7f4e487b7100000000000000000000000000000000000000000000000000000000600052604160045260246000fd5b600080fd5b600080fd5b600080fd5b600080fd5b6000601f19601f8301169050919050565b7f4552433732313a207472616e7366657220746f206e6f6e20455243373231526560008201527f63656976657220696d706c656d656e7465720000000000000000000000000000602082015250565b7f4f776e61626c653a206e6577206f776e657220697320746865207a65726f206160008201527f6464726573730000000000000000000000000000000000000000000000000000602082015250565b7f4552433732313a20746f6b656e20616c7265616479206d696e74656400000000600082015250565b7f4552433732313a207472616e7366657220746f20746865207a65726f2061646460008201527f7265737300000000000000000000000000000000000000000000000000000000602082015250565b7f4552433732313a20617070726f766520746f2063616c6c657200000000000000600082015250565b7f4552433732313a206f70657261746f7220717565727920666f72206e6f6e657860008201527f697374656e7420746f6b656e0000000000000000000000000000000000000000602082015250565b7f4552433732313a20617070726f76652063616c6c6572206973206e6f74206f7760008201527f6e6572206e6f7220617070726f76656420666f7220616c6c0000000000000000602082015250565b7f4552433732313a2062616c616e636520717565727920666f7220746865207a6560008201527f726f206164647265737300000000000000000000000000000000000000000000602082015250565b7f4552433732313a206f776e657220717565727920666f72206e6f6e657869737460008201527f656e7420746f6b656e0000000000000000000000000000000000000000000000602082015250565b7f45524337323155524953746f726167653a2055524920736574206f66206e6f6e60008201527f6578697374656e7420746f6b656e000000000000000000000000000000000000602082015250565b7f4552433732313a206d696e7420746f20746865207a65726f2061646472657373600082015250565b7f45524337323155524953746f726167653a2055524920717565727920666f722060008201527f6e6f6e6578697374656e7420746f6b656e000000000000000000000000000000602082015250565b7f4552433732313a20617070726f76656420717565727920666f72206e6f6e657860008201527f697374656e7420746f6b656e0000000000000000000000000000000000000000602082015250565b7f4f776e61626c653a2063616c6c6572206973206e6f7420746865206f776e6572600082015250565b7f4552433732313a207472616e73666572206f6620746f6b656e2074686174206960008201527f73206e6f74206f776e0000000000000000000000000000000000000000000000602082015250565b7f4552433732314d657461646174613a2055524920717565727920666f72206e6f60008201527f6e6578697374656e7420746f6b656e0000000000000000000000000000000000602082015250565b7f6e6f74206d6f7265207468616e20746865207570706572206c696d697420707260008201527f6963650000000000000000000000000000000000000000000000000000000000602082015250565b7f4552433732313a20617070726f76616c20746f2063757272656e74206f776e6560008201527f7200000000000000000000000000000000000000000000000000000000000000602082015250565b7f6174206c6561737420746865207469636b657420707269636500000000000000600082015250565b7f6578636565646564206d6178206e756d626572206f66207469636b657473206260008201527f6f75676874000000000000000000000000000000000000000000000000000000602082015250565b7f4552433732313a207472616e736665722063616c6c6572206973206e6f74206f60008201527f776e6572206e6f7220617070726f766564000000000000000000000000000000602082015250565b600581106144f5576144f4613e46565b5b50565b61450181613c30565b811461450c57600080fd5b50565b61451881613c42565b811461452357600080fd5b50565b61452f81613c4e565b811461453a57600080fd5b50565b61454681613cad565b811461455157600080fd5b5056fea2646970667358221220e5eae65d7799e0a7f835877416bcc15c049d220389b262ba70a9a7e1f36b018c64736f6c63430008070033",
  "immutableReferences": {},
  "source": "// SPDX-License-Identifier: MIT\n// curren deployed address on Shibuya: 0x5D1ce7Fb931274Aa315707aEB2abAD9D138780FA\n\npragma solidity ^0.8.0;\n\nimport \"@openzeppelin/contracts/access/Ownable.sol\";\nimport \"@openzeppelin/contracts/token/ERC721/extensions/ERC721URIStorage.sol\";\nimport \"@openzeppelin/contracts/utils/math/SafeMath.sol\";\n\ncontract Marketplace is Ownable, ERC721URIStorage{\n\n  using SafeMath for uint;\n\n  enum State { creatingTickets, investmentStart, investmentStop, ticketSaleStart, eventStart }\n  State public currentState = State.creatingTickets;\n\n  // metadata for each ticket\n  struct Ticket {\n      uint256 maxPrice; // maximum price cap on the ticket\n      uint256 price; // current price\n      bool onSale;\n  }\n\n  uint256 private _currentTokenId = 0;\n  Ticket[] public tickets;\n  mapping (address => uint256) etherBalance;\n  uint public vaultBalance;\n  uint private _maxTicketNum = 10;\n  string private _base;\n\n  uint public investmentPrice;\n  uint public unitReturn;\n  uint public _investmentSold = 0;\n  mapping(address=>uint) public investors; // mapping to show number of shares owned by each investor\n\n  constructor(uint _investmentPrice) ERC721(\"NFT Tickets\", \"TIX\") {\n    investmentPrice = _investmentPrice;\n    _setBaseURI(\"https://ipfs.infura.io/ipfs/\");\n  }\n\n  modifier eventNotStarted() {\n    require(currentState == State.ticketSaleStart);\n    _;\n  }\n\n  function _setBaseURI(string memory _uri) private {\n    _base = _uri;\n  }\n\n  function _baseURI() internal view override returns (string memory) {\n    return _base;\n  }\n\n  function createTicket(uint256 _price, uint256 _maxPrice, string memory _tokenURI) public onlyOwner {\n    require(currentState == State.creatingTickets);\n    _mint(msg.sender, _currentTokenId); //token id starts from 0\n    tickets.push(Ticket(_maxPrice, _price, true));\n    _setTokenURI(_currentTokenId, _tokenURI);\n    emit ticketCreated(_currentTokenId, _price, _tokenURI);\n    _incrementTokenId();\n  }\n\n\n  // let's say the event organiser will have 100 tickets as Collateral\n  // each ticket will cost $100 in the primary market = $10000\n  // for each ticket sold, $40 will be put into a vault (40%)\n  // total collateral worth $40 x 100 (if sold out) = $4000\n  // and now the event organiser wants to pre finance $3000\n  // so the event organiser will sell each collateral at $30 until 100 collateral has been sold\n\n\n  // investors can choose to invest in a number of tokens\n  function invest(uint _number) public payable {\n    require(currentState == State.investmentStart);\n    require(msg.value == investmentPrice.mul(_number));\n    require(_number + _investmentSold < _currentTokenId.add(1));\n    _incrementInvestmentId(_number);\n    investors[msg.sender] += _number;\n  }\n\n  function _incrementInvestmentId(uint _number) private {\n    _investmentSold = _investmentSold + _number;\n  }\n\n  // event organiser can withdraw funds before the event starts\n  function withdraw() public onlyOwner {\n    require(currentState == State.investmentStop);\n    payable(msg.sender).transfer(address(this).balance);\n  }\n\n  function getContractBalance() public view returns(uint) {\n    return address(this).balance;\n  }\n\n  function changeTicketPrice(uint256 _tokenId, uint256 _newPrice, string memory _tokenURI) public {\n    require(msg.sender == ownerOf(_tokenId));\n    Ticket storage tix = tickets[_tokenId];\n    require(_newPrice < tix.maxPrice, \"not more than the upper limit price\");\n    tix.price = _newPrice;\n    _setTokenURI(_tokenId, _tokenURI);\n  }\n\n  function startEvent() public onlyOwner {\n    require(currentState == State.ticketSaleStart);\n    currentState = State.eventStart;\n    unitReturn = vaultBalance.div(_investmentSold);\n  }\n\n  function startInvestment() public onlyOwner {\n    require(currentState == State.creatingTickets);\n    currentState = State.investmentStart;\n  }\n\n  function stopInvestment() public onlyOwner {\n    require(currentState == State.investmentStart);\n    currentState = State.investmentStop;\n  }\n\n  function startTicketSale() public onlyOwner {\n    require(currentState == State.investmentStop);\n    currentState = State.ticketSaleStart;\n  }\n\n  function _incrementTokenId() private {\n    _currentTokenId++;\n  }\n\n  function retrieve() public {\n    require(currentState == State.eventStart);\n    if (investors[msg.sender] > 0) {\n      etherBalance[msg.sender] += unitReturn.mul(investors[msg.sender]);\n    }\n    payable(msg.sender).transfer(etherBalance[msg.sender]);\n  }\n\n  // tickets need to put on sale first before it could be purchased\n  function toggleSale(uint256 _tokenId) public {\n    require(msg.sender == ownerOf(_tokenId));\n    Ticket storage tix = tickets[_tokenId];\n    tix.onSale = !tix.onSale;\n    emit saleToggled(_tokenId, tix.onSale);\n  }\n\n  // this function should be called by the buyer\n  function buyTicket(uint256 _tokenId) external payable {\n    Ticket storage tix = tickets[_tokenId];\n    require(tix.onSale == true);\n    require(msg.value >= tix.price, \"at least the ticket price\");\n    require(balanceOf(msg.sender) < _maxTicketNum, \"exceeded max number of tickets bought\");\n    address seller = ownerOf(_tokenId);\n    tix.onSale = false;\n    etherBalance[seller] += (msg.value).div(5).mul(3); //60%\n    vaultBalance += (msg.value).div(5).mul(2); //40%\n    _safeTransfer(seller, msg.sender, _tokenId, \"\");\n    emit ticketTransferred(_tokenId, msg.sender);\n    emit saleToggled(_tokenId, false);\n  }\n\n  function getTicketsLength() public view returns(uint) {\n    return tickets.length;\n  }\n\n  event ticketTransferred(uint256 _id, address _owner); //show the address of new owner\n  event saleToggled(uint256 _id, bool state); //show whether ticket is on sale\n  event ticketCreated(uint256 _id, uint256 _price, string _tokenURI);\n\n}\n",
  "sourcePath": "/Users/mm-mac/Desktop/mm-projects-blockchain/kaijun-ticketing/blockchain-ticketing/contracts/Marketplace.sol",
  "compiler": {
    "name": "solc",
    "version": "0.8.7+commit.e28d00a7.Emscripten.clang"
  },
  "schemaVersion": "3.2.3",
  "updatedAt": "2021-10-12T18:04:24.897Z",
  "networkType": "ethereum",
  "devdoc": {
    "kind": "dev",
    "methods": {
      "approve(address,uint256)": {
        "details": "See {IERC721-approve}."
      },
      "balanceOf(address)": {
        "details": "See {IERC721-balanceOf}."
      },
      "getApproved(uint256)": {
        "details": "See {IERC721-getApproved}."
      },
      "isApprovedForAll(address,address)": {
        "details": "See {IERC721-isApprovedForAll}."
      },
      "name()": {
        "details": "See {IERC721Metadata-name}."
      },
      "owner()": {
        "details": "Returns the address of the current owner."
      },
      "ownerOf(uint256)": {
        "details": "See {IERC721-ownerOf}."
      },
      "renounceOwnership()": {
        "details": "Leaves the contract without owner. It will not be possible to call `onlyOwner` functions anymore. Can only be called by the current owner. NOTE: Renouncing ownership will leave the contract without an owner, thereby removing any functionality that is only available to the owner."
      },
      "safeTransferFrom(address,address,uint256)": {
        "details": "See {IERC721-safeTransferFrom}."
      },
      "safeTransferFrom(address,address,uint256,bytes)": {
        "details": "See {IERC721-safeTransferFrom}."
      },
      "setApprovalForAll(address,bool)": {
        "details": "See {IERC721-setApprovalForAll}."
      },
      "supportsInterface(bytes4)": {
        "details": "See {IERC165-supportsInterface}."
      },
      "symbol()": {
        "details": "See {IERC721Metadata-symbol}."
      },
      "tokenURI(uint256)": {
        "details": "See {IERC721Metadata-tokenURI}."
      },
      "transferFrom(address,address,uint256)": {
        "details": "See {IERC721-transferFrom}."
      },
      "transferOwnership(address)": {
        "details": "Transfers ownership of the contract to a new account (`newOwner`). Can only be called by the current owner."
      }
    },
    "version": 1
  },
  "userdoc": {
    "kind": "user",
    "methods": {},
    "version": 1
  }
}