{
  "contractName": "Marketplace",
  "abi": [
    {
      "inputs": [],
      "stateMutability": "nonpayable",
      "type": "constructor"
    },
    {
      "anonymous": false,
      "inputs": [
        {
          "indexed": true,
          "internalType": "address",
          "name": "owner",
          "type": "address"
        },
        {
          "indexed": true,
          "internalType": "address",
          "name": "approved",
          "type": "address"
        },
        {
          "indexed": true,
          "internalType": "uint256",
          "name": "tokenId",
          "type": "uint256"
        }
      ],
      "name": "Approval",
      "type": "event"
    },
    {
      "anonymous": false,
      "inputs": [
        {
          "indexed": true,
          "internalType": "address",
          "name": "owner",
          "type": "address"
        },
        {
          "indexed": true,
          "internalType": "address",
          "name": "operator",
          "type": "address"
        },
        {
          "indexed": false,
          "internalType": "bool",
          "name": "approved",
          "type": "bool"
        }
      ],
      "name": "ApprovalForAll",
      "type": "event"
    },
    {
      "anonymous": false,
      "inputs": [
        {
          "indexed": true,
          "internalType": "address",
          "name": "previousOwner",
          "type": "address"
        },
        {
          "indexed": true,
          "internalType": "address",
          "name": "newOwner",
          "type": "address"
        }
      ],
      "name": "OwnershipTransferred",
      "type": "event"
    },
    {
      "anonymous": false,
      "inputs": [
        {
          "indexed": true,
          "internalType": "address",
          "name": "from",
          "type": "address"
        },
        {
          "indexed": true,
          "internalType": "address",
          "name": "to",
          "type": "address"
        },
        {
          "indexed": true,
          "internalType": "uint256",
          "name": "tokenId",
          "type": "uint256"
        }
      ],
      "name": "Transfer",
      "type": "event"
    },
    {
      "anonymous": false,
      "inputs": [
        {
          "indexed": false,
          "internalType": "uint256",
          "name": "_id",
          "type": "uint256"
        },
        {
          "indexed": false,
          "internalType": "bool",
          "name": "state",
          "type": "bool"
        }
      ],
      "name": "saleToggled",
      "type": "event"
    },
    {
      "anonymous": false,
      "inputs": [
        {
          "indexed": false,
          "internalType": "uint256",
          "name": "_id",
          "type": "uint256"
        },
        {
          "indexed": false,
          "internalType": "uint256",
          "name": "_price",
          "type": "uint256"
        },
        {
          "indexed": false,
          "internalType": "string",
          "name": "_tokenURI",
          "type": "string"
        }
      ],
      "name": "ticketCreated",
      "type": "event"
    },
    {
      "anonymous": false,
      "inputs": [
        {
          "indexed": false,
          "internalType": "uint256",
          "name": "_id",
          "type": "uint256"
        },
        {
          "indexed": false,
          "internalType": "address",
          "name": "_owner",
          "type": "address"
        }
      ],
      "name": "ticketTransferred",
      "type": "event"
    },
    {
      "inputs": [
        {
          "internalType": "address",
          "name": "to",
          "type": "address"
        },
        {
          "internalType": "uint256",
          "name": "tokenId",
          "type": "uint256"
        }
      ],
      "name": "approve",
      "outputs": [],
      "stateMutability": "nonpayable",
      "type": "function"
    },
    {
      "inputs": [
        {
          "internalType": "address",
          "name": "owner",
          "type": "address"
        }
      ],
      "name": "balanceOf",
      "outputs": [
        {
          "internalType": "uint256",
          "name": "",
          "type": "uint256"
        }
      ],
      "stateMutability": "view",
      "type": "function"
    },
    {
      "inputs": [],
      "name": "currentState",
      "outputs": [
        {
          "internalType": "enum Marketplace.State",
          "name": "",
          "type": "uint8"
        }
      ],
      "stateMutability": "view",
      "type": "function"
    },
    {
      "inputs": [
        {
          "internalType": "uint256",
          "name": "tokenId",
          "type": "uint256"
        }
      ],
      "name": "getApproved",
      "outputs": [
        {
          "internalType": "address",
          "name": "",
          "type": "address"
        }
      ],
      "stateMutability": "view",
      "type": "function"
    },
    {
      "inputs": [],
      "name": "investmentPrice",
      "outputs": [
        {
          "internalType": "uint256",
          "name": "",
          "type": "uint256"
        }
      ],
      "stateMutability": "view",
      "type": "function"
    },
    {
      "inputs": [
        {
          "internalType": "address",
          "name": "",
          "type": "address"
        }
      ],
      "name": "investors",
      "outputs": [
        {
          "internalType": "uint256",
          "name": "",
          "type": "uint256"
        }
      ],
      "stateMutability": "view",
      "type": "function"
    },
    {
      "inputs": [
        {
          "internalType": "address",
          "name": "owner",
          "type": "address"
        },
        {
          "internalType": "address",
          "name": "operator",
          "type": "address"
        }
      ],
      "name": "isApprovedForAll",
      "outputs": [
        {
          "internalType": "bool",
          "name": "",
          "type": "bool"
        }
      ],
      "stateMutability": "view",
      "type": "function"
    },
    {
      "inputs": [],
      "name": "name",
      "outputs": [
        {
          "internalType": "string",
          "name": "",
          "type": "string"
        }
      ],
      "stateMutability": "view",
      "type": "function"
    },
    {
      "inputs": [],
      "name": "owner",
      "outputs": [
        {
          "internalType": "address",
          "name": "",
          "type": "address"
        }
      ],
      "stateMutability": "view",
      "type": "function"
    },
    {
      "inputs": [
        {
          "internalType": "uint256",
          "name": "tokenId",
          "type": "uint256"
        }
      ],
      "name": "ownerOf",
      "outputs": [
        {
          "internalType": "address",
          "name": "",
          "type": "address"
        }
      ],
      "stateMutability": "view",
      "type": "function"
    },
    {
      "inputs": [],
      "name": "renounceOwnership",
      "outputs": [],
      "stateMutability": "nonpayable",
      "type": "function"
    },
    {
      "inputs": [
        {
          "internalType": "address",
          "name": "from",
          "type": "address"
        },
        {
          "internalType": "address",
          "name": "to",
          "type": "address"
        },
        {
          "internalType": "uint256",
          "name": "tokenId",
          "type": "uint256"
        }
      ],
      "name": "safeTransferFrom",
      "outputs": [],
      "stateMutability": "nonpayable",
      "type": "function"
    },
    {
      "inputs": [
        {
          "internalType": "address",
          "name": "from",
          "type": "address"
        },
        {
          "internalType": "address",
          "name": "to",
          "type": "address"
        },
        {
          "internalType": "uint256",
          "name": "tokenId",
          "type": "uint256"
        },
        {
          "internalType": "bytes",
          "name": "_data",
          "type": "bytes"
        }
      ],
      "name": "safeTransferFrom",
      "outputs": [],
      "stateMutability": "nonpayable",
      "type": "function"
    },
    {
      "inputs": [
        {
          "internalType": "address",
          "name": "operator",
          "type": "address"
        },
        {
          "internalType": "bool",
          "name": "approved",
          "type": "bool"
        }
      ],
      "name": "setApprovalForAll",
      "outputs": [],
      "stateMutability": "nonpayable",
      "type": "function"
    },
    {
      "inputs": [
        {
          "internalType": "bytes4",
          "name": "interfaceId",
          "type": "bytes4"
        }
      ],
      "name": "supportsInterface",
      "outputs": [
        {
          "internalType": "bool",
          "name": "",
          "type": "bool"
        }
      ],
      "stateMutability": "view",
      "type": "function"
    },
    {
      "inputs": [],
      "name": "symbol",
      "outputs": [
        {
          "internalType": "string",
          "name": "",
          "type": "string"
        }
      ],
      "stateMutability": "view",
      "type": "function"
    },
    {
      "inputs": [
        {
          "internalType": "uint256",
          "name": "",
          "type": "uint256"
        }
      ],
      "name": "tickets",
      "outputs": [
        {
          "internalType": "uint256",
          "name": "maxPrice",
          "type": "uint256"
        },
        {
          "internalType": "uint256",
          "name": "price",
          "type": "uint256"
        },
        {
          "internalType": "bool",
          "name": "onSale",
          "type": "bool"
        }
      ],
      "stateMutability": "view",
      "type": "function"
    },
    {
      "inputs": [
        {
          "internalType": "uint256",
          "name": "tokenId",
          "type": "uint256"
        }
      ],
      "name": "tokenURI",
      "outputs": [
        {
          "internalType": "string",
          "name": "",
          "type": "string"
        }
      ],
      "stateMutability": "view",
      "type": "function"
    },
    {
      "inputs": [
        {
          "internalType": "address",
          "name": "from",
          "type": "address"
        },
        {
          "internalType": "address",
          "name": "to",
          "type": "address"
        },
        {
          "internalType": "uint256",
          "name": "tokenId",
          "type": "uint256"
        }
      ],
      "name": "transferFrom",
      "outputs": [],
      "stateMutability": "nonpayable",
      "type": "function"
    },
    {
      "inputs": [
        {
          "internalType": "address",
          "name": "newOwner",
          "type": "address"
        }
      ],
      "name": "transferOwnership",
      "outputs": [],
      "stateMutability": "nonpayable",
      "type": "function"
    },
    {
      "inputs": [],
      "name": "unitReturn",
      "outputs": [
        {
          "internalType": "uint256",
          "name": "",
          "type": "uint256"
        }
      ],
      "stateMutability": "view",
      "type": "function"
    },
    {
      "inputs": [],
      "name": "vaultBalance",
      "outputs": [
        {
          "internalType": "uint256",
          "name": "",
          "type": "uint256"
        }
      ],
      "stateMutability": "view",
      "type": "function"
    },
    {
      "inputs": [
        {
          "internalType": "uint256",
          "name": "_price",
          "type": "uint256"
        },
        {
          "internalType": "uint256",
          "name": "_maxPrice",
          "type": "uint256"
        },
        {
          "internalType": "string",
          "name": "_tokenURI",
          "type": "string"
        }
      ],
      "name": "createTicket",
      "outputs": [],
      "stateMutability": "nonpayable",
      "type": "function"
    },
    {
      "inputs": [
        {
          "internalType": "uint256",
          "name": "_number",
          "type": "uint256"
        }
      ],
      "name": "invest",
      "outputs": [],
      "stateMutability": "payable",
      "type": "function"
    },
    {
      "inputs": [],
      "name": "withdraw",
      "outputs": [],
      "stateMutability": "nonpayable",
      "type": "function"
    },
    {
      "inputs": [],
      "name": "getContractBalance",
      "outputs": [
        {
          "internalType": "uint256",
          "name": "",
          "type": "uint256"
        }
      ],
      "stateMutability": "view",
      "type": "function"
    },
    {
      "inputs": [
        {
          "internalType": "uint256",
          "name": "_tokenId",
          "type": "uint256"
        },
        {
          "internalType": "uint256",
          "name": "_newPrice",
          "type": "uint256"
        },
        {
          "internalType": "string",
          "name": "_tokenURI",
          "type": "string"
        }
      ],
      "name": "changeTicketPrice",
      "outputs": [],
      "stateMutability": "nonpayable",
      "type": "function"
    },
    {
      "inputs": [],
      "name": "startEvent",
      "outputs": [],
      "stateMutability": "nonpayable",
      "type": "function"
    },
    {
      "inputs": [],
      "name": "startInvestment",
      "outputs": [],
      "stateMutability": "nonpayable",
      "type": "function"
    },
    {
      "inputs": [],
      "name": "stopInvestment",
      "outputs": [],
      "stateMutability": "nonpayable",
      "type": "function"
    },
    {
      "inputs": [],
      "name": "startTicketSale",
      "outputs": [],
      "stateMutability": "nonpayable",
      "type": "function"
    },
    {
      "inputs": [],
      "name": "retrieve",
      "outputs": [],
      "stateMutability": "nonpayable",
      "type": "function"
    },
    {
      "inputs": [
        {
          "internalType": "uint256",
          "name": "_tokenId",
          "type": "uint256"
        }
      ],
      "name": "toggleSale",
      "outputs": [],
      "stateMutability": "nonpayable",
      "type": "function"
    },
    {
      "inputs": [
        {
          "internalType": "uint256",
          "name": "_tokenId",
          "type": "uint256"
        }
      ],
      "name": "buyTicket",
      "outputs": [],
      "stateMutability": "payable",
      "type": "function"
    },
    {
      "inputs": [],
      "name": "getTicketsLength",
      "outputs": [
        {
          "internalType": "uint256",
          "name": "",
          "type": "uint256"
        }
      ],
      "stateMutability": "view",
      "type": "function"
    }
  ],
  "bytecode": "0x60806040526000600860006101000a81548160ff021916908360048111156200002d576200002c62000331565b5b02179055506000600955600a600d5560006011553480156200004e57600080fd5b506040518060400160405280600b81526020017f4e4654205469636b6574730000000000000000000000000000000000000000008152506040518060400160405280600381526020017f5449580000000000000000000000000000000000000000000000000000000000815250620000db620000cf6200016360201b60201c565b6200016b60201b60201c565b8160019080519060200190620000f39291906200024b565b5080600290805190602001906200010c9291906200024b565b505050601e600f819055506200015d6040518060400160405280601c81526020017f68747470733a2f2f697066732e696e667572612e696f2f697066732f000000008152506200022f60201b60201c565b6200038f565b600033905090565b60008060009054906101000a900473ffffffffffffffffffffffffffffffffffffffff169050816000806101000a81548173ffffffffffffffffffffffffffffffffffffffff021916908373ffffffffffffffffffffffffffffffffffffffff1602179055508173ffffffffffffffffffffffffffffffffffffffff168173ffffffffffffffffffffffffffffffffffffffff167f8be0079c531659141344cd1fd0a4f28419497f9722a3daafe3b4186f6b6457e060405160405180910390a35050565b80600e9080519060200190620002479291906200024b565b5050565b8280546200025990620002fb565b90600052602060002090601f0160209004810192826200027d5760008555620002c9565b82601f106200029857805160ff1916838001178555620002c9565b82800160010185558215620002c9579182015b82811115620002c8578251825591602001919060010190620002ab565b5b509050620002d89190620002dc565b5090565b5b80821115620002f7576000816000905550600101620002dd565b5090565b600060028204905060018216806200031457607f821691505b602082108114156200032b576200032a62000360565b5b50919050565b7f4e487b7100000000000000000000000000000000000000000000000000000000600052602160045260246000fd5b7f4e487b7100000000000000000000000000000000000000000000000000000000600052602260045260246000fd5b61458e806200039f6000396000f3fe6080604052600436106102045760003560e01c80636f7bc9be11610118578063b88d4fde116100a0578063e2fd38e91161006f578063e2fd38e9146106f1578063e4470b3e14610708578063e72f984314610731578063e985e9c51461075a578063f2fde38b1461079757610204565b8063b88d4fde1461065d578063c059dade14610686578063c43d8aa61461069d578063c87b56dd146106b457610204565b80638da5cb5b116100e75780638da5cb5b14610588578063924fdcb1146105b357806395d89b41146105de578063983d7f4514610609578063a22cb4651461063457610204565b80636f7bc9be146104cc5780636f9fb98a1461050957806370a0823114610534578063715018a61461057157610204565b80632e64cec11161019b5780634fcf99501161016a5780634fcf9950146103e057806350b447121461040b5780635338e1631461044a5780636352211e1461047357806367dd74ca146104b057610204565b80632e64cec1146103725780633ccfd60b1461038957806342842e0e146103a057806348c724ed146103c957610204565b80630bf6cc08116101d75780630bf6cc08146102d75780630c3f6acf1461030257806323b872dd1461032d5780632afcf4801461035657610204565b806301ffc9a71461020957806306fdde0314610246578063081812fc14610271578063095ea7b3146102ae575b600080fd5b34801561021557600080fd5b50610230600480360381019061022b919061313c565b6107c0565b60405161023d919061367b565b60405180910390f35b34801561025257600080fd5b5061025b6108a2565b60405161026891906136b1565b60405180910390f35b34801561027d57600080fd5b5061029860048036038101906102939190613196565b610934565b6040516102a59190613614565b60405180910390f35b3480156102ba57600080fd5b506102d560048036038101906102d091906130fc565b6109b9565b005b3480156102e357600080fd5b506102ec610ad1565b6040516102f99190613973565b60405180910390f35b34801561030e57600080fd5b50610317610ad7565b6040516103249190613696565b60405180910390f35b34801561033957600080fd5b50610354600480360381019061034f9190612fe6565b610aea565b005b610370600480360381019061036b9190613196565b610b4a565b005b34801561037e57600080fd5b50610387610c3a565b005b34801561039557600080fd5b5061039e610df3565b005b3480156103ac57600080fd5b506103c760048036038101906103c29190612fe6565b610ef8565b005b3480156103d557600080fd5b506103de610f18565b005b3480156103ec57600080fd5b506103f5611001565b6040516104029190613973565b60405180910390f35b34801561041757600080fd5b50610432600480360381019061042d9190613196565b611007565b604051610441939291906139e0565b60405180910390f35b34801561045657600080fd5b50610471600480360381019061046c91906131c3565b61104e565b005b34801561047f57600080fd5b5061049a60048036038101906104959190613196565b611113565b6040516104a79190613614565b60405180910390f35b6104ca60048036038101906104c59190613196565b6111c5565b005b3480156104d857600080fd5b506104f360048036038101906104ee9190612f79565b611458565b6040516105009190613973565b60405180910390f35b34801561051557600080fd5b5061051e611470565b60405161052b9190613973565b60405180910390f35b34801561054057600080fd5b5061055b60048036038101906105569190612f79565b611478565b6040516105689190613973565b60405180910390f35b34801561057d57600080fd5b50610586611530565b005b34801561059457600080fd5b5061059d6115b8565b6040516105aa9190613614565b60405180910390f35b3480156105bf57600080fd5b506105c86115e1565b6040516105d59190613973565b60405180910390f35b3480156105ea57600080fd5b506105f36115e7565b60405161060091906136b1565b60405180910390f35b34801561061557600080fd5b5061061e611679565b60405161062b9190613973565b60405180910390f35b34801561064057600080fd5b5061065b600480360381019061065691906130bc565b611686565b005b34801561066957600080fd5b50610684600480360381019061067f9190613039565b611807565b005b34801561069257600080fd5b5061069b611869565b005b3480156106a957600080fd5b506106b2611952565b005b3480156106c057600080fd5b506106db60048036038101906106d69190613196565b611a3b565b6040516106e891906136b1565b60405180910390f35b3480156106fd57600080fd5b50610706611b8d565b005b34801561071457600080fd5b5061072f600480360381019061072a91906131c3565b611c93565b005b34801561073d57600080fd5b5061075860048036038101906107539190613196565b611e30565b005b34801561076657600080fd5b50610781600480360381019061077c9190612fa6565b611f12565b60405161078e919061367b565b60405180910390f35b3480156107a357600080fd5b506107be60048036038101906107b99190612f79565b611fa6565b005b60007f80ac58cd000000000000000000000000000000000000000000000000000000007bffffffffffffffffffffffffffffffffffffffffffffffffffffffff1916827bffffffffffffffffffffffffffffffffffffffffffffffffffffffff1916148061088b57507f5b5e139f000000000000000000000000000000000000000000000000000000007bffffffffffffffffffffffffffffffffffffffffffffffffffffffff1916827bffffffffffffffffffffffffffffffffffffffffffffffffffffffff1916145b8061089b575061089a8261209e565b5b9050919050565b6060600180546108b190613d0f565b80601f01602080910402602001604051908101604052809291908181526020018280546108dd90613d0f565b801561092a5780601f106108ff5761010080835404028352916020019161092a565b820191906000526020600020905b81548152906001019060200180831161090d57829003601f168201915b5050505050905090565b600061093f82612108565b61097e576040517f08c379a000000000000000000000000000000000000000000000000000000000815260040161097590613853565b60405180910390fd5b6005600083815260200190815260200160002060009054906101000a900473ffffffffffffffffffffffffffffffffffffffff169050919050565b60006109c482611113565b90508073ffffffffffffffffffffffffffffffffffffffff168373ffffffffffffffffffffffffffffffffffffffff161415610a35576040517f08c379a0000000000000000000000000000000000000000000000000000000008152600401610a2c906138f3565b60405180910390fd5b8073ffffffffffffffffffffffffffffffffffffffff16610a54612174565b73ffffffffffffffffffffffffffffffffffffffff161480610a835750610a8281610a7d612174565b611f12565b5b610ac2576040517f08c379a0000000000000000000000000000000000000000000000000000000008152600401610ab990613793565b60405180910390fd5b610acc838361217c565b505050565b600c5481565b600860009054906101000a900460ff1681565b610afb610af5612174565b82612235565b610b3a576040517f08c379a0000000000000000000000000000000000000000000000000000000008152600401610b3190613953565b60405180910390fd5b610b45838383612313565b505050565b60016004811115610b5e57610b5d613e4a565b5b600860009054906101000a900460ff166004811115610b8057610b7f613e4a565b5b14610b8a57600080fd5b610b9f81600f5461256f90919063ffffffff16565b3414610baa57600080fd5b610bc0600160095461258590919063ffffffff16565b60115482610bce9190613b1f565b10610bd857600080fd5b610be18161259b565b80601260003373ffffffffffffffffffffffffffffffffffffffff1673ffffffffffffffffffffffffffffffffffffffff1681526020019081526020016000206000828254610c309190613b1f565b9250508190555050565b600480811115610c4d57610c4c613e4a565b5b600860009054906101000a900460ff166004811115610c6f57610c6e613e4a565b5b14610c7957600080fd5b6000601260003373ffffffffffffffffffffffffffffffffffffffff1673ffffffffffffffffffffffffffffffffffffffff168152602001908152602001600020541115610d6b57610d15601260003373ffffffffffffffffffffffffffffffffffffffff1673ffffffffffffffffffffffffffffffffffffffff1681526020019081526020016000205460105461256f90919063ffffffff16565b600b60003373ffffffffffffffffffffffffffffffffffffffff1673ffffffffffffffffffffffffffffffffffffffff1681526020019081526020016000206000828254610d639190613b1f565b925050819055505b3373ffffffffffffffffffffffffffffffffffffffff166108fc600b60003373ffffffffffffffffffffffffffffffffffffffff1673ffffffffffffffffffffffffffffffffffffffff168152602001908152602001600020549081150290604051600060405180830381858888f19350505050158015610df0573d6000803e3d6000fd5b50565b610dfb612174565b73ffffffffffffffffffffffffffffffffffffffff16610e196115b8565b73ffffffffffffffffffffffffffffffffffffffff1614610e6f576040517f08c379a0000000000000000000000000000000000000000000000000000000008152600401610e6690613873565b60405180910390fd5b60026004811115610e8357610e82613e4a565b5b600860009054906101000a900460ff166004811115610ea557610ea4613e4a565b5b14610eaf57600080fd5b3373ffffffffffffffffffffffffffffffffffffffff166108fc479081150290604051600060405180830381858888f19350505050158015610ef5573d6000803e3d6000fd5b50565b610f1383838360405180602001604052806000815250611807565b505050565b610f20612174565b73ffffffffffffffffffffffffffffffffffffffff16610f3e6115b8565b73ffffffffffffffffffffffffffffffffffffffff1614610f94576040517f08c379a0000000000000000000000000000000000000000000000000000000008152600401610f8b90613873565b60405180910390fd5b60026004811115610fa857610fa7613e4a565b5b600860009054906101000a900460ff166004811115610fca57610fc9613e4a565b5b14610fd457600080fd5b6003600860006101000a81548160ff02191690836004811115610ffa57610ff9613e4a565b5b0217905550565b600f5481565b600a818154811061101757600080fd5b90600052602060002090600302016000915090508060000154908060010154908060020160009054906101000a900460ff16905083565b61105783611113565b73ffffffffffffffffffffffffffffffffffffffff163373ffffffffffffffffffffffffffffffffffffffff161461108e57600080fd5b6000600a84815481106110a4576110a3613ea8565b5b90600052602060002090600302019050806000015483106110fa576040517f08c379a00000000000000000000000000000000000000000000000000000000081526004016110f1906138d3565b60405180910390fd5b82816001018190555061110d84836125b2565b50505050565b6000806003600084815260200190815260200160002060009054906101000a900473ffffffffffffffffffffffffffffffffffffffff169050600073ffffffffffffffffffffffffffffffffffffffff168173ffffffffffffffffffffffffffffffffffffffff1614156111bc576040517f08c379a00000000000000000000000000000000000000000000000000000000081526004016111b3906137d3565b60405180910390fd5b80915050919050565b600360048111156111d9576111d8613e4a565b5b600860009054906101000a900460ff1660048111156111fb576111fa613e4a565b5b1461120557600080fd5b6000600a828154811061121b5761121a613ea8565b5b90600052602060002090600302019050600115158160020160009054906101000a900460ff1615151461124d57600080fd5b8060010154341015611294576040517f08c379a000000000000000000000000000000000000000000000000000000000815260040161128b90613913565b60405180910390fd5b600d546112a033611478565b106112e0576040517f08c379a00000000000000000000000000000000000000000000000000000000081526004016112d790613933565b60405180910390fd5b60006112eb83611113565b905060008260020160006101000a81548160ff021916908315150217905550611331600361132360053461262690919063ffffffff16565b61256f90919063ffffffff16565b600b60008373ffffffffffffffffffffffffffffffffffffffff1673ffffffffffffffffffffffffffffffffffffffff168152602001908152602001600020600082825461137f9190613b1f565b925050819055506113ad600261139f60053461262690919063ffffffff16565b61256f90919063ffffffff16565b600c60008282546113be9190613b1f565b925050819055506113e08133856040518060200160405280600081525061263c565b7f1a16bc699ce0f6ccd4b93e7dc6f592ff10f75af2aa2e0a7346adbc317943749a833360405161141192919061398e565b60405180910390a17f1f52727099fd6031c06d28983d4d89fb813bb324aa3098ed1d15bb91a2b4b7e383600060405161144b9291906139b7565b60405180910390a1505050565b60126020528060005260406000206000915090505481565b600047905090565b60008073ffffffffffffffffffffffffffffffffffffffff168273ffffffffffffffffffffffffffffffffffffffff1614156114e9576040517f08c379a00000000000000000000000000000000000000000000000000000000081526004016114e0906137b3565b60405180910390fd5b600460008373ffffffffffffffffffffffffffffffffffffffff1673ffffffffffffffffffffffffffffffffffffffff168152602001908152602001600020549050919050565b611538612174565b73ffffffffffffffffffffffffffffffffffffffff166115566115b8565b73ffffffffffffffffffffffffffffffffffffffff16146115ac576040517f08c379a00000000000000000000000000000000000000000000000000000000081526004016115a390613873565b60405180910390fd5b6115b66000612698565b565b60008060009054906101000a900473ffffffffffffffffffffffffffffffffffffffff16905090565b60105481565b6060600280546115f690613d0f565b80601f016020809104026020016040519081016040528092919081815260200182805461162290613d0f565b801561166f5780601f106116445761010080835404028352916020019161166f565b820191906000526020600020905b81548152906001019060200180831161165257829003601f168201915b5050505050905090565b6000600a80549050905090565b61168e612174565b73ffffffffffffffffffffffffffffffffffffffff168273ffffffffffffffffffffffffffffffffffffffff1614156116fc576040517f08c379a00000000000000000000000000000000000000000000000000000000081526004016116f390613753565b60405180910390fd5b8060066000611709612174565b73ffffffffffffffffffffffffffffffffffffffff1673ffffffffffffffffffffffffffffffffffffffff16815260200190815260200160002060008473ffffffffffffffffffffffffffffffffffffffff1673ffffffffffffffffffffffffffffffffffffffff16815260200190815260200160002060006101000a81548160ff0219169083151502179055508173ffffffffffffffffffffffffffffffffffffffff166117b6612174565b73ffffffffffffffffffffffffffffffffffffffff167f17307eab39ab6107e8899845ad3d59bd9653f200f220920489ca2b5937696c31836040516117fb919061367b565b60405180910390a35050565b611818611812612174565b83612235565b611857576040517f08c379a000000000000000000000000000000000000000000000000000000000815260040161184e90613953565b60405180910390fd5b6118638484848461263c565b50505050565b611871612174565b73ffffffffffffffffffffffffffffffffffffffff1661188f6115b8565b73ffffffffffffffffffffffffffffffffffffffff16146118e5576040517f08c379a00000000000000000000000000000000000000000000000000000000081526004016118dc90613873565b60405180910390fd5b600160048111156118f9576118f8613e4a565b5b600860009054906101000a900460ff16600481111561191b5761191a613e4a565b5b1461192557600080fd5b6002600860006101000a81548160ff0219169083600481111561194b5761194a613e4a565b5b0217905550565b61195a612174565b73ffffffffffffffffffffffffffffffffffffffff166119786115b8565b73ffffffffffffffffffffffffffffffffffffffff16146119ce576040517f08c379a00000000000000000000000000000000000000000000000000000000081526004016119c590613873565b60405180910390fd5b600060048111156119e2576119e1613e4a565b5b600860009054906101000a900460ff166004811115611a0457611a03613e4a565b5b14611a0e57600080fd5b6001600860006101000a81548160ff02191690836004811115611a3457611a33613e4a565b5b0217905550565b6060611a4682612108565b611a85576040517f08c379a0000000000000000000000000000000000000000000000000000000008152600401611a7c90613833565b60405180910390fd5b6000600760008481526020019081526020016000208054611aa590613d0f565b80601f0160208091040260200160405190810160405280929190818152602001828054611ad190613d0f565b8015611b1e5780601f10611af357610100808354040283529160200191611b1e565b820191906000526020600020905b815481529060010190602001808311611b0157829003601f168201915b505050505090506000611b2f61275c565b9050600081511415611b45578192505050611b88565b600082511115611b7a578082604051602001611b629291906135f0565b60405160208183030381529060405292505050611b88565b611b83846127ee565b925050505b919050565b611b95612174565b73ffffffffffffffffffffffffffffffffffffffff16611bb36115b8565b73ffffffffffffffffffffffffffffffffffffffff1614611c09576040517f08c379a0000000000000000000000000000000000000000000000000000000008152600401611c0090613873565b60405180910390fd5b60036004811115611c1d57611c1c613e4a565b5b600860009054906101000a900460ff166004811115611c3f57611c3e613e4a565b5b14611c4957600080fd5b6004600860006101000a81548160ff02191690836004811115611c6f57611c6e613e4a565b5b0217905550611c8b601154600c5461262690919063ffffffff16565b601081905550565b611c9b612174565b73ffffffffffffffffffffffffffffffffffffffff16611cb96115b8565b73ffffffffffffffffffffffffffffffffffffffff1614611d0f576040517f08c379a0000000000000000000000000000000000000000000000000000000008152600401611d0690613873565b60405180910390fd5b60006004811115611d2357611d22613e4a565b5b600860009054906101000a900460ff166004811115611d4557611d44613e4a565b5b14611d4f57600080fd5b611d5b33600954612895565b600a6040518060600160405280848152602001858152602001600115158152509080600181540180825580915050600190039060005260206000209060030201600090919091909150600082015181600001556020820151816001015560408201518160020160006101000a81548160ff0219169083151502179055505050611de6600954826125b2565b7f06ab0413adb04220056e8334cf2856a1fb7fef4c0f785aadeb34e4307af44fc06009548483604051611e1b93929190613a17565b60405180910390a1611e2b612a63565b505050565b611e3981611113565b73ffffffffffffffffffffffffffffffffffffffff163373ffffffffffffffffffffffffffffffffffffffff1614611e7057600080fd5b6000600a8281548110611e8657611e85613ea8565b5b906000526020600020906003020190508060020160009054906101000a900460ff16158160020160006101000a81548160ff0219169083151502179055507f1f52727099fd6031c06d28983d4d89fb813bb324aa3098ed1d15bb91a2b4b7e3828260020160009054906101000a900460ff16604051611f069291906139b7565b60405180910390a15050565b6000600660008473ffffffffffffffffffffffffffffffffffffffff1673ffffffffffffffffffffffffffffffffffffffff16815260200190815260200160002060008373ffffffffffffffffffffffffffffffffffffffff1673ffffffffffffffffffffffffffffffffffffffff16815260200190815260200160002060009054906101000a900460ff16905092915050565b611fae612174565b73ffffffffffffffffffffffffffffffffffffffff16611fcc6115b8565b73ffffffffffffffffffffffffffffffffffffffff1614612022576040517f08c379a000000000000000000000000000000000000000000000000000000000815260040161201990613873565b60405180910390fd5b600073ffffffffffffffffffffffffffffffffffffffff168173ffffffffffffffffffffffffffffffffffffffff161415612092576040517f08c379a0000000000000000000000000000000000000000000000000000000008152600401612089906136f3565b60405180910390fd5b61209b81612698565b50565b60007f01ffc9a7000000000000000000000000000000000000000000000000000000007bffffffffffffffffffffffffffffffffffffffffffffffffffffffff1916827bffffffffffffffffffffffffffffffffffffffffffffffffffffffff1916149050919050565b60008073ffffffffffffffffffffffffffffffffffffffff166003600084815260200190815260200160002060009054906101000a900473ffffffffffffffffffffffffffffffffffffffff1673ffffffffffffffffffffffffffffffffffffffff1614159050919050565b600033905090565b816005600083815260200190815260200160002060006101000a81548173ffffffffffffffffffffffffffffffffffffffff021916908373ffffffffffffffffffffffffffffffffffffffff160217905550808273ffffffffffffffffffffffffffffffffffffffff166121ef83611113565b73ffffffffffffffffffffffffffffffffffffffff167f8c5be1e5ebec7d5bd14f71427d1e84f3dd0314c0f7b2291e5b200ac8c7c3b92560405160405180910390a45050565b600061224082612108565b61227f576040517f08c379a000000000000000000000000000000000000000000000000000000000815260040161227690613773565b60405180910390fd5b600061228a83611113565b90508073ffffffffffffffffffffffffffffffffffffffff168473ffffffffffffffffffffffffffffffffffffffff1614806122f957508373ffffffffffffffffffffffffffffffffffffffff166122e184610934565b73ffffffffffffffffffffffffffffffffffffffff16145b8061230a57506123098185611f12565b5b91505092915050565b8273ffffffffffffffffffffffffffffffffffffffff1661233382611113565b73ffffffffffffffffffffffffffffffffffffffff1614612389576040517f08c379a000000000000000000000000000000000000000000000000000000000815260040161238090613893565b60405180910390fd5b600073ffffffffffffffffffffffffffffffffffffffff168273ffffffffffffffffffffffffffffffffffffffff1614156123f9576040517f08c379a00000000000000000000000000000000000000000000000000000000081526004016123f090613733565b60405180910390fd5b612404838383612a7d565b61240f60008261217c565b6001600460008573ffffffffffffffffffffffffffffffffffffffff1673ffffffffffffffffffffffffffffffffffffffff168152602001908152602001600020600082825461245f9190613c00565b925050819055506001600460008473ffffffffffffffffffffffffffffffffffffffff1673ffffffffffffffffffffffffffffffffffffffff16815260200190815260200160002060008282546124b69190613b1f565b92505081905550816003600083815260200190815260200160002060006101000a81548173ffffffffffffffffffffffffffffffffffffffff021916908373ffffffffffffffffffffffffffffffffffffffff160217905550808273ffffffffffffffffffffffffffffffffffffffff168473ffffffffffffffffffffffffffffffffffffffff167fddf252ad1be2c89b69c2b068fc378daa952ba7f163c4a11628f55a4df523b3ef60405160405180910390a4505050565b6000818361257d9190613ba6565b905092915050565b600081836125939190613b1f565b905092915050565b806011546125a99190613b1f565b60118190555050565b6125bb82612108565b6125fa576040517f08c379a00000000000000000000000000000000000000000000000000000000081526004016125f1906137f3565b60405180910390fd5b80600760008481526020019081526020016000209080519060200190612621929190612d8d565b505050565b600081836126349190613b75565b905092915050565b612647848484612313565b61265384848484612a82565b612692576040517f08c379a0000000000000000000000000000000000000000000000000000000008152600401612689906136d3565b60405180910390fd5b50505050565b60008060009054906101000a900473ffffffffffffffffffffffffffffffffffffffff169050816000806101000a81548173ffffffffffffffffffffffffffffffffffffffff021916908373ffffffffffffffffffffffffffffffffffffffff1602179055508173ffffffffffffffffffffffffffffffffffffffff168173ffffffffffffffffffffffffffffffffffffffff167f8be0079c531659141344cd1fd0a4f28419497f9722a3daafe3b4186f6b6457e060405160405180910390a35050565b6060600e805461276b90613d0f565b80601f016020809104026020016040519081016040528092919081815260200182805461279790613d0f565b80156127e45780601f106127b9576101008083540402835291602001916127e4565b820191906000526020600020905b8154815290600101906020018083116127c757829003601f168201915b5050505050905090565b60606127f982612108565b612838576040517f08c379a000000000000000000000000000000000000000000000000000000000815260040161282f906138b3565b60405180910390fd5b600061284261275c565b90506000815111612862576040518060200160405280600081525061288d565b8061286c84612c19565b60405160200161287d9291906135f0565b6040516020818303038152906040525b915050919050565b600073ffffffffffffffffffffffffffffffffffffffff168273ffffffffffffffffffffffffffffffffffffffff161415612905576040517f08c379a00000000000000000000000000000000000000000000000000000000081526004016128fc90613813565b60405180910390fd5b61290e81612108565b1561294e576040517f08c379a000000000000000000000000000000000000000000000000000000000815260040161294590613713565b60405180910390fd5b61295a60008383612a7d565b6001600460008473ffffffffffffffffffffffffffffffffffffffff1673ffffffffffffffffffffffffffffffffffffffff16815260200190815260200160002060008282546129aa9190613b1f565b92505081905550816003600083815260200190815260200160002060006101000a81548173ffffffffffffffffffffffffffffffffffffffff021916908373ffffffffffffffffffffffffffffffffffffffff160217905550808273ffffffffffffffffffffffffffffffffffffffff16600073ffffffffffffffffffffffffffffffffffffffff167fddf252ad1be2c89b69c2b068fc378daa952ba7f163c4a11628f55a4df523b3ef60405160405180910390a45050565b60096000815480929190612a7690613d72565b9190505550565b505050565b6000612aa38473ffffffffffffffffffffffffffffffffffffffff16612d7a565b15612c0c578373ffffffffffffffffffffffffffffffffffffffff1663150b7a02612acc612174565b8786866040518563ffffffff1660e01b8152600401612aee949392919061362f565b602060405180830381600087803b158015612b0857600080fd5b505af1925050508015612b3957506040513d601f19601f82011682018060405250810190612b369190613169565b60015b612bbc573d8060008114612b69576040519150601f19603f3d011682016040523d82523d6000602084013e612b6e565b606091505b50600081511415612bb4576040517f08c379a0000000000000000000000000000000000000000000000000000000008152600401612bab906136d3565b60405180910390fd5b805181602001fd5b63150b7a0260e01b7bffffffffffffffffffffffffffffffffffffffffffffffffffffffff1916817bffffffffffffffffffffffffffffffffffffffffffffffffffffffff191614915050612c11565b600190505b949350505050565b60606000821415612c61576040518060400160405280600181526020017f30000000000000000000000000000000000000000000000000000000000000008152509050612d75565b600082905060005b60008214612c93578080612c7c90613d72565b915050600a82612c8c9190613b75565b9150612c69565b60008167ffffffffffffffff811115612caf57612cae613ed7565b5b6040519080825280601f01601f191660200182016040528015612ce15781602001600182028036833780820191505090505b5090505b60008514612d6e57600182612cfa9190613c00565b9150600a85612d099190613dbb565b6030612d159190613b1f565b60f81b818381518110612d2b57612d2a613ea8565b5b60200101907effffffffffffffffffffffffffffffffffffffffffffffffffffffffffffff1916908160001a905350600a85612d679190613b75565b9450612ce5565b8093505050505b919050565b600080823b905060008111915050919050565b828054612d9990613d0f565b90600052602060002090601f016020900481019282612dbb5760008555612e02565b82601f10612dd457805160ff1916838001178555612e02565b82800160010185558215612e02579182015b82811115612e01578251825591602001919060010190612de6565b5b509050612e0f9190612e13565b5090565b5b80821115612e2c576000816000905550600101612e14565b5090565b6000612e43612e3e84613a7a565b613a55565b905082815260208101848484011115612e5f57612e5e613f0b565b5b612e6a848285613ccd565b509392505050565b6000612e85612e8084613aab565b613a55565b905082815260208101848484011115612ea157612ea0613f0b565b5b612eac848285613ccd565b509392505050565b600081359050612ec3816144fc565b92915050565b600081359050612ed881614513565b92915050565b600081359050612eed8161452a565b92915050565b600081519050612f028161452a565b92915050565b600082601f830112612f1d57612f1c613f06565b5b8135612f2d848260208601612e30565b91505092915050565b600082601f830112612f4b57612f4a613f06565b5b8135612f5b848260208601612e72565b91505092915050565b600081359050612f7381614541565b92915050565b600060208284031215612f8f57612f8e613f15565b5b6000612f9d84828501612eb4565b91505092915050565b60008060408385031215612fbd57612fbc613f15565b5b6000612fcb85828601612eb4565b9250506020612fdc85828601612eb4565b9150509250929050565b600080600060608486031215612fff57612ffe613f15565b5b600061300d86828701612eb4565b935050602061301e86828701612eb4565b925050604061302f86828701612f64565b9150509250925092565b6000806000806080858703121561305357613052613f15565b5b600061306187828801612eb4565b945050602061307287828801612eb4565b935050604061308387828801612f64565b925050606085013567ffffffffffffffff8111156130a4576130a3613f10565b5b6130b087828801612f08565b91505092959194509250565b600080604083850312156130d3576130d2613f15565b5b60006130e185828601612eb4565b92505060206130f285828601612ec9565b9150509250929050565b6000806040838503121561311357613112613f15565b5b600061312185828601612eb4565b925050602061313285828601612f64565b9150509250929050565b60006020828403121561315257613151613f15565b5b600061316084828501612ede565b91505092915050565b60006020828403121561317f5761317e613f15565b5b600061318d84828501612ef3565b91505092915050565b6000602082840312156131ac576131ab613f15565b5b60006131ba84828501612f64565b91505092915050565b6000806000606084860312156131dc576131db613f15565b5b60006131ea86828701612f64565b93505060206131fb86828701612f64565b925050604084013567ffffffffffffffff81111561321c5761321b613f10565b5b61322886828701612f36565b9150509250925092565b61323b81613c34565b82525050565b61324a81613c46565b82525050565b600061325b82613adc565b6132658185613af2565b9350613275818560208601613cdc565b61327e81613f1a565b840191505092915050565b61329281613cbb565b82525050565b60006132a382613ae7565b6132ad8185613b03565b93506132bd818560208601613cdc565b6132c681613f1a565b840191505092915050565b60006132dc82613ae7565b6132e68185613b14565b93506132f6818560208601613cdc565b80840191505092915050565b600061330f603283613b03565b915061331a82613f2b565b604082019050919050565b6000613332602683613b03565b915061333d82613f7a565b604082019050919050565b6000613355601c83613b03565b915061336082613fc9565b602082019050919050565b6000613378602483613b03565b915061338382613ff2565b604082019050919050565b600061339b601983613b03565b91506133a682614041565b602082019050919050565b60006133be602c83613b03565b91506133c98261406a565b604082019050919050565b60006133e1603883613b03565b91506133ec826140b9565b604082019050919050565b6000613404602a83613b03565b915061340f82614108565b604082019050919050565b6000613427602983613b03565b915061343282614157565b604082019050919050565b600061344a602e83613b03565b9150613455826141a6565b604082019050919050565b600061346d602083613b03565b9150613478826141f5565b602082019050919050565b6000613490603183613b03565b915061349b8261421e565b604082019050919050565b60006134b3602c83613b03565b91506134be8261426d565b604082019050919050565b60006134d6602083613b03565b91506134e1826142bc565b602082019050919050565b60006134f9602983613b03565b9150613504826142e5565b604082019050919050565b600061351c602f83613b03565b915061352782614334565b604082019050919050565b600061353f602383613b03565b915061354a82614383565b604082019050919050565b6000613562602183613b03565b915061356d826143d2565b604082019050919050565b6000613585601983613b03565b915061359082614421565b602082019050919050565b60006135a8602583613b03565b91506135b38261444a565b604082019050919050565b60006135cb603183613b03565b91506135d682614499565b604082019050919050565b6135ea81613cb1565b82525050565b60006135fc82856132d1565b915061360882846132d1565b91508190509392505050565b60006020820190506136296000830184613232565b92915050565b60006080820190506136446000830187613232565b6136516020830186613232565b61365e60408301856135e1565b81810360608301526136708184613250565b905095945050505050565b60006020820190506136906000830184613241565b92915050565b60006020820190506136ab6000830184613289565b92915050565b600060208201905081810360008301526136cb8184613298565b905092915050565b600060208201905081810360008301526136ec81613302565b9050919050565b6000602082019050818103600083015261370c81613325565b9050919050565b6000602082019050818103600083015261372c81613348565b9050919050565b6000602082019050818103600083015261374c8161336b565b9050919050565b6000602082019050818103600083015261376c8161338e565b9050919050565b6000602082019050818103600083015261378c816133b1565b9050919050565b600060208201905081810360008301526137ac816133d4565b9050919050565b600060208201905081810360008301526137cc816133f7565b9050919050565b600060208201905081810360008301526137ec8161341a565b9050919050565b6000602082019050818103600083015261380c8161343d565b9050919050565b6000602082019050818103600083015261382c81613460565b9050919050565b6000602082019050818103600083015261384c81613483565b9050919050565b6000602082019050818103600083015261386c816134a6565b9050919050565b6000602082019050818103600083015261388c816134c9565b9050919050565b600060208201905081810360008301526138ac816134ec565b9050919050565b600060208201905081810360008301526138cc8161350f565b9050919050565b600060208201905081810360008301526138ec81613532565b9050919050565b6000602082019050818103600083015261390c81613555565b9050919050565b6000602082019050818103600083015261392c81613578565b9050919050565b6000602082019050818103600083015261394c8161359b565b9050919050565b6000602082019050818103600083015261396c816135be565b9050919050565b600060208201905061398860008301846135e1565b92915050565b60006040820190506139a360008301856135e1565b6139b06020830184613232565b9392505050565b60006040820190506139cc60008301856135e1565b6139d96020830184613241565b9392505050565b60006060820190506139f560008301866135e1565b613a0260208301856135e1565b613a0f6040830184613241565b949350505050565b6000606082019050613a2c60008301866135e1565b613a3960208301856135e1565b8181036040830152613a4b8184613298565b9050949350505050565b6000613a5f613a70565b9050613a6b8282613d41565b919050565b6000604051905090565b600067ffffffffffffffff821115613a9557613a94613ed7565b5b613a9e82613f1a565b9050602081019050919050565b600067ffffffffffffffff821115613ac657613ac5613ed7565b5b613acf82613f1a565b9050602081019050919050565b600081519050919050565b600081519050919050565b600082825260208201905092915050565b600082825260208201905092915050565b600081905092915050565b6000613b2a82613cb1565b9150613b3583613cb1565b9250827fffffffffffffffffffffffffffffffffffffffffffffffffffffffffffffffff03821115613b6a57613b69613dec565b5b828201905092915050565b6000613b8082613cb1565b9150613b8b83613cb1565b925082613b9b57613b9a613e1b565b5b828204905092915050565b6000613bb182613cb1565b9150613bbc83613cb1565b9250817fffffffffffffffffffffffffffffffffffffffffffffffffffffffffffffffff0483118215151615613bf557613bf4613dec565b5b828202905092915050565b6000613c0b82613cb1565b9150613c1683613cb1565b925082821015613c2957613c28613dec565b5b828203905092915050565b6000613c3f82613c91565b9050919050565b60008115159050919050565b60007fffffffff0000000000000000000000000000000000000000000000000000000082169050919050565b6000819050613c8c826144e8565b919050565b600073ffffffffffffffffffffffffffffffffffffffff82169050919050565b6000819050919050565b6000613cc682613c7e565b9050919050565b82818337600083830152505050565b60005b83811015613cfa578082015181840152602081019050613cdf565b83811115613d09576000848401525b50505050565b60006002820490506001821680613d2757607f821691505b60208210811415613d3b57613d3a613e79565b5b50919050565b613d4a82613f1a565b810181811067ffffffffffffffff82111715613d6957613d68613ed7565b5b80604052505050565b6000613d7d82613cb1565b91507fffffffffffffffffffffffffffffffffffffffffffffffffffffffffffffffff821415613db057613daf613dec565b5b600182019050919050565b6000613dc682613cb1565b9150613dd183613cb1565b925082613de157613de0613e1b565b5b828206905092915050565b7f4e487b7100000000000000000000000000000000000000000000000000000000600052601160045260246000fd5b7f4e487b7100000000000000000000000000000000000000000000000000000000600052601260045260246000fd5b7f4e487b7100000000000000000000000000000000000000000000000000000000600052602160045260246000fd5b7f4e487b7100000000000000000000000000000000000000000000000000000000600052602260045260246000fd5b7f4e487b7100000000000000000000000000000000000000000000000000000000600052603260045260246000fd5b7f4e487b7100000000000000000000000000000000000000000000000000000000600052604160045260246000fd5b600080fd5b600080fd5b600080fd5b600080fd5b6000601f19601f8301169050919050565b7f4552433732313a207472616e7366657220746f206e6f6e20455243373231526560008201527f63656976657220696d706c656d656e7465720000000000000000000000000000602082015250565b7f4f776e61626c653a206e6577206f776e657220697320746865207a65726f206160008201527f6464726573730000000000000000000000000000000000000000000000000000602082015250565b7f4552433732313a20746f6b656e20616c7265616479206d696e74656400000000600082015250565b7f4552433732313a207472616e7366657220746f20746865207a65726f2061646460008201527f7265737300000000000000000000000000000000000000000000000000000000602082015250565b7f4552433732313a20617070726f766520746f2063616c6c657200000000000000600082015250565b7f4552433732313a206f70657261746f7220717565727920666f72206e6f6e657860008201527f697374656e7420746f6b656e0000000000000000000000000000000000000000602082015250565b7f4552433732313a20617070726f76652063616c6c6572206973206e6f74206f7760008201527f6e6572206e6f7220617070726f76656420666f7220616c6c0000000000000000602082015250565b7f4552433732313a2062616c616e636520717565727920666f7220746865207a6560008201527f726f206164647265737300000000000000000000000000000000000000000000602082015250565b7f4552433732313a206f776e657220717565727920666f72206e6f6e657869737460008201527f656e7420746f6b656e0000000000000000000000000000000000000000000000602082015250565b7f45524337323155524953746f726167653a2055524920736574206f66206e6f6e60008201527f6578697374656e7420746f6b656e000000000000000000000000000000000000602082015250565b7f4552433732313a206d696e7420746f20746865207a65726f2061646472657373600082015250565b7f45524337323155524953746f726167653a2055524920717565727920666f722060008201527f6e6f6e6578697374656e7420746f6b656e000000000000000000000000000000602082015250565b7f4552433732313a20617070726f76656420717565727920666f72206e6f6e657860008201527f697374656e7420746f6b656e0000000000000000000000000000000000000000602082015250565b7f4f776e61626c653a2063616c6c6572206973206e6f7420746865206f776e6572600082015250565b7f4552433732313a207472616e73666572206f6620746f6b656e2074686174206960008201527f73206e6f74206f776e0000000000000000000000000000000000000000000000602082015250565b7f4552433732314d657461646174613a2055524920717565727920666f72206e6f60008201527f6e6578697374656e7420746f6b656e0000000000000000000000000000000000602082015250565b7f6e6f74206d6f7265207468616e20746865207570706572206c696d697420707260008201527f6963650000000000000000000000000000000000000000000000000000000000602082015250565b7f4552433732313a20617070726f76616c20746f2063757272656e74206f776e6560008201527f7200000000000000000000000000000000000000000000000000000000000000602082015250565b7f6174206c6561737420746865207469636b657420707269636500000000000000600082015250565b7f6578636565646564206d6178206e756d626572206f66207469636b657473206260008201527f6f75676874000000000000000000000000000000000000000000000000000000602082015250565b7f4552433732313a207472616e736665722063616c6c6572206973206e6f74206f60008201527f776e6572206e6f7220617070726f766564000000000000000000000000000000602082015250565b600581106144f9576144f8613e4a565b5b50565b61450581613c34565b811461451057600080fd5b50565b61451c81613c46565b811461452757600080fd5b50565b61453381613c52565b811461453e57600080fd5b50565b61454a81613cb1565b811461455557600080fd5b5056fea264697066735822122062a0c7a941a1422a9bbafff2004d891379003eb944932376b95436803f8fffc164736f6c63430008070033",
  "immutableReferences": {},
  "source": "// SPDX-License-Identifier: MIT\n// curren deployed address on Shibuya: 0x5D1ce7Fb931274Aa315707aEB2abAD9D138780FA\n\npragma solidity ^0.8.0;\n\nimport \"@openzeppelin/contracts/access/Ownable.sol\";\nimport \"@openzeppelin/contracts/token/ERC721/extensions/ERC721URIStorage.sol\";\nimport \"@openzeppelin/contracts/utils/math/SafeMath.sol\";\n\ncontract Marketplace is Ownable, ERC721URIStorage{\n\n  using SafeMath for uint;\n  \n  enum State { creatingTickets, investmentStart, investmentStop, ticketSaleStart, eventStart }\n  State public currentState = State.creatingTickets; \n  \n  // metadata for each ticket\n  struct Ticket {\n      uint256 maxPrice; // maximum price cap on the ticket\n      uint256 price; // current price\n      bool onSale;\n  }\n  \n  uint256 private _currentTokenId = 0;\n  Ticket[] public tickets; \n  mapping (address => uint256) etherBalance;\n  uint public vaultBalance;\n  uint private _maxTicketNum = 10;\n  string private _base; \n  \n  uint public investmentPrice;\n  uint public unitReturn; \n  uint private _investmentSold = 0;\n  mapping(address=>uint) public investors; // mapping to show number of shares owned by each investor\n\n  constructor() ERC721(\"NFT Tickets\", \"TIX\") {\n    investmentPrice = 30;\n    _setBaseURI(\"https://ipfs.infura.io/ipfs/\");\n  }\n\n  modifier eventNotStarted() {\n    require(currentState == State.ticketSaleStart);\n    _;\n  }\n  \n  function _setBaseURI(string memory _uri) private {\n    _base = _uri; \n  }\n  \n  function _baseURI() internal view override returns (string memory) {\n    return _base;\n  }\n\n  function createTicket(uint256 _price, uint256 _maxPrice, string memory _tokenURI) public onlyOwner {\n    require(currentState == State.creatingTickets);\n    _mint(msg.sender, _currentTokenId); //token id starts from 0\n    tickets.push(Ticket(_maxPrice, _price, true));\n    _setTokenURI(_currentTokenId, _tokenURI);\n    emit ticketCreated(_currentTokenId, _price, _tokenURI);\n    _incrementTokenId();\n  }\n  \n    \n  // let's say the event organiser will have 100 tickets as Collateral\n  // each ticket will cost $100 in the primary market = $10000\n  // for each ticket sold, $40 will be put into a vault (40%)\n  // total collateral worth $40 x 100 (if sold out) = $4000\n  // and now the event organiser wants to pre finance $3000\n  // so the event organiser will sell each collateral at $30 until 100 collateral has been sold\n\n    \n  // investors can choose to invest in a number of tokens\n  function invest(uint _number) public payable {\n    require(currentState == State.investmentStart);\n    require(msg.value == investmentPrice.mul(_number));\n    require(_number + _investmentSold < _currentTokenId.add(1));\n    _incrementInvestmentId(_number);\n    investors[msg.sender] += _number;\n  }\n    \n  function _incrementInvestmentId(uint _number) private {\n    _investmentSold = _investmentSold + _number;\n  }\n    \n  // event organiser can withdraw funds before the event starts\n  function withdraw() public onlyOwner {\n    require(currentState == State.investmentStop);\n    payable(msg.sender).transfer(address(this).balance);\n  }\n    \n  function getContractBalance() public view returns(uint) {\n    return address(this).balance;\n  }\n  \n  function changeTicketPrice(uint256 _tokenId, uint256 _newPrice, string memory _tokenURI) public {\n    require(msg.sender == ownerOf(_tokenId));\n    Ticket storage tix = tickets[_tokenId];\n    require(_newPrice < tix.maxPrice, \"not more than the upper limit price\");\n    tix.price = _newPrice;\n    _setTokenURI(_tokenId, _tokenURI);\n  }\n\n  function startEvent() public onlyOwner {\n    require(currentState == State.ticketSaleStart);\n    currentState = State.eventStart;\n    unitReturn = vaultBalance.div(_investmentSold);\n  }\n  \n  function startInvestment() public onlyOwner {\n    require(currentState == State.creatingTickets);\n    currentState = State.investmentStart; \n  }\n  \n  function stopInvestment() public onlyOwner {\n    require(currentState == State.investmentStart);\n    currentState = State.investmentStop;\n  }\n  \n  function startTicketSale() public onlyOwner {\n    require(currentState == State.investmentStop);\n    currentState = State.ticketSaleStart;\n  }\n  \n  function _incrementTokenId() private {\n    _currentTokenId++;\n  }\n  \n  function retrieve() public {\n    require(currentState == State.eventStart);\n    if (investors[msg.sender] > 0) {\n      etherBalance[msg.sender] += unitReturn.mul(investors[msg.sender]);\n    }\n    payable(msg.sender).transfer(etherBalance[msg.sender]);\n  }\n\n  // tickets need to put on sale first before it could be purchased\n  function toggleSale(uint256 _tokenId) public {\n    require(msg.sender == ownerOf(_tokenId));\n    Ticket storage tix = tickets[_tokenId];\n    tix.onSale = !tix.onSale;\n    emit saleToggled(_tokenId, tix.onSale);\n  }\n\n  // this function should be called by the buyer\n  function buyTicket(uint256 _tokenId) external payable eventNotStarted {\n    Ticket storage tix = tickets[_tokenId];\n    require(tix.onSale == true);\n    require(msg.value >= tix.price, \"at least the ticket price\");\n    require(balanceOf(msg.sender) < _maxTicketNum, \"exceeded max number of tickets bought\");\n    address seller = ownerOf(_tokenId);\n    tix.onSale = false;\n    etherBalance[seller] += (msg.value).div(5).mul(3); //60%\n    vaultBalance += (msg.value).div(5).mul(2); //40%\n    _safeTransfer(seller, msg.sender, _tokenId, \"\");\n    emit ticketTransferred(_tokenId, msg.sender);\n    emit saleToggled(_tokenId, false);\n  }\n  \n  function getTicketsLength() public view returns(uint) {\n    return tickets.length;\n  }\n\n  event ticketTransferred(uint256 _id, address _owner); //show the address of new owner\n  event saleToggled(uint256 _id, bool state); //show whether ticket is on sale\n  event ticketCreated(uint256 _id, uint256 _price, string _tokenURI);\n\n}",
  "sourcePath": "/Users/mm-mac/Desktop/mm-projects-blockchain/kaijun-ticketing/blockchain-ticketing/contracts/Marketplace.sol",
  "compiler": {
    "name": "solc",
    "version": "0.8.7+commit.e28d00a7.Emscripten.clang"
  },
  "schemaVersion": "3.2.3",
  "updatedAt": "2021-10-06T17:04:19.585Z",
  "devdoc": {
    "kind": "dev",
    "methods": {
      "approve(address,uint256)": {
        "details": "See {IERC721-approve}."
      },
      "balanceOf(address)": {
        "details": "See {IERC721-balanceOf}."
      },
      "getApproved(uint256)": {
        "details": "See {IERC721-getApproved}."
      },
      "isApprovedForAll(address,address)": {
        "details": "See {IERC721-isApprovedForAll}."
      },
      "name()": {
        "details": "See {IERC721Metadata-name}."
      },
      "owner()": {
        "details": "Returns the address of the current owner."
      },
      "ownerOf(uint256)": {
        "details": "See {IERC721-ownerOf}."
      },
      "renounceOwnership()": {
        "details": "Leaves the contract without owner. It will not be possible to call `onlyOwner` functions anymore. Can only be called by the current owner. NOTE: Renouncing ownership will leave the contract without an owner, thereby removing any functionality that is only available to the owner."
      },
      "safeTransferFrom(address,address,uint256)": {
        "details": "See {IERC721-safeTransferFrom}."
      },
      "safeTransferFrom(address,address,uint256,bytes)": {
        "details": "See {IERC721-safeTransferFrom}."
      },
      "setApprovalForAll(address,bool)": {
        "details": "See {IERC721-setApprovalForAll}."
      },
      "supportsInterface(bytes4)": {
        "details": "See {IERC165-supportsInterface}."
      },
      "symbol()": {
        "details": "See {IERC721Metadata-symbol}."
      },
      "tokenURI(uint256)": {
        "details": "See {IERC721Metadata-tokenURI}."
      },
      "transferFrom(address,address,uint256)": {
        "details": "See {IERC721-transferFrom}."
      },
      "transferOwnership(address)": {
        "details": "Transfers ownership of the contract to a new account (`newOwner`). Can only be called by the current owner."
      }
    },
    "version": 1
  },
  "userdoc": {
    "kind": "user",
    "methods": {},
    "version": 1
  }
}