{
  "contractName": "Marketplace",
  "abi": [
    {
      "inputs": [],
      "stateMutability": "nonpayable",
      "type": "constructor"
    },
    {
      "anonymous": false,
      "inputs": [
        {
          "indexed": true,
          "internalType": "address",
          "name": "owner",
          "type": "address"
        },
        {
          "indexed": true,
          "internalType": "address",
          "name": "approved",
          "type": "address"
        },
        {
          "indexed": true,
          "internalType": "uint256",
          "name": "tokenId",
          "type": "uint256"
        }
      ],
      "name": "Approval",
      "type": "event"
    },
    {
      "anonymous": false,
      "inputs": [
        {
          "indexed": true,
          "internalType": "address",
          "name": "owner",
          "type": "address"
        },
        {
          "indexed": true,
          "internalType": "address",
          "name": "operator",
          "type": "address"
        },
        {
          "indexed": false,
          "internalType": "bool",
          "name": "approved",
          "type": "bool"
        }
      ],
      "name": "ApprovalForAll",
      "type": "event"
    },
    {
      "anonymous": false,
      "inputs": [
        {
          "indexed": true,
          "internalType": "address",
          "name": "previousOwner",
          "type": "address"
        },
        {
          "indexed": true,
          "internalType": "address",
          "name": "newOwner",
          "type": "address"
        }
      ],
      "name": "OwnershipTransferred",
      "type": "event"
    },
    {
      "anonymous": false,
      "inputs": [
        {
          "indexed": true,
          "internalType": "address",
          "name": "from",
          "type": "address"
        },
        {
          "indexed": true,
          "internalType": "address",
          "name": "to",
          "type": "address"
        },
        {
          "indexed": true,
          "internalType": "uint256",
          "name": "tokenId",
          "type": "uint256"
        }
      ],
      "name": "Transfer",
      "type": "event"
    },
    {
      "anonymous": false,
      "inputs": [
        {
          "indexed": false,
          "internalType": "uint256",
          "name": "_id",
          "type": "uint256"
        },
        {
          "indexed": false,
          "internalType": "bool",
          "name": "state",
          "type": "bool"
        }
      ],
      "name": "saleToggled",
      "type": "event"
    },
    {
      "anonymous": false,
      "inputs": [
        {
          "indexed": false,
          "internalType": "uint256",
          "name": "_id",
          "type": "uint256"
        },
        {
          "indexed": false,
          "internalType": "uint256",
          "name": "_price",
          "type": "uint256"
        },
        {
          "indexed": false,
          "internalType": "string",
          "name": "_tokenURI",
          "type": "string"
        }
      ],
      "name": "ticketCreated",
      "type": "event"
    },
    {
      "anonymous": false,
      "inputs": [
        {
          "indexed": false,
          "internalType": "uint256",
          "name": "_id",
          "type": "uint256"
        },
        {
          "indexed": false,
          "internalType": "address",
          "name": "_owner",
          "type": "address"
        }
      ],
      "name": "ticketTransferred",
      "type": "event"
    },
    {
      "inputs": [
        {
          "internalType": "address",
          "name": "to",
          "type": "address"
        },
        {
          "internalType": "uint256",
          "name": "tokenId",
          "type": "uint256"
        }
      ],
      "name": "approve",
      "outputs": [],
      "stateMutability": "nonpayable",
      "type": "function"
    },
    {
      "inputs": [
        {
          "internalType": "address",
          "name": "owner",
          "type": "address"
        }
      ],
      "name": "balanceOf",
      "outputs": [
        {
          "internalType": "uint256",
          "name": "",
          "type": "uint256"
        }
      ],
      "stateMutability": "view",
      "type": "function",
      "constant": true
    },
    {
      "inputs": [],
      "name": "currentState",
      "outputs": [
        {
          "internalType": "enum Marketplace.State",
          "name": "",
          "type": "uint8"
        }
      ],
      "stateMutability": "view",
      "type": "function",
      "constant": true
    },
    {
      "inputs": [
        {
          "internalType": "uint256",
          "name": "tokenId",
          "type": "uint256"
        }
      ],
      "name": "getApproved",
      "outputs": [
        {
          "internalType": "address",
          "name": "",
          "type": "address"
        }
      ],
      "stateMutability": "view",
      "type": "function",
      "constant": true
    },
    {
      "inputs": [],
      "name": "investmentPrice",
      "outputs": [
        {
          "internalType": "uint256",
          "name": "",
          "type": "uint256"
        }
      ],
      "stateMutability": "view",
      "type": "function",
      "constant": true
    },
    {
      "inputs": [
        {
          "internalType": "address",
          "name": "",
          "type": "address"
        }
      ],
      "name": "investors",
      "outputs": [
        {
          "internalType": "uint256",
          "name": "",
          "type": "uint256"
        }
      ],
      "stateMutability": "view",
      "type": "function",
      "constant": true
    },
    {
      "inputs": [
        {
          "internalType": "address",
          "name": "owner",
          "type": "address"
        },
        {
          "internalType": "address",
          "name": "operator",
          "type": "address"
        }
      ],
      "name": "isApprovedForAll",
      "outputs": [
        {
          "internalType": "bool",
          "name": "",
          "type": "bool"
        }
      ],
      "stateMutability": "view",
      "type": "function",
      "constant": true
    },
    {
      "inputs": [],
      "name": "name",
      "outputs": [
        {
          "internalType": "string",
          "name": "",
          "type": "string"
        }
      ],
      "stateMutability": "view",
      "type": "function",
      "constant": true
    },
    {
      "inputs": [],
      "name": "owner",
      "outputs": [
        {
          "internalType": "address",
          "name": "",
          "type": "address"
        }
      ],
      "stateMutability": "view",
      "type": "function",
      "constant": true
    },
    {
      "inputs": [
        {
          "internalType": "uint256",
          "name": "tokenId",
          "type": "uint256"
        }
      ],
      "name": "ownerOf",
      "outputs": [
        {
          "internalType": "address",
          "name": "",
          "type": "address"
        }
      ],
      "stateMutability": "view",
      "type": "function",
      "constant": true
    },
    {
      "inputs": [],
      "name": "renounceOwnership",
      "outputs": [],
      "stateMutability": "nonpayable",
      "type": "function"
    },
    {
      "inputs": [
        {
          "internalType": "address",
          "name": "from",
          "type": "address"
        },
        {
          "internalType": "address",
          "name": "to",
          "type": "address"
        },
        {
          "internalType": "uint256",
          "name": "tokenId",
          "type": "uint256"
        }
      ],
      "name": "safeTransferFrom",
      "outputs": [],
      "stateMutability": "nonpayable",
      "type": "function"
    },
    {
      "inputs": [
        {
          "internalType": "address",
          "name": "from",
          "type": "address"
        },
        {
          "internalType": "address",
          "name": "to",
          "type": "address"
        },
        {
          "internalType": "uint256",
          "name": "tokenId",
          "type": "uint256"
        },
        {
          "internalType": "bytes",
          "name": "_data",
          "type": "bytes"
        }
      ],
      "name": "safeTransferFrom",
      "outputs": [],
      "stateMutability": "nonpayable",
      "type": "function"
    },
    {
      "inputs": [
        {
          "internalType": "address",
          "name": "operator",
          "type": "address"
        },
        {
          "internalType": "bool",
          "name": "approved",
          "type": "bool"
        }
      ],
      "name": "setApprovalForAll",
      "outputs": [],
      "stateMutability": "nonpayable",
      "type": "function"
    },
    {
      "inputs": [
        {
          "internalType": "bytes4",
          "name": "interfaceId",
          "type": "bytes4"
        }
      ],
      "name": "supportsInterface",
      "outputs": [
        {
          "internalType": "bool",
          "name": "",
          "type": "bool"
        }
      ],
      "stateMutability": "view",
      "type": "function",
      "constant": true
    },
    {
      "inputs": [],
      "name": "symbol",
      "outputs": [
        {
          "internalType": "string",
          "name": "",
          "type": "string"
        }
      ],
      "stateMutability": "view",
      "type": "function",
      "constant": true
    },
    {
      "inputs": [
        {
          "internalType": "uint256",
          "name": "",
          "type": "uint256"
        }
      ],
      "name": "tickets",
      "outputs": [
        {
          "internalType": "uint256",
          "name": "maxPrice",
          "type": "uint256"
        },
        {
          "internalType": "uint256",
          "name": "price",
          "type": "uint256"
        },
        {
          "internalType": "bool",
          "name": "onSale",
          "type": "bool"
        }
      ],
      "stateMutability": "view",
      "type": "function",
      "constant": true
    },
    {
      "inputs": [
        {
          "internalType": "uint256",
          "name": "tokenId",
          "type": "uint256"
        }
      ],
      "name": "tokenURI",
      "outputs": [
        {
          "internalType": "string",
          "name": "",
          "type": "string"
        }
      ],
      "stateMutability": "view",
      "type": "function",
      "constant": true
    },
    {
      "inputs": [
        {
          "internalType": "address",
          "name": "from",
          "type": "address"
        },
        {
          "internalType": "address",
          "name": "to",
          "type": "address"
        },
        {
          "internalType": "uint256",
          "name": "tokenId",
          "type": "uint256"
        }
      ],
      "name": "transferFrom",
      "outputs": [],
      "stateMutability": "nonpayable",
      "type": "function"
    },
    {
      "inputs": [
        {
          "internalType": "address",
          "name": "newOwner",
          "type": "address"
        }
      ],
      "name": "transferOwnership",
      "outputs": [],
      "stateMutability": "nonpayable",
      "type": "function"
    },
    {
      "inputs": [],
      "name": "unitReturn",
      "outputs": [
        {
          "internalType": "uint256",
          "name": "",
          "type": "uint256"
        }
      ],
      "stateMutability": "view",
      "type": "function",
      "constant": true
    },
    {
      "inputs": [],
      "name": "vaultBalance",
      "outputs": [
        {
          "internalType": "uint256",
          "name": "",
          "type": "uint256"
        }
      ],
      "stateMutability": "view",
      "type": "function",
      "constant": true
    },
    {
      "inputs": [
        {
          "internalType": "uint256",
          "name": "_price",
          "type": "uint256"
        },
        {
          "internalType": "uint256",
          "name": "_maxPrice",
          "type": "uint256"
        },
        {
          "internalType": "string",
          "name": "_tokenURI",
          "type": "string"
        }
      ],
      "name": "createTicket",
      "outputs": [],
      "stateMutability": "nonpayable",
      "type": "function"
    },
    {
      "inputs": [
        {
          "internalType": "uint256",
          "name": "_number",
          "type": "uint256"
        }
      ],
      "name": "invest",
      "outputs": [],
      "stateMutability": "payable",
      "type": "function",
      "payable": true
    },
    {
      "inputs": [],
      "name": "withdraw",
      "outputs": [],
      "stateMutability": "nonpayable",
      "type": "function"
    },
    {
      "inputs": [],
      "name": "getContractBalance",
      "outputs": [
        {
          "internalType": "uint256",
          "name": "",
          "type": "uint256"
        }
      ],
      "stateMutability": "view",
      "type": "function",
      "constant": true
    },
    {
      "inputs": [
        {
          "internalType": "uint256",
          "name": "_tokenId",
          "type": "uint256"
        },
        {
          "internalType": "uint256",
          "name": "_newPrice",
          "type": "uint256"
        },
        {
          "internalType": "string",
          "name": "_tokenURI",
          "type": "string"
        }
      ],
      "name": "changeTicketPrice",
      "outputs": [],
      "stateMutability": "nonpayable",
      "type": "function"
    },
    {
      "inputs": [],
      "name": "startEvent",
      "outputs": [],
      "stateMutability": "nonpayable",
      "type": "function"
    },
    {
      "inputs": [],
      "name": "startInvestment",
      "outputs": [],
      "stateMutability": "nonpayable",
      "type": "function"
    },
    {
      "inputs": [],
      "name": "stopInvestment",
      "outputs": [],
      "stateMutability": "nonpayable",
      "type": "function"
    },
    {
      "inputs": [],
      "name": "startTicketSale",
      "outputs": [],
      "stateMutability": "nonpayable",
      "type": "function"
    },
    {
      "inputs": [],
      "name": "retrieve",
      "outputs": [],
      "stateMutability": "nonpayable",
      "type": "function"
    },
    {
      "inputs": [
        {
          "internalType": "uint256",
          "name": "_tokenId",
          "type": "uint256"
        }
      ],
      "name": "toggleSale",
      "outputs": [],
      "stateMutability": "nonpayable",
      "type": "function"
    },
    {
      "inputs": [
        {
          "internalType": "uint256",
          "name": "_tokenId",
          "type": "uint256"
        }
      ],
      "name": "buyTicket",
      "outputs": [],
      "stateMutability": "payable",
      "type": "function",
      "payable": true
    },
    {
      "inputs": [],
      "name": "getTicketsLength",
      "outputs": [
        {
          "internalType": "uint256",
          "name": "",
          "type": "uint256"
        }
      ],
      "stateMutability": "view",
      "type": "function",
      "constant": true
    }
  ],
  "bytecode": "0x60806040526000600860006101000a81548160ff021916908360048111156200002d576200002c62000331565b5b02179055506000600955600a600d5560006011553480156200004e57600080fd5b506040518060400160405280600b81526020017f4e4654205469636b6574730000000000000000000000000000000000000000008152506040518060400160405280600381526020017f5449580000000000000000000000000000000000000000000000000000000000815250620000db620000cf6200016360201b60201c565b6200016b60201b60201c565b8160019080519060200190620000f39291906200024b565b5080600290805190602001906200010c9291906200024b565b505050601e600f819055506200015d6040518060400160405280601c81526020017f68747470733a2f2f697066732e696e667572612e696f2f697066732f000000008152506200022f60201b60201c565b6200038f565b600033905090565b60008060009054906101000a900473ffffffffffffffffffffffffffffffffffffffff169050816000806101000a81548173ffffffffffffffffffffffffffffffffffffffff021916908373ffffffffffffffffffffffffffffffffffffffff1602179055508173ffffffffffffffffffffffffffffffffffffffff168173ffffffffffffffffffffffffffffffffffffffff167f8be0079c531659141344cd1fd0a4f28419497f9722a3daafe3b4186f6b6457e060405160405180910390a35050565b80600e9080519060200190620002479291906200024b565b5050565b8280546200025990620002fb565b90600052602060002090601f0160209004810192826200027d5760008555620002c9565b82601f106200029857805160ff1916838001178555620002c9565b82800160010185558215620002c9579182015b82811115620002c8578251825591602001919060010190620002ab565b5b509050620002d89190620002dc565b5090565b5b80821115620002f7576000816000905550600101620002dd565b5090565b600060028204905060018216806200031457607f821691505b602082108114156200032b576200032a62000360565b5b50919050565b7f4e487b7100000000000000000000000000000000000000000000000000000000600052602160045260246000fd5b7f4e487b7100000000000000000000000000000000000000000000000000000000600052602260045260246000fd5b61454e806200039f6000396000f3fe6080604052600436106102045760003560e01c80636f7bc9be11610118578063b88d4fde116100a0578063e2fd38e91161006f578063e2fd38e9146106f1578063e4470b3e14610708578063e72f984314610731578063e985e9c51461075a578063f2fde38b1461079757610204565b8063b88d4fde1461065d578063c059dade14610686578063c43d8aa61461069d578063c87b56dd146106b457610204565b80638da5cb5b116100e75780638da5cb5b14610588578063924fdcb1146105b357806395d89b41146105de578063983d7f4514610609578063a22cb4651461063457610204565b80636f7bc9be146104cc5780636f9fb98a1461050957806370a0823114610534578063715018a61461057157610204565b80632e64cec11161019b5780634fcf99501161016a5780634fcf9950146103e057806350b447121461040b5780635338e1631461044a5780636352211e1461047357806367dd74ca146104b057610204565b80632e64cec1146103725780633ccfd60b1461038957806342842e0e146103a057806348c724ed146103c957610204565b80630bf6cc08116101d75780630bf6cc08146102d75780630c3f6acf1461030257806323b872dd1461032d5780632afcf4801461035657610204565b806301ffc9a71461020957806306fdde0314610246578063081812fc14610271578063095ea7b3146102ae575b600080fd5b34801561021557600080fd5b50610230600480360381019061022b91906130fc565b6107c0565b60405161023d919061363b565b60405180910390f35b34801561025257600080fd5b5061025b6108a2565b6040516102689190613671565b60405180910390f35b34801561027d57600080fd5b5061029860048036038101906102939190613156565b610934565b6040516102a591906135d4565b60405180910390f35b3480156102ba57600080fd5b506102d560048036038101906102d091906130bc565b6109b9565b005b3480156102e357600080fd5b506102ec610ad1565b6040516102f99190613933565b60405180910390f35b34801561030e57600080fd5b50610317610ad7565b6040516103249190613656565b60405180910390f35b34801561033957600080fd5b50610354600480360381019061034f9190612fa6565b610aea565b005b610370600480360381019061036b9190613156565b610b4a565b005b34801561037e57600080fd5b50610387610c3a565b005b34801561039557600080fd5b5061039e610df3565b005b3480156103ac57600080fd5b506103c760048036038101906103c29190612fa6565b610ef8565b005b3480156103d557600080fd5b506103de610f18565b005b3480156103ec57600080fd5b506103f5611001565b6040516104029190613933565b60405180910390f35b34801561041757600080fd5b50610432600480360381019061042d9190613156565b611007565b604051610441939291906139a0565b60405180910390f35b34801561045657600080fd5b50610471600480360381019061046c9190613183565b61104e565b005b34801561047f57600080fd5b5061049a60048036038101906104959190613156565b611113565b6040516104a791906135d4565b60405180910390f35b6104ca60048036038101906104c59190613156565b6111c5565b005b3480156104d857600080fd5b506104f360048036038101906104ee9190612f39565b611418565b6040516105009190613933565b60405180910390f35b34801561051557600080fd5b5061051e611430565b60405161052b9190613933565b60405180910390f35b34801561054057600080fd5b5061055b60048036038101906105569190612f39565b611438565b6040516105689190613933565b60405180910390f35b34801561057d57600080fd5b506105866114f0565b005b34801561059457600080fd5b5061059d611578565b6040516105aa91906135d4565b60405180910390f35b3480156105bf57600080fd5b506105c86115a1565b6040516105d59190613933565b60405180910390f35b3480156105ea57600080fd5b506105f36115a7565b6040516106009190613671565b60405180910390f35b34801561061557600080fd5b5061061e611639565b60405161062b9190613933565b60405180910390f35b34801561064057600080fd5b5061065b6004803603810190610656919061307c565b611646565b005b34801561066957600080fd5b50610684600480360381019061067f9190612ff9565b6117c7565b005b34801561069257600080fd5b5061069b611829565b005b3480156106a957600080fd5b506106b2611912565b005b3480156106c057600080fd5b506106db60048036038101906106d69190613156565b6119fb565b6040516106e89190613671565b60405180910390f35b3480156106fd57600080fd5b50610706611b4d565b005b34801561071457600080fd5b5061072f600480360381019061072a9190613183565b611c53565b005b34801561073d57600080fd5b5061075860048036038101906107539190613156565b611df0565b005b34801561076657600080fd5b50610781600480360381019061077c9190612f66565b611ed2565b60405161078e919061363b565b60405180910390f35b3480156107a357600080fd5b506107be60048036038101906107b99190612f39565b611f66565b005b60007f80ac58cd000000000000000000000000000000000000000000000000000000007bffffffffffffffffffffffffffffffffffffffffffffffffffffffff1916827bffffffffffffffffffffffffffffffffffffffffffffffffffffffff1916148061088b57507f5b5e139f000000000000000000000000000000000000000000000000000000007bffffffffffffffffffffffffffffffffffffffffffffffffffffffff1916827bffffffffffffffffffffffffffffffffffffffffffffffffffffffff1916145b8061089b575061089a8261205e565b5b9050919050565b6060600180546108b190613ccf565b80601f01602080910402602001604051908101604052809291908181526020018280546108dd90613ccf565b801561092a5780601f106108ff5761010080835404028352916020019161092a565b820191906000526020600020905b81548152906001019060200180831161090d57829003601f168201915b5050505050905090565b600061093f826120c8565b61097e576040517f08c379a000000000000000000000000000000000000000000000000000000000815260040161097590613813565b60405180910390fd5b6005600083815260200190815260200160002060009054906101000a900473ffffffffffffffffffffffffffffffffffffffff169050919050565b60006109c482611113565b90508073ffffffffffffffffffffffffffffffffffffffff168373ffffffffffffffffffffffffffffffffffffffff161415610a35576040517f08c379a0000000000000000000000000000000000000000000000000000000008152600401610a2c906138b3565b60405180910390fd5b8073ffffffffffffffffffffffffffffffffffffffff16610a54612134565b73ffffffffffffffffffffffffffffffffffffffff161480610a835750610a8281610a7d612134565b611ed2565b5b610ac2576040517f08c379a0000000000000000000000000000000000000000000000000000000008152600401610ab990613753565b60405180910390fd5b610acc838361213c565b505050565b600c5481565b600860009054906101000a900460ff1681565b610afb610af5612134565b826121f5565b610b3a576040517f08c379a0000000000000000000000000000000000000000000000000000000008152600401610b3190613913565b60405180910390fd5b610b458383836122d3565b505050565b60016004811115610b5e57610b5d613e0a565b5b600860009054906101000a900460ff166004811115610b8057610b7f613e0a565b5b14610b8a57600080fd5b610b9f81600f5461252f90919063ffffffff16565b3414610baa57600080fd5b610bc0600160095461254590919063ffffffff16565b60115482610bce9190613adf565b10610bd857600080fd5b610be18161255b565b80601260003373ffffffffffffffffffffffffffffffffffffffff1673ffffffffffffffffffffffffffffffffffffffff1681526020019081526020016000206000828254610c309190613adf565b9250508190555050565b600480811115610c4d57610c4c613e0a565b5b600860009054906101000a900460ff166004811115610c6f57610c6e613e0a565b5b14610c7957600080fd5b6000601260003373ffffffffffffffffffffffffffffffffffffffff1673ffffffffffffffffffffffffffffffffffffffff168152602001908152602001600020541115610d6b57610d15601260003373ffffffffffffffffffffffffffffffffffffffff1673ffffffffffffffffffffffffffffffffffffffff1681526020019081526020016000205460105461252f90919063ffffffff16565b600b60003373ffffffffffffffffffffffffffffffffffffffff1673ffffffffffffffffffffffffffffffffffffffff1681526020019081526020016000206000828254610d639190613adf565b925050819055505b3373ffffffffffffffffffffffffffffffffffffffff166108fc600b60003373ffffffffffffffffffffffffffffffffffffffff1673ffffffffffffffffffffffffffffffffffffffff168152602001908152602001600020549081150290604051600060405180830381858888f19350505050158015610df0573d6000803e3d6000fd5b50565b610dfb612134565b73ffffffffffffffffffffffffffffffffffffffff16610e19611578565b73ffffffffffffffffffffffffffffffffffffffff1614610e6f576040517f08c379a0000000000000000000000000000000000000000000000000000000008152600401610e6690613833565b60405180910390fd5b60026004811115610e8357610e82613e0a565b5b600860009054906101000a900460ff166004811115610ea557610ea4613e0a565b5b14610eaf57600080fd5b3373ffffffffffffffffffffffffffffffffffffffff166108fc479081150290604051600060405180830381858888f19350505050158015610ef5573d6000803e3d6000fd5b50565b610f13838383604051806020016040528060008152506117c7565b505050565b610f20612134565b73ffffffffffffffffffffffffffffffffffffffff16610f3e611578565b73ffffffffffffffffffffffffffffffffffffffff1614610f94576040517f08c379a0000000000000000000000000000000000000000000000000000000008152600401610f8b90613833565b60405180910390fd5b60026004811115610fa857610fa7613e0a565b5b600860009054906101000a900460ff166004811115610fca57610fc9613e0a565b5b14610fd457600080fd5b6003600860006101000a81548160ff02191690836004811115610ffa57610ff9613e0a565b5b0217905550565b600f5481565b600a818154811061101757600080fd5b90600052602060002090600302016000915090508060000154908060010154908060020160009054906101000a900460ff16905083565b61105783611113565b73ffffffffffffffffffffffffffffffffffffffff163373ffffffffffffffffffffffffffffffffffffffff161461108e57600080fd5b6000600a84815481106110a4576110a3613e68565b5b90600052602060002090600302019050806000015483106110fa576040517f08c379a00000000000000000000000000000000000000000000000000000000081526004016110f190613893565b60405180910390fd5b82816001018190555061110d8483612572565b50505050565b6000806003600084815260200190815260200160002060009054906101000a900473ffffffffffffffffffffffffffffffffffffffff169050600073ffffffffffffffffffffffffffffffffffffffff168173ffffffffffffffffffffffffffffffffffffffff1614156111bc576040517f08c379a00000000000000000000000000000000000000000000000000000000081526004016111b390613793565b60405180910390fd5b80915050919050565b6000600a82815481106111db576111da613e68565b5b90600052602060002090600302019050600115158160020160009054906101000a900460ff1615151461120d57600080fd5b8060010154341015611254576040517f08c379a000000000000000000000000000000000000000000000000000000000815260040161124b906138d3565b60405180910390fd5b600d5461126033611438565b106112a0576040517f08c379a0000000000000000000000000000000000000000000000000000000008152600401611297906138f3565b60405180910390fd5b60006112ab83611113565b905060008260020160006101000a81548160ff0219169083151502179055506112f160036112e36005346125e690919063ffffffff16565b61252f90919063ffffffff16565b600b60008373ffffffffffffffffffffffffffffffffffffffff1673ffffffffffffffffffffffffffffffffffffffff168152602001908152602001600020600082825461133f9190613adf565b9250508190555061136d600261135f6005346125e690919063ffffffff16565b61252f90919063ffffffff16565b600c600082825461137e9190613adf565b925050819055506113a0813385604051806020016040528060008152506125fc565b7f1a16bc699ce0f6ccd4b93e7dc6f592ff10f75af2aa2e0a7346adbc317943749a83336040516113d192919061394e565b60405180910390a17f1f52727099fd6031c06d28983d4d89fb813bb324aa3098ed1d15bb91a2b4b7e383600060405161140b929190613977565b60405180910390a1505050565b60126020528060005260406000206000915090505481565b600047905090565b60008073ffffffffffffffffffffffffffffffffffffffff168273ffffffffffffffffffffffffffffffffffffffff1614156114a9576040517f08c379a00000000000000000000000000000000000000000000000000000000081526004016114a090613773565b60405180910390fd5b600460008373ffffffffffffffffffffffffffffffffffffffff1673ffffffffffffffffffffffffffffffffffffffff168152602001908152602001600020549050919050565b6114f8612134565b73ffffffffffffffffffffffffffffffffffffffff16611516611578565b73ffffffffffffffffffffffffffffffffffffffff161461156c576040517f08c379a000000000000000000000000000000000000000000000000000000000815260040161156390613833565b60405180910390fd5b6115766000612658565b565b60008060009054906101000a900473ffffffffffffffffffffffffffffffffffffffff16905090565b60105481565b6060600280546115b690613ccf565b80601f01602080910402602001604051908101604052809291908181526020018280546115e290613ccf565b801561162f5780601f106116045761010080835404028352916020019161162f565b820191906000526020600020905b81548152906001019060200180831161161257829003601f168201915b5050505050905090565b6000600a80549050905090565b61164e612134565b73ffffffffffffffffffffffffffffffffffffffff168273ffffffffffffffffffffffffffffffffffffffff1614156116bc576040517f08c379a00000000000000000000000000000000000000000000000000000000081526004016116b390613713565b60405180910390fd5b80600660006116c9612134565b73ffffffffffffffffffffffffffffffffffffffff1673ffffffffffffffffffffffffffffffffffffffff16815260200190815260200160002060008473ffffffffffffffffffffffffffffffffffffffff1673ffffffffffffffffffffffffffffffffffffffff16815260200190815260200160002060006101000a81548160ff0219169083151502179055508173ffffffffffffffffffffffffffffffffffffffff16611776612134565b73ffffffffffffffffffffffffffffffffffffffff167f17307eab39ab6107e8899845ad3d59bd9653f200f220920489ca2b5937696c31836040516117bb919061363b565b60405180910390a35050565b6117d86117d2612134565b836121f5565b611817576040517f08c379a000000000000000000000000000000000000000000000000000000000815260040161180e90613913565b60405180910390fd5b611823848484846125fc565b50505050565b611831612134565b73ffffffffffffffffffffffffffffffffffffffff1661184f611578565b73ffffffffffffffffffffffffffffffffffffffff16146118a5576040517f08c379a000000000000000000000000000000000000000000000000000000000815260040161189c90613833565b60405180910390fd5b600160048111156118b9576118b8613e0a565b5b600860009054906101000a900460ff1660048111156118db576118da613e0a565b5b146118e557600080fd5b6002600860006101000a81548160ff0219169083600481111561190b5761190a613e0a565b5b0217905550565b61191a612134565b73ffffffffffffffffffffffffffffffffffffffff16611938611578565b73ffffffffffffffffffffffffffffffffffffffff161461198e576040517f08c379a000000000000000000000000000000000000000000000000000000000815260040161198590613833565b60405180910390fd5b600060048111156119a2576119a1613e0a565b5b600860009054906101000a900460ff1660048111156119c4576119c3613e0a565b5b146119ce57600080fd5b6001600860006101000a81548160ff021916908360048111156119f4576119f3613e0a565b5b0217905550565b6060611a06826120c8565b611a45576040517f08c379a0000000000000000000000000000000000000000000000000000000008152600401611a3c906137f3565b60405180910390fd5b6000600760008481526020019081526020016000208054611a6590613ccf565b80601f0160208091040260200160405190810160405280929190818152602001828054611a9190613ccf565b8015611ade5780601f10611ab357610100808354040283529160200191611ade565b820191906000526020600020905b815481529060010190602001808311611ac157829003601f168201915b505050505090506000611aef61271c565b9050600081511415611b05578192505050611b48565b600082511115611b3a578082604051602001611b229291906135b0565b60405160208183030381529060405292505050611b48565b611b43846127ae565b925050505b919050565b611b55612134565b73ffffffffffffffffffffffffffffffffffffffff16611b73611578565b73ffffffffffffffffffffffffffffffffffffffff1614611bc9576040517f08c379a0000000000000000000000000000000000000000000000000000000008152600401611bc090613833565b60405180910390fd5b60036004811115611bdd57611bdc613e0a565b5b600860009054906101000a900460ff166004811115611bff57611bfe613e0a565b5b14611c0957600080fd5b6004600860006101000a81548160ff02191690836004811115611c2f57611c2e613e0a565b5b0217905550611c4b601154600c546125e690919063ffffffff16565b601081905550565b611c5b612134565b73ffffffffffffffffffffffffffffffffffffffff16611c79611578565b73ffffffffffffffffffffffffffffffffffffffff1614611ccf576040517f08c379a0000000000000000000000000000000000000000000000000000000008152600401611cc690613833565b60405180910390fd5b60006004811115611ce357611ce2613e0a565b5b600860009054906101000a900460ff166004811115611d0557611d04613e0a565b5b14611d0f57600080fd5b611d1b33600954612855565b600a6040518060600160405280848152602001858152602001600115158152509080600181540180825580915050600190039060005260206000209060030201600090919091909150600082015181600001556020820151816001015560408201518160020160006101000a81548160ff0219169083151502179055505050611da660095482612572565b7f06ab0413adb04220056e8334cf2856a1fb7fef4c0f785aadeb34e4307af44fc06009548483604051611ddb939291906139d7565b60405180910390a1611deb612a23565b505050565b611df981611113565b73ffffffffffffffffffffffffffffffffffffffff163373ffffffffffffffffffffffffffffffffffffffff1614611e3057600080fd5b6000600a8281548110611e4657611e45613e68565b5b906000526020600020906003020190508060020160009054906101000a900460ff16158160020160006101000a81548160ff0219169083151502179055507f1f52727099fd6031c06d28983d4d89fb813bb324aa3098ed1d15bb91a2b4b7e3828260020160009054906101000a900460ff16604051611ec6929190613977565b60405180910390a15050565b6000600660008473ffffffffffffffffffffffffffffffffffffffff1673ffffffffffffffffffffffffffffffffffffffff16815260200190815260200160002060008373ffffffffffffffffffffffffffffffffffffffff1673ffffffffffffffffffffffffffffffffffffffff16815260200190815260200160002060009054906101000a900460ff16905092915050565b611f6e612134565b73ffffffffffffffffffffffffffffffffffffffff16611f8c611578565b73ffffffffffffffffffffffffffffffffffffffff1614611fe2576040517f08c379a0000000000000000000000000000000000000000000000000000000008152600401611fd990613833565b60405180910390fd5b600073ffffffffffffffffffffffffffffffffffffffff168173ffffffffffffffffffffffffffffffffffffffff161415612052576040517f08c379a0000000000000000000000000000000000000000000000000000000008152600401612049906136b3565b60405180910390fd5b61205b81612658565b50565b60007f01ffc9a7000000000000000000000000000000000000000000000000000000007bffffffffffffffffffffffffffffffffffffffffffffffffffffffff1916827bffffffffffffffffffffffffffffffffffffffffffffffffffffffff1916149050919050565b60008073ffffffffffffffffffffffffffffffffffffffff166003600084815260200190815260200160002060009054906101000a900473ffffffffffffffffffffffffffffffffffffffff1673ffffffffffffffffffffffffffffffffffffffff1614159050919050565b600033905090565b816005600083815260200190815260200160002060006101000a81548173ffffffffffffffffffffffffffffffffffffffff021916908373ffffffffffffffffffffffffffffffffffffffff160217905550808273ffffffffffffffffffffffffffffffffffffffff166121af83611113565b73ffffffffffffffffffffffffffffffffffffffff167f8c5be1e5ebec7d5bd14f71427d1e84f3dd0314c0f7b2291e5b200ac8c7c3b92560405160405180910390a45050565b6000612200826120c8565b61223f576040517f08c379a000000000000000000000000000000000000000000000000000000000815260040161223690613733565b60405180910390fd5b600061224a83611113565b90508073ffffffffffffffffffffffffffffffffffffffff168473ffffffffffffffffffffffffffffffffffffffff1614806122b957508373ffffffffffffffffffffffffffffffffffffffff166122a184610934565b73ffffffffffffffffffffffffffffffffffffffff16145b806122ca57506122c98185611ed2565b5b91505092915050565b8273ffffffffffffffffffffffffffffffffffffffff166122f382611113565b73ffffffffffffffffffffffffffffffffffffffff1614612349576040517f08c379a000000000000000000000000000000000000000000000000000000000815260040161234090613853565b60405180910390fd5b600073ffffffffffffffffffffffffffffffffffffffff168273ffffffffffffffffffffffffffffffffffffffff1614156123b9576040517f08c379a00000000000000000000000000000000000000000000000000000000081526004016123b0906136f3565b60405180910390fd5b6123c4838383612a3d565b6123cf60008261213c565b6001600460008573ffffffffffffffffffffffffffffffffffffffff1673ffffffffffffffffffffffffffffffffffffffff168152602001908152602001600020600082825461241f9190613bc0565b925050819055506001600460008473ffffffffffffffffffffffffffffffffffffffff1673ffffffffffffffffffffffffffffffffffffffff16815260200190815260200160002060008282546124769190613adf565b92505081905550816003600083815260200190815260200160002060006101000a81548173ffffffffffffffffffffffffffffffffffffffff021916908373ffffffffffffffffffffffffffffffffffffffff160217905550808273ffffffffffffffffffffffffffffffffffffffff168473ffffffffffffffffffffffffffffffffffffffff167fddf252ad1be2c89b69c2b068fc378daa952ba7f163c4a11628f55a4df523b3ef60405160405180910390a4505050565b6000818361253d9190613b66565b905092915050565b600081836125539190613adf565b905092915050565b806011546125699190613adf565b60118190555050565b61257b826120c8565b6125ba576040517f08c379a00000000000000000000000000000000000000000000000000000000081526004016125b1906137b3565b60405180910390fd5b806007600084815260200190815260200160002090805190602001906125e1929190612d4d565b505050565b600081836125f49190613b35565b905092915050565b6126078484846122d3565b61261384848484612a42565b612652576040517f08c379a000000000000000000000000000000000000000000000000000000000815260040161264990613693565b60405180910390fd5b50505050565b60008060009054906101000a900473ffffffffffffffffffffffffffffffffffffffff169050816000806101000a81548173ffffffffffffffffffffffffffffffffffffffff021916908373ffffffffffffffffffffffffffffffffffffffff1602179055508173ffffffffffffffffffffffffffffffffffffffff168173ffffffffffffffffffffffffffffffffffffffff167f8be0079c531659141344cd1fd0a4f28419497f9722a3daafe3b4186f6b6457e060405160405180910390a35050565b6060600e805461272b90613ccf565b80601f016020809104026020016040519081016040528092919081815260200182805461275790613ccf565b80156127a45780601f10612779576101008083540402835291602001916127a4565b820191906000526020600020905b81548152906001019060200180831161278757829003601f168201915b5050505050905090565b60606127b9826120c8565b6127f8576040517f08c379a00000000000000000000000000000000000000000000000000000000081526004016127ef90613873565b60405180910390fd5b600061280261271c565b90506000815111612822576040518060200160405280600081525061284d565b8061282c84612bd9565b60405160200161283d9291906135b0565b6040516020818303038152906040525b915050919050565b600073ffffffffffffffffffffffffffffffffffffffff168273ffffffffffffffffffffffffffffffffffffffff1614156128c5576040517f08c379a00000000000000000000000000000000000000000000000000000000081526004016128bc906137d3565b60405180910390fd5b6128ce816120c8565b1561290e576040517f08c379a0000000000000000000000000000000000000000000000000000000008152600401612905906136d3565b60405180910390fd5b61291a60008383612a3d565b6001600460008473ffffffffffffffffffffffffffffffffffffffff1673ffffffffffffffffffffffffffffffffffffffff168152602001908152602001600020600082825461296a9190613adf565b92505081905550816003600083815260200190815260200160002060006101000a81548173ffffffffffffffffffffffffffffffffffffffff021916908373ffffffffffffffffffffffffffffffffffffffff160217905550808273ffffffffffffffffffffffffffffffffffffffff16600073ffffffffffffffffffffffffffffffffffffffff167fddf252ad1be2c89b69c2b068fc378daa952ba7f163c4a11628f55a4df523b3ef60405160405180910390a45050565b60096000815480929190612a3690613d32565b9190505550565b505050565b6000612a638473ffffffffffffffffffffffffffffffffffffffff16612d3a565b15612bcc578373ffffffffffffffffffffffffffffffffffffffff1663150b7a02612a8c612134565b8786866040518563ffffffff1660e01b8152600401612aae94939291906135ef565b602060405180830381600087803b158015612ac857600080fd5b505af1925050508015612af957506040513d601f19601f82011682018060405250810190612af69190613129565b60015b612b7c573d8060008114612b29576040519150601f19603f3d011682016040523d82523d6000602084013e612b2e565b606091505b50600081511415612b74576040517f08c379a0000000000000000000000000000000000000000000000000000000008152600401612b6b90613693565b60405180910390fd5b805181602001fd5b63150b7a0260e01b7bffffffffffffffffffffffffffffffffffffffffffffffffffffffff1916817bffffffffffffffffffffffffffffffffffffffffffffffffffffffff191614915050612bd1565b600190505b949350505050565b60606000821415612c21576040518060400160405280600181526020017f30000000000000000000000000000000000000000000000000000000000000008152509050612d35565b600082905060005b60008214612c53578080612c3c90613d32565b915050600a82612c4c9190613b35565b9150612c29565b60008167ffffffffffffffff811115612c6f57612c6e613e97565b5b6040519080825280601f01601f191660200182016040528015612ca15781602001600182028036833780820191505090505b5090505b60008514612d2e57600182612cba9190613bc0565b9150600a85612cc99190613d7b565b6030612cd59190613adf565b60f81b818381518110612ceb57612cea613e68565b5b60200101907effffffffffffffffffffffffffffffffffffffffffffffffffffffffffffff1916908160001a905350600a85612d279190613b35565b9450612ca5565b8093505050505b919050565b600080823b905060008111915050919050565b828054612d5990613ccf565b90600052602060002090601f016020900481019282612d7b5760008555612dc2565b82601f10612d9457805160ff1916838001178555612dc2565b82800160010185558215612dc2579182015b82811115612dc1578251825591602001919060010190612da6565b5b509050612dcf9190612dd3565b5090565b5b80821115612dec576000816000905550600101612dd4565b5090565b6000612e03612dfe84613a3a565b613a15565b905082815260208101848484011115612e1f57612e1e613ecb565b5b612e2a848285613c8d565b509392505050565b6000612e45612e4084613a6b565b613a15565b905082815260208101848484011115612e6157612e60613ecb565b5b612e6c848285613c8d565b509392505050565b600081359050612e83816144bc565b92915050565b600081359050612e98816144d3565b92915050565b600081359050612ead816144ea565b92915050565b600081519050612ec2816144ea565b92915050565b600082601f830112612edd57612edc613ec6565b5b8135612eed848260208601612df0565b91505092915050565b600082601f830112612f0b57612f0a613ec6565b5b8135612f1b848260208601612e32565b91505092915050565b600081359050612f3381614501565b92915050565b600060208284031215612f4f57612f4e613ed5565b5b6000612f5d84828501612e74565b91505092915050565b60008060408385031215612f7d57612f7c613ed5565b5b6000612f8b85828601612e74565b9250506020612f9c85828601612e74565b9150509250929050565b600080600060608486031215612fbf57612fbe613ed5565b5b6000612fcd86828701612e74565b9350506020612fde86828701612e74565b9250506040612fef86828701612f24565b9150509250925092565b6000806000806080858703121561301357613012613ed5565b5b600061302187828801612e74565b945050602061303287828801612e74565b935050604061304387828801612f24565b925050606085013567ffffffffffffffff81111561306457613063613ed0565b5b61307087828801612ec8565b91505092959194509250565b6000806040838503121561309357613092613ed5565b5b60006130a185828601612e74565b92505060206130b285828601612e89565b9150509250929050565b600080604083850312156130d3576130d2613ed5565b5b60006130e185828601612e74565b92505060206130f285828601612f24565b9150509250929050565b60006020828403121561311257613111613ed5565b5b600061312084828501612e9e565b91505092915050565b60006020828403121561313f5761313e613ed5565b5b600061314d84828501612eb3565b91505092915050565b60006020828403121561316c5761316b613ed5565b5b600061317a84828501612f24565b91505092915050565b60008060006060848603121561319c5761319b613ed5565b5b60006131aa86828701612f24565b93505060206131bb86828701612f24565b925050604084013567ffffffffffffffff8111156131dc576131db613ed0565b5b6131e886828701612ef6565b9150509250925092565b6131fb81613bf4565b82525050565b61320a81613c06565b82525050565b600061321b82613a9c565b6132258185613ab2565b9350613235818560208601613c9c565b61323e81613eda565b840191505092915050565b61325281613c7b565b82525050565b600061326382613aa7565b61326d8185613ac3565b935061327d818560208601613c9c565b61328681613eda565b840191505092915050565b600061329c82613aa7565b6132a68185613ad4565b93506132b6818560208601613c9c565b80840191505092915050565b60006132cf603283613ac3565b91506132da82613eeb565b604082019050919050565b60006132f2602683613ac3565b91506132fd82613f3a565b604082019050919050565b6000613315601c83613ac3565b915061332082613f89565b602082019050919050565b6000613338602483613ac3565b915061334382613fb2565b604082019050919050565b600061335b601983613ac3565b915061336682614001565b602082019050919050565b600061337e602c83613ac3565b91506133898261402a565b604082019050919050565b60006133a1603883613ac3565b91506133ac82614079565b604082019050919050565b60006133c4602a83613ac3565b91506133cf826140c8565b604082019050919050565b60006133e7602983613ac3565b91506133f282614117565b604082019050919050565b600061340a602e83613ac3565b915061341582614166565b604082019050919050565b600061342d602083613ac3565b9150613438826141b5565b602082019050919050565b6000613450603183613ac3565b915061345b826141de565b604082019050919050565b6000613473602c83613ac3565b915061347e8261422d565b604082019050919050565b6000613496602083613ac3565b91506134a18261427c565b602082019050919050565b60006134b9602983613ac3565b91506134c4826142a5565b604082019050919050565b60006134dc602f83613ac3565b91506134e7826142f4565b604082019050919050565b60006134ff602383613ac3565b915061350a82614343565b604082019050919050565b6000613522602183613ac3565b915061352d82614392565b604082019050919050565b6000613545601983613ac3565b9150613550826143e1565b602082019050919050565b6000613568602583613ac3565b91506135738261440a565b604082019050919050565b600061358b603183613ac3565b915061359682614459565b604082019050919050565b6135aa81613c71565b82525050565b60006135bc8285613291565b91506135c88284613291565b91508190509392505050565b60006020820190506135e960008301846131f2565b92915050565b600060808201905061360460008301876131f2565b61361160208301866131f2565b61361e60408301856135a1565b81810360608301526136308184613210565b905095945050505050565b60006020820190506136506000830184613201565b92915050565b600060208201905061366b6000830184613249565b92915050565b6000602082019050818103600083015261368b8184613258565b905092915050565b600060208201905081810360008301526136ac816132c2565b9050919050565b600060208201905081810360008301526136cc816132e5565b9050919050565b600060208201905081810360008301526136ec81613308565b9050919050565b6000602082019050818103600083015261370c8161332b565b9050919050565b6000602082019050818103600083015261372c8161334e565b9050919050565b6000602082019050818103600083015261374c81613371565b9050919050565b6000602082019050818103600083015261376c81613394565b9050919050565b6000602082019050818103600083015261378c816133b7565b9050919050565b600060208201905081810360008301526137ac816133da565b9050919050565b600060208201905081810360008301526137cc816133fd565b9050919050565b600060208201905081810360008301526137ec81613420565b9050919050565b6000602082019050818103600083015261380c81613443565b9050919050565b6000602082019050818103600083015261382c81613466565b9050919050565b6000602082019050818103600083015261384c81613489565b9050919050565b6000602082019050818103600083015261386c816134ac565b9050919050565b6000602082019050818103600083015261388c816134cf565b9050919050565b600060208201905081810360008301526138ac816134f2565b9050919050565b600060208201905081810360008301526138cc81613515565b9050919050565b600060208201905081810360008301526138ec81613538565b9050919050565b6000602082019050818103600083015261390c8161355b565b9050919050565b6000602082019050818103600083015261392c8161357e565b9050919050565b600060208201905061394860008301846135a1565b92915050565b600060408201905061396360008301856135a1565b61397060208301846131f2565b9392505050565b600060408201905061398c60008301856135a1565b6139996020830184613201565b9392505050565b60006060820190506139b560008301866135a1565b6139c260208301856135a1565b6139cf6040830184613201565b949350505050565b60006060820190506139ec60008301866135a1565b6139f960208301856135a1565b8181036040830152613a0b8184613258565b9050949350505050565b6000613a1f613a30565b9050613a2b8282613d01565b919050565b6000604051905090565b600067ffffffffffffffff821115613a5557613a54613e97565b5b613a5e82613eda565b9050602081019050919050565b600067ffffffffffffffff821115613a8657613a85613e97565b5b613a8f82613eda565b9050602081019050919050565b600081519050919050565b600081519050919050565b600082825260208201905092915050565b600082825260208201905092915050565b600081905092915050565b6000613aea82613c71565b9150613af583613c71565b9250827fffffffffffffffffffffffffffffffffffffffffffffffffffffffffffffffff03821115613b2a57613b29613dac565b5b828201905092915050565b6000613b4082613c71565b9150613b4b83613c71565b925082613b5b57613b5a613ddb565b5b828204905092915050565b6000613b7182613c71565b9150613b7c83613c71565b9250817fffffffffffffffffffffffffffffffffffffffffffffffffffffffffffffffff0483118215151615613bb557613bb4613dac565b5b828202905092915050565b6000613bcb82613c71565b9150613bd683613c71565b925082821015613be957613be8613dac565b5b828203905092915050565b6000613bff82613c51565b9050919050565b60008115159050919050565b60007fffffffff0000000000000000000000000000000000000000000000000000000082169050919050565b6000819050613c4c826144a8565b919050565b600073ffffffffffffffffffffffffffffffffffffffff82169050919050565b6000819050919050565b6000613c8682613c3e565b9050919050565b82818337600083830152505050565b60005b83811015613cba578082015181840152602081019050613c9f565b83811115613cc9576000848401525b50505050565b60006002820490506001821680613ce757607f821691505b60208210811415613cfb57613cfa613e39565b5b50919050565b613d0a82613eda565b810181811067ffffffffffffffff82111715613d2957613d28613e97565b5b80604052505050565b6000613d3d82613c71565b91507fffffffffffffffffffffffffffffffffffffffffffffffffffffffffffffffff821415613d7057613d6f613dac565b5b600182019050919050565b6000613d8682613c71565b9150613d9183613c71565b925082613da157613da0613ddb565b5b828206905092915050565b7f4e487b7100000000000000000000000000000000000000000000000000000000600052601160045260246000fd5b7f4e487b7100000000000000000000000000000000000000000000000000000000600052601260045260246000fd5b7f4e487b7100000000000000000000000000000000000000000000000000000000600052602160045260246000fd5b7f4e487b7100000000000000000000000000000000000000000000000000000000600052602260045260246000fd5b7f4e487b7100000000000000000000000000000000000000000000000000000000600052603260045260246000fd5b7f4e487b7100000000000000000000000000000000000000000000000000000000600052604160045260246000fd5b600080fd5b600080fd5b600080fd5b600080fd5b6000601f19601f8301169050919050565b7f4552433732313a207472616e7366657220746f206e6f6e20455243373231526560008201527f63656976657220696d706c656d656e7465720000000000000000000000000000602082015250565b7f4f776e61626c653a206e6577206f776e657220697320746865207a65726f206160008201527f6464726573730000000000000000000000000000000000000000000000000000602082015250565b7f4552433732313a20746f6b656e20616c7265616479206d696e74656400000000600082015250565b7f4552433732313a207472616e7366657220746f20746865207a65726f2061646460008201527f7265737300000000000000000000000000000000000000000000000000000000602082015250565b7f4552433732313a20617070726f766520746f2063616c6c657200000000000000600082015250565b7f4552433732313a206f70657261746f7220717565727920666f72206e6f6e657860008201527f697374656e7420746f6b656e0000000000000000000000000000000000000000602082015250565b7f4552433732313a20617070726f76652063616c6c6572206973206e6f74206f7760008201527f6e6572206e6f7220617070726f76656420666f7220616c6c0000000000000000602082015250565b7f4552433732313a2062616c616e636520717565727920666f7220746865207a6560008201527f726f206164647265737300000000000000000000000000000000000000000000602082015250565b7f4552433732313a206f776e657220717565727920666f72206e6f6e657869737460008201527f656e7420746f6b656e0000000000000000000000000000000000000000000000602082015250565b7f45524337323155524953746f726167653a2055524920736574206f66206e6f6e60008201527f6578697374656e7420746f6b656e000000000000000000000000000000000000602082015250565b7f4552433732313a206d696e7420746f20746865207a65726f2061646472657373600082015250565b7f45524337323155524953746f726167653a2055524920717565727920666f722060008201527f6e6f6e6578697374656e7420746f6b656e000000000000000000000000000000602082015250565b7f4552433732313a20617070726f76656420717565727920666f72206e6f6e657860008201527f697374656e7420746f6b656e0000000000000000000000000000000000000000602082015250565b7f4f776e61626c653a2063616c6c6572206973206e6f7420746865206f776e6572600082015250565b7f4552433732313a207472616e73666572206f6620746f6b656e2074686174206960008201527f73206e6f74206f776e0000000000000000000000000000000000000000000000602082015250565b7f4552433732314d657461646174613a2055524920717565727920666f72206e6f60008201527f6e6578697374656e7420746f6b656e0000000000000000000000000000000000602082015250565b7f6e6f74206d6f7265207468616e20746865207570706572206c696d697420707260008201527f6963650000000000000000000000000000000000000000000000000000000000602082015250565b7f4552433732313a20617070726f76616c20746f2063757272656e74206f776e6560008201527f7200000000000000000000000000000000000000000000000000000000000000602082015250565b7f6174206c6561737420746865207469636b657420707269636500000000000000600082015250565b7f6578636565646564206d6178206e756d626572206f66207469636b657473206260008201527f6f75676874000000000000000000000000000000000000000000000000000000602082015250565b7f4552433732313a207472616e736665722063616c6c6572206973206e6f74206f60008201527f776e6572206e6f7220617070726f766564000000000000000000000000000000602082015250565b600581106144b9576144b8613e0a565b5b50565b6144c581613bf4565b81146144d057600080fd5b50565b6144dc81613c06565b81146144e757600080fd5b50565b6144f381613c12565b81146144fe57600080fd5b50565b61450a81613c71565b811461451557600080fd5b5056fea2646970667358221220c28da9e32d91e36b583d421ac12f948d5eede69aa7bc5224d1a9227ec5aca5a664736f6c63430008070033",
  "immutableReferences": {},
  "source": "// SPDX-License-Identifier: MIT\n// curren deployed address on Shibuya: 0x5D1ce7Fb931274Aa315707aEB2abAD9D138780FA\n\npragma solidity ^0.8.0;\n\nimport \"@openzeppelin/contracts/access/Ownable.sol\";\nimport \"@openzeppelin/contracts/token/ERC721/extensions/ERC721URIStorage.sol\";\nimport \"@openzeppelin/contracts/utils/math/SafeMath.sol\";\n\ncontract Marketplace is Ownable, ERC721URIStorage{\n\n  using SafeMath for uint;\n  \n  enum State { creatingTickets, investmentStart, investmentStop, ticketSaleStart, eventStart }\n  State public currentState = State.creatingTickets; \n  \n  // metadata for each ticket\n  struct Ticket {\n      uint256 maxPrice; // maximum price cap on the ticket\n      uint256 price; // current price\n      bool onSale;\n  }\n  \n  uint256 private _currentTokenId = 0;\n  Ticket[] public tickets; \n  mapping (address => uint256) etherBalance;\n  uint public vaultBalance;\n  uint private _maxTicketNum = 10;\n  string private _base; \n  \n  uint public investmentPrice;\n  uint public unitReturn; \n  uint private _investmentSold = 0;\n  mapping(address=>uint) public investors; // mapping to show number of shares owned by each investor\n\n  constructor() ERC721(\"NFT Tickets\", \"TIX\") {\n    investmentPrice = 30;\n    _setBaseURI(\"https://ipfs.infura.io/ipfs/\");\n  }\n\n  modifier eventNotStarted() {\n    require(currentState == State.ticketSaleStart);\n    _;\n  }\n  \n  function _setBaseURI(string memory _uri) private {\n    _base = _uri; \n  }\n  \n  function _baseURI() internal view override returns (string memory) {\n    return _base;\n  }\n\n  function createTicket(uint256 _price, uint256 _maxPrice, string memory _tokenURI) public onlyOwner {\n    require(currentState == State.creatingTickets);\n    _mint(msg.sender, _currentTokenId); //token id starts from 0\n    tickets.push(Ticket(_maxPrice, _price, true));\n    _setTokenURI(_currentTokenId, _tokenURI);\n    emit ticketCreated(_currentTokenId, _price, _tokenURI);\n    _incrementTokenId();\n  }\n  \n    \n  // let's say the event organiser will have 100 tickets as Collateral\n  // each ticket will cost $100 in the primary market = $10000\n  // for each ticket sold, $40 will be put into a vault (40%)\n  // total collateral worth $40 x 100 (if sold out) = $4000\n  // and now the event organiser wants to pre finance $3000\n  // so the event organiser will sell each collateral at $30 until 100 collateral has been sold\n\n    \n  // investors can choose to invest in a number of tokens\n  function invest(uint _number) public payable {\n    require(currentState == State.investmentStart);\n    require(msg.value == investmentPrice.mul(_number));\n    require(_number + _investmentSold < _currentTokenId.add(1));\n    _incrementInvestmentId(_number);\n    investors[msg.sender] += _number;\n  }\n    \n  function _incrementInvestmentId(uint _number) private {\n    _investmentSold = _investmentSold + _number;\n  }\n    \n  // event organiser can withdraw funds before the event starts\n  function withdraw() public onlyOwner {\n    require(currentState == State.investmentStop);\n    payable(msg.sender).transfer(address(this).balance);\n  }\n    \n  function getContractBalance() public view returns(uint) {\n    return address(this).balance;\n  }\n  \n  function changeTicketPrice(uint256 _tokenId, uint256 _newPrice, string memory _tokenURI) public {\n    require(msg.sender == ownerOf(_tokenId));\n    Ticket storage tix = tickets[_tokenId];\n    require(_newPrice < tix.maxPrice, \"not more than the upper limit price\");\n    tix.price = _newPrice;\n    _setTokenURI(_tokenId, _tokenURI);\n  }\n\n  function startEvent() public onlyOwner {\n    require(currentState == State.ticketSaleStart);\n    currentState = State.eventStart;\n    unitReturn = vaultBalance.div(_investmentSold);\n  }\n  \n  function startInvestment() public onlyOwner {\n    require(currentState == State.creatingTickets);\n    currentState = State.investmentStart; \n  }\n  \n  function stopInvestment() public onlyOwner {\n    require(currentState == State.investmentStart);\n    currentState = State.investmentStop;\n  }\n  \n  function startTicketSale() public onlyOwner {\n    require(currentState == State.investmentStop);\n    currentState = State.ticketSaleStart;\n  }\n  \n  function _incrementTokenId() private {\n    _currentTokenId++;\n  }\n  \n  function retrieve() public {\n    require(currentState == State.eventStart);\n    if (investors[msg.sender] > 0) {\n      etherBalance[msg.sender] += unitReturn.mul(investors[msg.sender]);\n    }\n    payable(msg.sender).transfer(etherBalance[msg.sender]);\n  }\n\n  // tickets need to put on sale first before it could be purchased\n  function toggleSale(uint256 _tokenId) public {\n    require(msg.sender == ownerOf(_tokenId));\n    Ticket storage tix = tickets[_tokenId];\n    tix.onSale = !tix.onSale;\n    emit saleToggled(_tokenId, tix.onSale);\n  }\n\n  // this function should be called by the buyer\n  function buyTicket(uint256 _tokenId) external payable {\n    Ticket storage tix = tickets[_tokenId];\n    require(tix.onSale == true);\n    require(msg.value >= tix.price, \"at least the ticket price\");\n    require(balanceOf(msg.sender) < _maxTicketNum, \"exceeded max number of tickets bought\");\n    address seller = ownerOf(_tokenId);\n    tix.onSale = false;\n    etherBalance[seller] += (msg.value).div(5).mul(3); //60%\n    vaultBalance += (msg.value).div(5).mul(2); //40%\n    _safeTransfer(seller, msg.sender, _tokenId, \"\");\n    emit ticketTransferred(_tokenId, msg.sender);\n    emit saleToggled(_tokenId, false);\n  }\n  \n  function getTicketsLength() public view returns(uint) {\n    return tickets.length;\n  }\n\n  event ticketTransferred(uint256 _id, address _owner); //show the address of new owner\n  event saleToggled(uint256 _id, bool state); //show whether ticket is on sale\n  event ticketCreated(uint256 _id, uint256 _price, string _tokenURI);\n\n}",
  "sourcePath": "/Users/mm-mac/Desktop/mm-projects-blockchain/kaijun-ticketing/blockchain-ticketing/contracts/Marketplace.sol",
  "compiler": {
    "name": "solc",
    "version": "0.8.7+commit.e28d00a7.Emscripten.clang"
  },
  "schemaVersion": "3.2.3",
  "updatedAt": "2021-10-08T16:09:48.362Z",
  "networkType": "ethereum",
  "devdoc": {
    "kind": "dev",
    "methods": {
      "approve(address,uint256)": {
        "details": "See {IERC721-approve}."
      },
      "balanceOf(address)": {
        "details": "See {IERC721-balanceOf}."
      },
      "getApproved(uint256)": {
        "details": "See {IERC721-getApproved}."
      },
      "isApprovedForAll(address,address)": {
        "details": "See {IERC721-isApprovedForAll}."
      },
      "name()": {
        "details": "See {IERC721Metadata-name}."
      },
      "owner()": {
        "details": "Returns the address of the current owner."
      },
      "ownerOf(uint256)": {
        "details": "See {IERC721-ownerOf}."
      },
      "renounceOwnership()": {
        "details": "Leaves the contract without owner. It will not be possible to call `onlyOwner` functions anymore. Can only be called by the current owner. NOTE: Renouncing ownership will leave the contract without an owner, thereby removing any functionality that is only available to the owner."
      },
      "safeTransferFrom(address,address,uint256)": {
        "details": "See {IERC721-safeTransferFrom}."
      },
      "safeTransferFrom(address,address,uint256,bytes)": {
        "details": "See {IERC721-safeTransferFrom}."
      },
      "setApprovalForAll(address,bool)": {
        "details": "See {IERC721-setApprovalForAll}."
      },
      "supportsInterface(bytes4)": {
        "details": "See {IERC165-supportsInterface}."
      },
      "symbol()": {
        "details": "See {IERC721Metadata-symbol}."
      },
      "tokenURI(uint256)": {
        "details": "See {IERC721Metadata-tokenURI}."
      },
      "transferFrom(address,address,uint256)": {
        "details": "See {IERC721-transferFrom}."
      },
      "transferOwnership(address)": {
        "details": "Transfers ownership of the contract to a new account (`newOwner`). Can only be called by the current owner."
      }
    },
    "version": 1
  },
  "userdoc": {
    "kind": "user",
    "methods": {},
    "version": 1
  }
}